{
  "_format": "hh-sol-artifact-1",
  "contractName": "OptimusDogs",
  "sourceName": "contracts/OptimusDogs.sol",
  "abi": [
    {
      "inputs": [
        {
          "internalType": "uint256",
          "name": "maxBatchSize_",
          "type": "uint256"
        },
        {
          "internalType": "uint256",
          "name": "collectionSize_",
          "type": "uint256"
        },
        {
          "internalType": "uint256",
          "name": "AmountForPublic_",
          "type": "uint256"
        },
        {
          "internalType": "uint256",
          "name": "AmountforTeam_",
          "type": "uint256"
        },
        {
          "internalType": "string",
          "name": "_hiddenMetadataUri",
          "type": "string"
        }
      ],
      "stateMutability": "nonpayable",
      "type": "constructor"
    },
    {
      "inputs": [],
      "name": "AmountNotMultipleOfBatchSize",
      "type": "error"
    },
    {
      "inputs": [],
      "name": "ExceedsMaxPerAddress",
      "type": "error"
    },
    {
      "inputs": [],
      "name": "ExceedsMaxPerPublic",
      "type": "error"
    },
    {
      "inputs": [],
      "name": "ExceedsMaxPerTeam",
      "type": "error"
    },
    {
      "inputs": [],
      "name": "ExceedsMaxPerTransaction",
      "type": "error"
    },
    {
      "inputs": [],
      "name": "ExceedsMaxSupply",
      "type": "error"
    },
    {
      "inputs": [],
      "name": "InsufficientPayment",
      "type": "error"
    },
    {
      "inputs": [],
      "name": "InvalidMerkleProof",
      "type": "error"
    },
    {
      "inputs": [],
      "name": "SaleNotActive",
      "type": "error"
    },
    {
      "inputs": [],
      "name": "SaleNotInWLOGPhase",
      "type": "error"
    },
    {
      "inputs": [],
      "name": "TransferFailed",
      "type": "error"
    },
    {
      "anonymous": false,
      "inputs": [
        {
          "indexed": true,
          "internalType": "address",
          "name": "owner",
          "type": "address"
        },
        {
          "indexed": true,
          "internalType": "address",
          "name": "approved",
          "type": "address"
        },
        {
          "indexed": true,
          "internalType": "uint256",
          "name": "tokenId",
          "type": "uint256"
        }
      ],
      "name": "Approval",
      "type": "event"
    },
    {
      "anonymous": false,
      "inputs": [
        {
          "indexed": true,
          "internalType": "address",
          "name": "owner",
          "type": "address"
        },
        {
          "indexed": true,
          "internalType": "address",
          "name": "operator",
          "type": "address"
        },
        {
          "indexed": false,
          "internalType": "bool",
          "name": "approved",
          "type": "bool"
        }
      ],
      "name": "ApprovalForAll",
      "type": "event"
    },
    {
      "anonymous": false,
      "inputs": [
        {
          "indexed": true,
          "internalType": "address",
          "name": "previousOwner",
          "type": "address"
        },
        {
          "indexed": true,
          "internalType": "address",
          "name": "newOwner",
          "type": "address"
        }
      ],
      "name": "OwnershipTransferred",
      "type": "event"
    },
    {
      "anonymous": false,
      "inputs": [
        {
          "indexed": true,
          "internalType": "address",
          "name": "from",
          "type": "address"
        },
        {
          "indexed": true,
          "internalType": "address",
          "name": "to",
          "type": "address"
        },
        {
          "indexed": true,
          "internalType": "uint256",
          "name": "tokenId",
          "type": "uint256"
        }
      ],
      "name": "Transfer",
      "type": "event"
    },
    {
      "inputs": [],
      "name": "AmountForPublic",
      "outputs": [
        {
          "internalType": "uint256",
          "name": "",
          "type": "uint256"
        }
      ],
      "stateMutability": "view",
      "type": "function"
    },
    {
      "inputs": [],
      "name": "AmountforTeam",
      "outputs": [
        {
          "internalType": "uint256",
          "name": "",
          "type": "uint256"
        }
      ],
      "stateMutability": "view",
      "type": "function"
    },
    {
      "inputs": [],
      "name": "MINT_PRICE",
      "outputs": [
        {
          "internalType": "uint256",
          "name": "",
          "type": "uint256"
        }
      ],
      "stateMutability": "view",
      "type": "function"
    },
    {
      "inputs": [],
      "name": "OG_PRICE",
      "outputs": [
        {
          "internalType": "uint256",
          "name": "",
          "type": "uint256"
        }
      ],
      "stateMutability": "view",
      "type": "function"
    },
    {
      "inputs": [],
      "name": "WL_PRICE",
      "outputs": [
        {
          "internalType": "uint256",
          "name": "",
          "type": "uint256"
        }
      ],
      "stateMutability": "view",
      "type": "function"
    },
    {
      "inputs": [
        {
          "internalType": "address",
          "name": "",
          "type": "address"
        }
      ],
      "name": "_mintedPerAddress",
      "outputs": [
        {
          "internalType": "uint256",
          "name": "",
          "type": "uint256"
        }
      ],
      "stateMutability": "view",
      "type": "function"
    },
    {
      "inputs": [
        {
          "internalType": "address",
          "name": "to",
          "type": "address"
        },
        {
          "internalType": "uint256",
          "name": "tokenId",
          "type": "uint256"
        }
      ],
      "name": "approve",
      "outputs": [],
      "stateMutability": "nonpayable",
      "type": "function"
    },
    {
      "inputs": [
        {
          "internalType": "address",
          "name": "owner",
          "type": "address"
        }
      ],
      "name": "balanceOf",
      "outputs": [
        {
          "internalType": "uint256",
          "name": "",
          "type": "uint256"
        }
      ],
      "stateMutability": "view",
      "type": "function"
    },
    {
      "inputs": [
        {
          "internalType": "uint256",
          "name": "tokenId",
          "type": "uint256"
        }
      ],
      "name": "getApproved",
      "outputs": [
        {
          "internalType": "address",
          "name": "",
          "type": "address"
        }
      ],
      "stateMutability": "view",
      "type": "function"
    },
    {
      "inputs": [],
      "name": "hiddenMetadataUri",
      "outputs": [
        {
          "internalType": "string",
          "name": "",
          "type": "string"
        }
      ],
      "stateMutability": "view",
      "type": "function"
    },
    {
      "inputs": [
        {
          "internalType": "address",
          "name": "owner",
          "type": "address"
        },
        {
          "internalType": "address",
          "name": "operator",
          "type": "address"
        }
      ],
      "name": "isApprovedForAll",
      "outputs": [
        {
          "internalType": "bool",
          "name": "",
          "type": "bool"
        }
      ],
      "stateMutability": "view",
      "type": "function"
    },
    {
      "inputs": [],
      "name": "maxBatchSizeForWL",
      "outputs": [
        {
          "internalType": "uint256",
          "name": "",
          "type": "uint256"
        }
      ],
      "stateMutability": "view",
      "type": "function"
    },
    {
      "inputs": [],
      "name": "maxPerAddressDuringMint",
      "outputs": [
        {
          "internalType": "uint256",
          "name": "",
          "type": "uint256"
        }
      ],
      "stateMutability": "view",
      "type": "function"
    },
    {
      "inputs": [],
      "name": "merkleRootOG",
      "outputs": [
        {
          "internalType": "bytes32",
          "name": "",
          "type": "bytes32"
        }
      ],
      "stateMutability": "view",
      "type": "function"
    },
    {
      "inputs": [],
      "name": "merkleRootWL",
      "outputs": [
        {
          "internalType": "bytes32",
          "name": "",
          "type": "bytes32"
        }
      ],
      "stateMutability": "view",
      "type": "function"
    },
    {
      "inputs": [
        {
          "internalType": "uint256",
          "name": "amount",
          "type": "uint256"
        },
        {
          "internalType": "bytes32[]",
          "name": "merkleProof",
          "type": "bytes32[]"
        }
      ],
      "name": "mintForOG",
      "outputs": [],
      "stateMutability": "payable",
      "type": "function"
    },
    {
      "inputs": [
        {
          "internalType": "uint256",
          "name": "amount",
          "type": "uint256"
        }
      ],
      "name": "mintForPublic",
      "outputs": [],
      "stateMutability": "payable",
      "type": "function"
    },
    {
      "inputs": [
        {
          "internalType": "uint256",
          "name": "amount",
          "type": "uint256"
        }
      ],
      "name": "mintForTeam",
      "outputs": [],
      "stateMutability": "nonpayable",
      "type": "function"
    },
    {
      "inputs": [
        {
          "internalType": "uint256",
          "name": "amount",
          "type": "uint256"
        },
        {
          "internalType": "bytes32[]",
          "name": "merkleProof",
          "type": "bytes32[]"
        }
      ],
      "name": "mintForWL",
      "outputs": [],
      "stateMutability": "payable",
      "type": "function"
    },
    {
      "inputs": [],
      "name": "name",
      "outputs": [
        {
          "internalType": "string",
          "name": "",
          "type": "string"
        }
      ],
      "stateMutability": "view",
      "type": "function"
    },
    {
      "inputs": [],
      "name": "nextOwnerToExplicitlySet",
      "outputs": [
        {
          "internalType": "uint256",
          "name": "",
          "type": "uint256"
        }
      ],
      "stateMutability": "view",
      "type": "function"
    },
    {
      "inputs": [],
      "name": "owner",
      "outputs": [
        {
          "internalType": "address",
          "name": "",
          "type": "address"
        }
      ],
      "stateMutability": "view",
      "type": "function"
    },
    {
      "inputs": [
        {
          "internalType": "uint256",
          "name": "tokenId",
          "type": "uint256"
        }
      ],
      "name": "ownerOf",
      "outputs": [
        {
          "internalType": "address",
          "name": "",
          "type": "address"
        }
      ],
      "stateMutability": "view",
      "type": "function"
    },
    {
      "inputs": [],
      "name": "remainingTeamMints",
      "outputs": [
        {
          "internalType": "uint256",
          "name": "",
          "type": "uint256"
        }
      ],
      "stateMutability": "view",
      "type": "function"
    },
    {
      "inputs": [],
      "name": "renounceOwnership",
      "outputs": [],
      "stateMutability": "nonpayable",
      "type": "function"
    },
    {
      "inputs": [],
      "name": "revealed",
      "outputs": [
        {
          "internalType": "bool",
          "name": "",
          "type": "bool"
        }
      ],
      "stateMutability": "view",
      "type": "function"
    },
    {
      "inputs": [
        {
          "internalType": "uint256",
          "name": "_tokenId",
          "type": "uint256"
        },
        {
          "internalType": "uint256",
          "name": "_salePrice",
          "type": "uint256"
        }
      ],
      "name": "royaltyInfo",
      "outputs": [
        {
          "internalType": "address",
          "name": "",
          "type": "address"
        },
        {
          "internalType": "uint256",
          "name": "",
          "type": "uint256"
        }
      ],
      "stateMutability": "view",
      "type": "function"
    },
    {
      "inputs": [
        {
          "internalType": "address",
          "name": "from",
          "type": "address"
        },
        {
          "internalType": "address",
          "name": "to",
          "type": "address"
        },
        {
          "internalType": "uint256",
          "name": "tokenId",
          "type": "uint256"
        }
      ],
      "name": "safeTransferFrom",
      "outputs": [],
      "stateMutability": "nonpayable",
      "type": "function"
    },
    {
      "inputs": [
        {
          "internalType": "address",
          "name": "from",
          "type": "address"
        },
        {
          "internalType": "address",
          "name": "to",
          "type": "address"
        },
        {
          "internalType": "uint256",
          "name": "tokenId",
          "type": "uint256"
        },
        {
          "internalType": "bytes",
          "name": "_data",
          "type": "bytes"
        }
      ],
      "name": "safeTransferFrom",
      "outputs": [],
      "stateMutability": "nonpayable",
      "type": "function"
    },
    {
      "inputs": [],
      "name": "salePhase",
      "outputs": [
        {
          "internalType": "uint256",
          "name": "",
          "type": "uint256"
        }
      ],
      "stateMutability": "view",
      "type": "function"
    },
    {
      "inputs": [
        {
          "internalType": "address",
          "name": "operator",
          "type": "address"
        },
        {
          "internalType": "bool",
          "name": "approved",
          "type": "bool"
        }
      ],
      "name": "setApprovalForAll",
      "outputs": [],
      "stateMutability": "nonpayable",
      "type": "function"
    },
    {
      "inputs": [
        {
          "internalType": "address",
          "name": "receiver",
          "type": "address"
        },
        {
          "internalType": "uint96",
          "name": "feeNumerator",
          "type": "uint96"
        }
      ],
      "name": "setDefaultRoyalty",
      "outputs": [],
      "stateMutability": "nonpayable",
      "type": "function"
    },
    {
      "inputs": [
        {
          "internalType": "string",
          "name": "_hiddenMetadataUri",
          "type": "string"
        }
      ],
      "name": "setHiddenMetadataUri",
      "outputs": [],
      "stateMutability": "nonpayable",
      "type": "function"
    },
    {
      "inputs": [
        {
          "internalType": "bytes32",
          "name": "merkleRoot",
          "type": "bytes32"
        }
      ],
      "name": "setMerkleRootOG",
      "outputs": [],
      "stateMutability": "nonpayable",
      "type": "function"
    },
    {
      "inputs": [
        {
          "internalType": "bytes32",
          "name": "merkleRoot",
          "type": "bytes32"
        }
      ],
      "name": "setMerkleRootWL",
      "outputs": [],
      "stateMutability": "nonpayable",
      "type": "function"
    },
    {
      "inputs": [
        {
          "internalType": "bool",
          "name": "_state",
          "type": "bool"
        }
      ],
      "name": "setRevealed",
      "outputs": [],
      "stateMutability": "nonpayable",
      "type": "function"
    },
    {
      "inputs": [
        {
          "internalType": "uint256",
          "name": "phase",
          "type": "uint256"
        }
      ],
      "name": "setSalePhase",
      "outputs": [],
      "stateMutability": "nonpayable",
      "type": "function"
    },
    {
      "inputs": [
        {
          "internalType": "string",
          "name": "_uriPrefix",
          "type": "string"
        }
      ],
      "name": "setUriPrefix",
      "outputs": [],
      "stateMutability": "nonpayable",
      "type": "function"
    },
    {
      "inputs": [
        {
          "internalType": "string",
          "name": "_uriSuffix",
          "type": "string"
        }
      ],
      "name": "setUriSuffix",
      "outputs": [],
      "stateMutability": "nonpayable",
      "type": "function"
    },
    {
      "inputs": [
        {
          "internalType": "bytes4",
          "name": "interfaceId",
          "type": "bytes4"
        }
      ],
      "name": "supportsInterface",
      "outputs": [
        {
          "internalType": "bool",
          "name": "",
          "type": "bool"
        }
      ],
      "stateMutability": "view",
      "type": "function"
    },
    {
      "inputs": [],
      "name": "symbol",
      "outputs": [
        {
          "internalType": "string",
          "name": "",
          "type": "string"
        }
      ],
      "stateMutability": "view",
      "type": "function"
    },
    {
      "inputs": [
        {
          "internalType": "uint256",
          "name": "index",
          "type": "uint256"
        }
      ],
      "name": "tokenByIndex",
      "outputs": [
        {
          "internalType": "uint256",
          "name": "",
          "type": "uint256"
        }
      ],
      "stateMutability": "view",
      "type": "function"
    },
    {
      "inputs": [
        {
          "internalType": "address",
          "name": "owner",
          "type": "address"
        },
        {
          "internalType": "uint256",
          "name": "index",
          "type": "uint256"
        }
      ],
      "name": "tokenOfOwnerByIndex",
      "outputs": [
        {
          "internalType": "uint256",
          "name": "",
          "type": "uint256"
        }
      ],
      "stateMutability": "view",
      "type": "function"
    },
    {
      "inputs": [
        {
          "internalType": "uint256",
          "name": "_tokenId",
          "type": "uint256"
        }
      ],
      "name": "tokenURI",
      "outputs": [
        {
          "internalType": "string",
          "name": "",
          "type": "string"
        }
      ],
      "stateMutability": "view",
      "type": "function"
    },
    {
      "inputs": [],
      "name": "totalSupply",
      "outputs": [
        {
          "internalType": "uint256",
          "name": "",
          "type": "uint256"
        }
      ],
      "stateMutability": "view",
      "type": "function"
    },
    {
      "inputs": [
        {
          "internalType": "address",
          "name": "from",
          "type": "address"
        },
        {
          "internalType": "address",
          "name": "to",
          "type": "address"
        },
        {
          "internalType": "uint256",
          "name": "tokenId",
          "type": "uint256"
        }
      ],
      "name": "transferFrom",
      "outputs": [],
      "stateMutability": "nonpayable",
      "type": "function"
    },
    {
      "inputs": [
        {
          "internalType": "address",
          "name": "newOwner",
          "type": "address"
        }
      ],
      "name": "transferOwnership",
      "outputs": [],
      "stateMutability": "nonpayable",
      "type": "function"
    },
    {
      "inputs": [],
      "name": "uriPrefix",
      "outputs": [
        {
          "internalType": "string",
          "name": "",
          "type": "string"
        }
      ],
      "stateMutability": "view",
      "type": "function"
    },
    {
      "inputs": [],
      "name": "uriSuffix",
      "outputs": [
        {
          "internalType": "string",
          "name": "",
          "type": "string"
        }
      ],
      "stateMutability": "view",
      "type": "function"
    },
    {
      "inputs": [],
      "name": "withdrawMoney",
      "outputs": [],
      "stateMutability": "nonpayable",
      "type": "function"
    }
  ],
  "bytecode": "0x5f8080556007819055668e1bc9bf040000600c55666a94d74f430000600d55665c5edcbc290000600e5561016060405261014090815260109062000044908262000502565b50604080518082019091526005815264173539b7b760d91b602082015260119062000070908262000502565b505f6013556016805460ff191690553480156200008b575f80fd5b50604051620036d9380380620036d9833981016040819052620000ae91620005ca565b6040518060400160405280600b81526020016a4f7074696d7573446f677360a81b815250604051806040016040528060068152602001654f50444f475360d01b81525086865f81116200015f5760405162461bcd60e51b815260206004820152602e60248201527f455243373231413a20636f6c6c656374696f6e206d757374206861766520612060448201526d6e6f6e7a65726f20737570706c7960901b60648201526084015b60405180910390fd5b5f8211620001c05760405162461bcd60e51b815260206004820152602760248201527f455243373231413a206d61782062617463682073697a65206d757374206265206044820152666e6f6e7a65726f60c81b606482015260840162000156565b6001620001ce858262000502565b506002620001dd848262000502565b5060a09190915260805250620001f590503362000296565b600160095562000208336101f4620002e7565b6200021381620003e8565b60c085905262000225600286620006bf565b6101205261010083905260e0829052600f829055838311156200028b5760405162461bcd60e51b815260206004820152601d60248201527f6c617267657220636f6c6c656374696f6e2073697a65206e6565646564000000604482015260640162000156565b5050505050620006df565b600880546001600160a01b038381166001600160a01b0319831681179093556040519116919082907f8be0079c531659141344cd1fd0a4f28419497f9722a3daafe3b4186f6b6457e0905f90a35050565b6127106001600160601b0382161115620003575760405162461bcd60e51b815260206004820152602a60248201527f455243323938313a20726f79616c7479206665652077696c6c206578636565646044820152692073616c65507269636560b01b606482015260840162000156565b6001600160a01b038216620003af5760405162461bcd60e51b815260206004820152601960248201527f455243323938313a20696e76616c696420726563656976657200000000000000604482015260640162000156565b604080518082019091526001600160a01b039092168083526001600160601b039091166020909201829052600160a01b90910217600a55565b620003f262000404565b601262000400828262000502565b5050565b6008546001600160a01b03163314620004605760405162461bcd60e51b815260206004820181905260248201527f4f776e61626c653a2063616c6c6572206973206e6f7420746865206f776e6572604482015260640162000156565b565b634e487b7160e01b5f52604160045260245ffd5b600181811c908216806200048b57607f821691505b602082108103620004aa57634e487b7160e01b5f52602260045260245ffd5b50919050565b601f821115620004fd575f81815260208120601f850160051c81016020861015620004d85750805b601f850160051c820191505b81811015620004f957828155600101620004e4565b5050505b505050565b81516001600160401b038111156200051e576200051e62000462565b62000536816200052f845462000476565b84620004b0565b602080601f8311600181146200056c575f8415620005545750858301515b5f19600386901b1c1916600185901b178555620004f9565b5f85815260208120601f198616915b828110156200059c578886015182559484019460019091019084016200057b565b5085821015620005ba57878501515f19600388901b60f8161c191681555b5050505050600190811b01905550565b5f805f805f60a08688031215620005df575f80fd5b8551602080880151604089015160608a015160808b015194995091975095509350906001600160401b038082111562000616575f80fd5b818901915089601f8301126200062a575f80fd5b8151818111156200063f576200063f62000462565b604051601f8201601f19908116603f011681019083821181831017156200066a576200066a62000462565b816040528281528c8684870101111562000682575f80fd5b5f93505b82841015620006a5578484018601518185018701529285019262000686565b5f8684830101528096505050505050509295509295909350565b5f82620006da57634e487b7160e01b5f52601260045260245ffd5b500490565b60805160a05160c05160e0516101005161012051612f50620007895f395f81816105c201528181610dfa01528181610e4a01528181611813015261186301525f818161058f01528181610e96015281816113cb01526118af01525f61052901525f818161065a0152818161132f015261137f01525f81816110f8015281816111410152818161117801528181611ffe01528181612028015261244d01525f61107f0152612f505ff3fe6080604052600436106102bf575f3560e01c80637ec4a6591161016f578063b769c7a4116100d8578063d7224ba011610092578063e985e9c51161006d578063e985e9c514610857578063f2fde38b1461089e578063f31b5b33146108bd578063f375b7c7146108d0575f80fd5b8063d7224ba01461080e578063e0a8085314610823578063e4f2487a14610842575f80fd5b8063b769c7a41461075c578063b88d4fde1461077b578063c002d23d1461079a578063c87b56dd146107af578063c9a32039146107ce578063d6492d81146107f9575f80fd5b8063a22cb46511610129578063a22cb465146106c2578063a45ba8e7146106e1578063a58fdc11146106f5578063ac44600214610714578063ad3e31b714610728578063ad6cb31914610747575f80fd5b80637ec4a6591461061757806382448412146106365780638bc35c2f146106495780638da5cb5b1461067c57806390069b421461069957806395d89b41146106ae575f80fd5b806342842e0e1161022b5780635c4be282116101e55780636ca2a558116101c05780636ca2a5581461057e5780636e125b28146105b157806370a08231146105e4578063715018a614610603575f80fd5b80635c4be2821461051857806362b99ad41461054b5780636352211e1461055f575f80fd5b806342842e0e1461046f5780634f6ccce71461048e5780634fdd43cb146104ad57806351830227146104cc5780635503a0e8146104e55780635a4d448a146104f9575f80fd5b806318160ddd1161027c57806318160ddd146103ae57806323b872dd146103cb5780632a55205a146103ea5780632f745c591461042857806331c3c7a014610447578063370a36bd1461045c575f80fd5b806301ffc9a7146102c357806304634d8d146102f757806306fdde0314610318578063081812fc14610339578063095ea7b31461037057806316ba10e01461038f575b5f80fd5b3480156102ce575f80fd5b506102e26102dd3660046127c7565b6108e5565b60405190151581526020015b60405180910390f35b348015610302575f80fd5b506103166103113660046127fd565b6108f5565b005b348015610323575f80fd5b5061032c61090b565b6040516102ee919061288a565b348015610344575f80fd5b5061035861035336600461289c565b61099b565b6040516001600160a01b0390911681526020016102ee565b34801561037b575f80fd5b5061031661038a3660046128b3565b610a28565b34801561039a575f80fd5b506103166103a9366004612962565b610b3e565b3480156103b9575f80fd5b505f545b6040519081526020016102ee565b3480156103d6575f80fd5b506103166103e53660046129a7565b610b52565b3480156103f5575f80fd5b506104096104043660046129e0565b610b5d565b604080516001600160a01b0390931683526020830191909152016102ee565b348015610433575f80fd5b506103bd6104423660046128b3565b610c07565b348015610452575f80fd5b506103bd600d5481565b61031661046a366004612a00565b610d70565b34801561047a575f80fd5b506103166104893660046129a7565b610f52565b348015610499575f80fd5b506103bd6104a836600461289c565b610f6c565b3480156104b8575f80fd5b506103166104c7366004612962565b610fcd565b3480156104d7575f80fd5b506016546102e29060ff1681565b3480156104f0575f80fd5b5061032c610fe1565b348015610504575f80fd5b5061031661051336600461289c565b61106d565b348015610523575f80fd5b506103bd7f000000000000000000000000000000000000000000000000000000000000000081565b348015610556575f80fd5b5061032c6111d1565b34801561056a575f80fd5b5061035861057936600461289c565b6111de565b348015610589575f80fd5b506103bd7f000000000000000000000000000000000000000000000000000000000000000081565b3480156105bc575f80fd5b506103bd7f000000000000000000000000000000000000000000000000000000000000000081565b3480156105ef575f80fd5b506103bd6105fe366004612a78565b6111ef565b34801561060e575f80fd5b5061031661127e565b348015610622575f80fd5b50610316610631366004612962565b611291565b610316610644366004612a00565b6112a5565b348015610654575f80fd5b506103bd7f000000000000000000000000000000000000000000000000000000000000000081565b348015610687575f80fd5b506008546001600160a01b0316610358565b3480156106a4575f80fd5b506103bd600e5481565b3480156106b9575f80fd5b5061032c61142b565b3480156106cd575f80fd5b506103166106dc366004612aa0565b61143a565b3480156106ec575f80fd5b5061032c6114fd565b348015610700575f80fd5b5061031661070f36600461289c565b61150a565b34801561071f575f80fd5b50610316611517565b348015610733575f80fd5b5061031661074236600461289c565b611598565b348015610752575f80fd5b506103bd60155481565b348015610767575f80fd5b5061031661077636600461289c565b6115a5565b348015610786575f80fd5b50610316610795366004612ad1565b6115b2565b3480156107a5575f80fd5b506103bd600c5481565b3480156107ba575f80fd5b5061032c6107c936600461289c565b6115eb565b3480156107d9575f80fd5b506103bd6107e8366004612a78565b60176020525f908152604090205481565b348015610804575f80fd5b506103bd60145481565b348015610819575f80fd5b506103bd60075481565b34801561082e575f80fd5b5061031661083d366004612b48565b611755565b34801561084d575f80fd5b506103bd60135481565b348015610862575f80fd5b506102e2610871366004612b61565b6001600160a01b039182165f90815260066020908152604080832093909416825291909152205460ff1690565b3480156108a9575f80fd5b506103166108b8366004612a78565b611770565b6103166108cb36600461289c565b6117e6565b3480156108db575f80fd5b506103bd600f5481565b5f6108ef8261196b565b92915050565b6108fd61198f565b61090782826119e9565b5050565b60606001805461091a90612b89565b80601f016020809104026020016040519081016040528092919081815260200182805461094690612b89565b80156109915780601f1061096857610100808354040283529160200191610991565b820191905f5260205f20905b81548152906001019060200180831161097457829003601f168201915b5050505050905090565b5f6109a6825f541190565b610a0d5760405162461bcd60e51b815260206004820152602d60248201527f455243373231413a20617070726f76656420717565727920666f72206e6f6e6560448201526c3c34b9ba32b73a103a37b5b2b760991b60648201526084015b60405180910390fd5b505f908152600560205260409020546001600160a01b031690565b5f610a32826111de565b9050806001600160a01b0316836001600160a01b031603610aa05760405162461bcd60e51b815260206004820152602260248201527f455243373231413a20617070726f76616c20746f2063757272656e74206f776e60448201526132b960f11b6064820152608401610a04565b336001600160a01b0382161480610abc5750610abc8133610871565b610b2e5760405162461bcd60e51b815260206004820152603960248201527f455243373231413a20617070726f76652063616c6c6572206973206e6f74206f60448201527f776e6572206e6f7220617070726f76656420666f7220616c6c000000000000006064820152608401610a04565b610b39838383611ae6565b505050565b610b4661198f565b60116109078282612c06565b610b39838383611b41565b5f828152600b602090815260408083208151808301909252546001600160a01b038116808352600160a01b9091046001600160601b0316928201929092528291610bd1575060408051808201909152600a546001600160a01b0381168252600160a01b90046001600160601b031660208201525b60208101515f9061271090610bef906001600160601b031687612cd6565b610bf99190612d01565b915196919550909350505050565b5f610c11836111ef565b8210610c6a5760405162461bcd60e51b815260206004820152602260248201527f455243373231413a206f776e657220696e646578206f7574206f6620626f756e604482015261647360f01b6064820152608401610a04565b5f80549080805b83811015610d10575f818152600360209081526040918290208251808401909352546001600160a01b038116808452600160a01b90910467ffffffffffffffff169183019190915215610cc357805192505b876001600160a01b0316836001600160a01b031603610cfd57868403610cef575093506108ef92505050565b83610cf981612d14565b9450505b5080610d0881612d14565b915050610c71565b5060405162461bcd60e51b815260206004820152602e60248201527f455243373231413a20756e61626c6520746f2067657420746f6b656e206f662060448201526d0deeedccae440c4f240d2dcc8caf60931b6064820152608401610a04565b610d78611ebe565b601354600114610d9b57604051634ce630e160e01b815260040160405180910390fd5b610ddb338383808060200260200160405190810160405280939291908181526020018383602002808284375f92019190915250506014549150611f179050565b610df85760405163582f497d60e11b815260040160405180910390fd5b7f0000000000000000000000000000000000000000000000000000000000000000831115610e395760405163162d230560e11b815260040160405180910390fd5b335f908152601760205260409020547f000000000000000000000000000000000000000000000000000000000000000090610e75908590612d2c565b1115610e945760405163061b63e160e31b815260040160405180910390fd5b7f000000000000000000000000000000000000000000000000000000000000000083610ebe5f5490565b610ec89190612d2c565b1115610ee757604051630283147360e61b815260040160405180910390fd5b5f83600d54610ef69190612cd6565b905080341015610f195760405163cd1c886760e01b815260040160405180910390fd5b335f9081526017602052604081208054869290610f37908490612d2c565b90915550610f4790503385611f66565b50610b396001600955565b610b3983838360405180602001604052805f8152506115b2565b5f80548210610fc95760405162461bcd60e51b815260206004820152602360248201527f455243373231413a20676c6f62616c20696e646578206f7574206f6620626f756044820152626e647360e81b6064820152608401610a04565b5090565b610fd561198f565b60126109078282612c06565b60118054610fee90612b89565b80601f016020809104026020016040519081016040528092919081815260200182805461101a90612b89565b80156110655780601f1061103c57610100808354040283529160200191611065565b820191905f5260205f20905b81548152906001019060200180831161104857829003601f168201915b505050505081565b611075611ebe565b61107d61198f565b7f0000000000000000000000000000000000000000000000000000000000000000816110a75f5490565b6110b19190612d2c565b11156110d05760405163c30436e960e01b815260040160405180910390fd5b80600f5410156110f3576040516327d5107960e21b815260040160405180910390fd5b61111d7f000000000000000000000000000000000000000000000000000000000000000082612d3f565b1561113b57604051634341e6ed60e01b815260040160405180910390fd5b5f6111667f000000000000000000000000000000000000000000000000000000000000000083612d01565b90505f5b818110156111ae5761119c337f0000000000000000000000000000000000000000000000000000000000000000611f66565b806111a681612d14565b91505061116a565b5081600f5f8282546111c09190612d52565b909155505060016009555050565b50565b60108054610fee90612b89565b5f6111e882611f7f565b5192915050565b5f6001600160a01b03821661125a5760405162461bcd60e51b815260206004820152602b60248201527f455243373231413a2062616c616e636520717565727920666f7220746865207a60448201526a65726f206164647265737360a81b6064820152608401610a04565b506001600160a01b03165f908152600460205260409020546001600160801b031690565b61128661198f565b61128f5f612125565b565b61129961198f565b60106109078282612c06565b6112ad611ebe565b6013546001146112d057604051634ce630e160e01b815260040160405180910390fd5b611310338383808060200260200160405190810160405280939291908181526020018383602002808284375f92019190915250506015549150611f179050565b61132d5760405163582f497d60e11b815260040160405180910390fd5b7f000000000000000000000000000000000000000000000000000000000000000083111561136e5760405163162d230560e11b815260040160405180910390fd5b335f908152601760205260409020547f0000000000000000000000000000000000000000000000000000000000000000906113aa908590612d2c565b11156113c95760405163061b63e160e31b815260040160405180910390fd5b7f0000000000000000000000000000000000000000000000000000000000000000836113f35f5490565b6113fd9190612d2c565b111561141c57604051630283147360e61b815260040160405180910390fd5b5f83600e54610ef69190612cd6565b60606002805461091a90612b89565b336001600160a01b038316036114925760405162461bcd60e51b815260206004820152601a60248201527f455243373231413a20617070726f766520746f2063616c6c65720000000000006044820152606401610a04565b335f8181526006602090815260408083206001600160a01b03871680855290835292819020805460ff191686151590811790915590519081529192917f17307eab39ab6107e8899845ad3d59bd9653f200f220920489ca2b5937696c31910160405180910390a35050565b60128054610fee90612b89565b61151261198f565b601555565b61151f61198f565b611527611ebe565b6040515f90339047908381818185875af1925050503d805f8114611566576040519150601f19603f3d011682016040523d82523d5f602084013e61156b565b606091505b505090508061158d576040516312171d8360e31b815260040160405180910390fd5b5061128f6001600955565b6115a061198f565b601455565b6115ad61198f565b601355565b6115bd848484611b41565b6115c984848484612176565b6115e55760405162461bcd60e51b8152600401610a0490612d65565b50505050565b60606115f7825f541190565b61165b5760405162461bcd60e51b815260206004820152602f60248201527f4552433732314d657461646174613a2055524920717565727920666f72206e6f60448201526e3732bc34b9ba32b73a103a37b5b2b760891b6064820152608401610a04565b60165460ff1615155f036116f9576012805461167690612b89565b80601f01602080910402602001604051908101604052809291908181526020018280546116a290612b89565b80156116ed5780601f106116c4576101008083540402835291602001916116ed565b820191905f5260205f20905b8154815290600101906020018083116116d057829003601f168201915b50505050509050919050565b5f611702612274565b90505f8151116117205760405180602001604052805f81525061174e565b8061172a84612283565b601160405160200161173e93929190612db8565b6040516020818303038152906040525b9392505050565b61175d61198f565b6016805460ff1916911515919091179055565b61177861198f565b6001600160a01b0381166117dd5760405162461bcd60e51b815260206004820152602660248201527f4f776e61626c653a206e6577206f776e657220697320746865207a65726f206160448201526564647265737360d01b6064820152608401610a04565b6111ce81612125565b6117ee611ebe565b6013546002146118115760405163b7b2409760e01b815260040160405180910390fd5b7f00000000000000000000000000000000000000000000000000000000000000008111156118525760405163162d230560e11b815260040160405180910390fd5b335f908152601760205260409020547f00000000000000000000000000000000000000000000000000000000000000009061188e908390612d2c565b11156118ad5760405163061b63e160e31b815260040160405180910390fd5b7f0000000000000000000000000000000000000000000000000000000000000000816118d75f5490565b6118e19190612d2c565b111561190057604051630283147360e61b815260040160405180910390fd5b335f908152601760205260408120805483929061191e908490612d2c565b9091555050600c545f90611933908390612cd6565b9050803410156119565760405163cd1c886760e01b815260040160405180910390fd5b6119603383611f66565b506111ce6001600955565b5f6001600160e01b0319821663152a902d60e11b14806108ef57506108ef82612313565b6008546001600160a01b0316331461128f5760405162461bcd60e51b815260206004820181905260248201527f4f776e61626c653a2063616c6c6572206973206e6f7420746865206f776e65726044820152606401610a04565b6127106001600160601b0382161115611a575760405162461bcd60e51b815260206004820152602a60248201527f455243323938313a20726f79616c7479206665652077696c6c206578636565646044820152692073616c65507269636560b01b6064820152608401610a04565b6001600160a01b038216611aad5760405162461bcd60e51b815260206004820152601960248201527f455243323938313a20696e76616c6964207265636569766572000000000000006044820152606401610a04565b604080518082019091526001600160a01b039092168083526001600160601b039091166020909201829052600160a01b90910217600a55565b5f8281526005602052604080822080546001600160a01b0319166001600160a01b0387811691821790925591518593918516917f8c5be1e5ebec7d5bd14f71427d1e84f3dd0314c0f7b2291e5b200ac8c7c3b92591a4505050565b5f611b4b82611f7f565b80519091505f906001600160a01b0316336001600160a01b03161480611b81575033611b768461099b565b6001600160a01b0316145b80611b9357508151611b939033610871565b905080611bfd5760405162461bcd60e51b815260206004820152603260248201527f455243373231413a207472616e736665722063616c6c6572206973206e6f74206044820152711bdddb995c881b9bdc88185c1c1c9bdd995960721b6064820152608401610a04565b846001600160a01b0316825f01516001600160a01b031614611c705760405162461bcd60e51b815260206004820152602660248201527f455243373231413a207472616e736665722066726f6d20696e636f72726563746044820152651037bbb732b960d11b6064820152608401610a04565b6001600160a01b038416611cd45760405162461bcd60e51b815260206004820152602560248201527f455243373231413a207472616e7366657220746f20746865207a65726f206164604482015264647265737360d81b6064820152608401610a04565b611ce25f84845f0151611ae6565b6001600160a01b0385165f908152600460205260408120805460019290611d139084906001600160801b0316612e53565b82546101009290920a6001600160801b038181021990931691831602179091556001600160a01b0386165f9081526004602052604081208054600194509092611d5e91859116612e7a565b82546001600160801b039182166101009390930a9283029190920219909116179055506040805180820182526001600160a01b03808716825267ffffffffffffffff42811660208085019182525f8981526003909152948520935184549151909216600160a01b026001600160e01b03199091169190921617179055611de5846001612d2c565b5f818152600360205260409020549091506001600160a01b0316611e7457611e0d815f541190565b15611e745760408051808201825284516001600160a01b03908116825260208087015167ffffffffffffffff9081168285019081525f878152600390935294909120925183549451909116600160a01b026001600160e01b03199094169116179190911790555b83856001600160a01b0316876001600160a01b03167fddf252ad1be2c89b69c2b068fc378daa952ba7f163c4a11628f55a4df523b3ef60405160405180910390a45b505050505050565b600260095403611f105760405162461bcd60e51b815260206004820152601f60248201527f5265656e7472616e637947756172643a207265656e7472616e742063616c6c006044820152606401610a04565b6002600955565b6040516bffffffffffffffffffffffff19606085901b1660208201525f908190603401604051602081830303815290604052805190602001209050611f5d84848361237d565b95945050505050565b610907828260405180602001604052805f815250612392565b604080518082019091525f8082526020820152611f9c825f541190565b611ffb5760405162461bcd60e51b815260206004820152602a60248201527f455243373231413a206f776e657220717565727920666f72206e6f6e657869736044820152693a32b73a103a37b5b2b760b11b6064820152608401610a04565b5f7f0000000000000000000000000000000000000000000000000000000000000000831061205b5761204d7f000000000000000000000000000000000000000000000000000000000000000084612d52565b612058906001612d2c565b90505b825b8181106120c4575f818152600360209081526040918290208251808401909352546001600160a01b038116808452600160a01b90910467ffffffffffffffff1691830191909152156120b157949350505050565b50806120bc81612e9a565b91505061205d565b5060405162461bcd60e51b815260206004820152602f60248201527f455243373231413a20756e61626c6520746f2064657465726d696e652074686560448201526e1037bbb732b91037b3103a37b5b2b760891b6064820152608401610a04565b600880546001600160a01b038381166001600160a01b0319831681179093556040519116919082907f8be0079c531659141344cd1fd0a4f28419497f9722a3daafe3b4186f6b6457e0905f90a35050565b5f6001600160a01b0384163b1561226857604051630a85bd0160e11b81526001600160a01b0385169063150b7a02906121b9903390899088908890600401612eaf565b6020604051808303815f875af19250505080156121f3575060408051601f3d908101601f191682019092526121f091810190612eeb565b60015b61224e573d808015612220576040519150601f19603f3d011682016040523d82523d5f602084013e612225565b606091505b5080515f036122465760405162461bcd60e51b8152600401610a0490612d65565b805181602001fd5b6001600160e01b031916630a85bd0160e11b14905061226c565b5060015b949350505050565b60606010805461091a90612b89565b60605f61228f83612666565b60010190505f8167ffffffffffffffff8111156122ae576122ae6128db565b6040519080825280601f01601f1916602001820160405280156122d8576020820181803683370190505b5090508181016020015b5f19016f181899199a1a9b1b9c1cb0b131b232b360811b600a86061a8153600a85049450846122e257509392505050565b5f6001600160e01b031982166380ac58cd60e01b148061234357506001600160e01b03198216635b5e139f60e01b145b8061235e57506001600160e01b0319821663780e9d6360e01b145b806108ef57506301ffc9a760e01b6001600160e01b03198316146108ef565b5f82612389858461273d565b14949350505050565b5f546001600160a01b0384166123f45760405162461bcd60e51b815260206004820152602160248201527f455243373231413a206d696e7420746f20746865207a65726f206164647265736044820152607360f81b6064820152608401610a04565b6123fe815f541190565b1561244b5760405162461bcd60e51b815260206004820152601d60248201527f455243373231413a20746f6b656e20616c7265616479206d696e7465640000006044820152606401610a04565b7f00000000000000000000000000000000000000000000000000000000000000008311156124c65760405162461bcd60e51b815260206004820152602260248201527f455243373231413a207175616e7469747920746f206d696e7420746f6f2068696044820152610ced60f31b6064820152608401610a04565b6001600160a01b0384165f908152600460209081526040918290208251808401845290546001600160801b038082168352600160801b9091041691810191909152815180830190925280519091908190612521908790612e7a565b6001600160801b0316815260200185836020015161253f9190612e7a565b6001600160801b039081169091526001600160a01b038088165f8181526004602090815260408083208751978301518716600160801b0297909616969096179094558451808601865291825267ffffffffffffffff4281168386019081528883526003909552948120915182549451909516600160a01b026001600160e01b031990941694909216939093179190911790915582905b8581101561265c5760405182906001600160a01b038916905f907fddf252ad1be2c89b69c2b068fc378daa952ba7f163c4a11628f55a4df523b3ef908290a46126205f888488612176565b61263c5760405162461bcd60e51b8152600401610a0490612d65565b8161264681612d14565b925050808061265490612d14565b9150506125d5565b505f819055611eb6565b5f8072184f03e93ff9f4daa797ed6e38ed64bf6a1f0160401b83106126a45772184f03e93ff9f4daa797ed6e38ed64bf6a1f0160401b830492506040015b6d04ee2d6d415b85acef810000000083106126d0576d04ee2d6d415b85acef8100000000830492506020015b662386f26fc1000083106126ee57662386f26fc10000830492506010015b6305f5e1008310612706576305f5e100830492506008015b612710831061271a57612710830492506004015b6064831061272c576064830492506002015b600a83106108ef5760010192915050565b5f81815b84518110156127815761276d8286838151811061276057612760612f06565b6020026020010151612789565b91508061277981612d14565b915050612741565b509392505050565b5f8183106127a3575f82815260208490526040902061174e565b505f9182526020526040902090565b6001600160e01b0319811681146111ce575f80fd5b5f602082840312156127d7575f80fd5b813561174e816127b2565b80356001600160a01b03811681146127f8575f80fd5b919050565b5f806040838503121561280e575f80fd5b612817836127e2565b915060208301356001600160601b0381168114612832575f80fd5b809150509250929050565b5f5b8381101561285757818101518382015260200161283f565b50505f910152565b5f815180845261287681602086016020860161283d565b601f01601f19169290920160200192915050565b602081525f61174e602083018461285f565b5f602082840312156128ac575f80fd5b5035919050565b5f80604083850312156128c4575f80fd5b6128cd836127e2565b946020939093013593505050565b634e487b7160e01b5f52604160045260245ffd5b5f67ffffffffffffffff80841115612909576129096128db565b604051601f8501601f19908116603f01168101908282118183101715612931576129316128db565b81604052809350858152868686011115612949575f80fd5b858560208301375f602087830101525050509392505050565b5f60208284031215612972575f80fd5b813567ffffffffffffffff811115612988575f80fd5b8201601f81018413612998575f80fd5b61226c848235602084016128ef565b5f805f606084860312156129b9575f80fd5b6129c2846127e2565b92506129d0602085016127e2565b9150604084013590509250925092565b5f80604083850312156129f1575f80fd5b50508035926020909101359150565b5f805f60408486031215612a12575f80fd5b83359250602084013567ffffffffffffffff80821115612a30575f80fd5b818601915086601f830112612a43575f80fd5b813581811115612a51575f80fd5b8760208260051b8501011115612a65575f80fd5b6020830194508093505050509250925092565b5f60208284031215612a88575f80fd5b61174e826127e2565b803580151581146127f8575f80fd5b5f8060408385031215612ab1575f80fd5b612aba836127e2565b9150612ac860208401612a91565b90509250929050565b5f805f8060808587031215612ae4575f80fd5b612aed856127e2565b9350612afb602086016127e2565b925060408501359150606085013567ffffffffffffffff811115612b1d575f80fd5b8501601f81018713612b2d575f80fd5b612b3c878235602084016128ef565b91505092959194509250565b5f60208284031215612b58575f80fd5b61174e82612a91565b5f8060408385031215612b72575f80fd5b612b7b836127e2565b9150612ac8602084016127e2565b600181811c90821680612b9d57607f821691505b602082108103612bbb57634e487b7160e01b5f52602260045260245ffd5b50919050565b601f821115610b39575f81815260208120601f850160051c81016020861015612be75750805b601f850160051c820191505b81811015611eb657828155600101612bf3565b815167ffffffffffffffff811115612c2057612c206128db565b612c3481612c2e8454612b89565b84612bc1565b602080601f831160018114612c67575f8415612c505750858301515b5f19600386901b1c1916600185901b178555611eb6565b5f85815260208120601f198616915b82811015612c9557888601518255948401946001909101908401612c76565b5085821015612cb257878501515f19600388901b60f8161c191681555b5050505050600190811b01905550565b634e487b7160e01b5f52601160045260245ffd5b80820281158282048414176108ef576108ef612cc2565b634e487b7160e01b5f52601260045260245ffd5b5f82612d0f57612d0f612ced565b500490565b5f60018201612d2557612d25612cc2565b5060010190565b808201808211156108ef576108ef612cc2565b5f82612d4d57612d4d612ced565b500690565b818103818111156108ef576108ef612cc2565b60208082526033908201527f455243373231413a207472616e7366657220746f206e6f6e204552433732315260408201527232b1b2b4bb32b91034b6b83632b6b2b73a32b960691b606082015260800190565b5f84516020612dca8285838a0161283d565b855191840191612ddd8184848a0161283d565b85549201915f90612ded81612b89565b60018281168015612e055760018114612e1a57612e43565b60ff1984168752821515830287019450612e43565b895f52855f205f5b84811015612e3b57815489820152908301908701612e22565b505082870194505b50929a9950505050505050505050565b6001600160801b03828116828216039080821115612e7357612e73612cc2565b5092915050565b6001600160801b03818116838216019080821115612e7357612e73612cc2565b5f81612ea857612ea8612cc2565b505f190190565b6001600160a01b03858116825284166020820152604081018390526080606082018190525f90612ee19083018461285f565b9695505050505050565b5f60208284031215612efb575f80fd5b815161174e816127b2565b634e487b7160e01b5f52603260045260245ffdfea2646970667358221220aa284a832410042cbd28ca2e2abac7c19b76e6f0673a34b95e73fd693d7ead2664736f6c63430008140033",
  "linkReferences": {},
  "deployedLinkReferences": {}
}