{"contracts/OptimusDogs.sol":{"OptimusDogs":{"abi":[{"inputs":[{"internalType":"uint256","name":"maxBatchSize_","type":"uint256"},{"internalType":"uint256","name":"collectionSize_","type":"uint256"},{"internalType":"uint256","name":"AmountForPublic_","type":"uint256"},{"internalType":"uint256","name":"AmountforTeam_","type":"uint256"},{"internalType":"string","name":"_hiddenMetadataUri","type":"string"}],"stateMutability":"nonpayable","type":"constructor"},{"inputs":[],"name":"AmountNotMultipleOfBatchSize","type":"error"},{"inputs":[],"name":"ExceedsMaxPerAddress","type":"error"},{"inputs":[],"name":"ExceedsMaxPerPublic","type":"error"},{"inputs":[],"name":"ExceedsMaxPerTeam","type":"error"},{"inputs":[],"name":"ExceedsMaxPerTransaction","type":"error"},{"inputs":[],"name":"ExceedsMaxSupply","type":"error"},{"inputs":[],"name":"InsufficientPayment","type":"error"},{"inputs":[],"name":"InvalidMerkleProof","type":"error"},{"inputs":[],"name":"SaleNotActive","type":"error"},{"inputs":[],"name":"SaleNotInWLOGPhase","type":"error"},{"inputs":[],"name":"TransferFailed","type":"error"},{"anonymous":false,"inputs":[{"indexed":true,"internalType":"address","name":"owner","type":"address"},{"indexed":true,"internalType":"address","name":"approved","type":"address"},{"indexed":true,"internalType":"uint256","name":"tokenId","type":"uint256"}],"name":"Approval","type":"event"},{"anonymous":false,"inputs":[{"indexed":true,"internalType":"address","name":"owner","type":"address"},{"indexed":true,"internalType":"address","name":"operator","type":"address"},{"indexed":false,"internalType":"bool","name":"approved","type":"bool"}],"name":"ApprovalForAll","type":"event"},{"anonymous":false,"inputs":[{"indexed":true,"internalType":"address","name":"previousOwner","type":"address"},{"indexed":true,"internalType":"address","name":"newOwner","type":"address"}],"name":"OwnershipTransferred","type":"event"},{"anonymous":false,"inputs":[{"indexed":true,"internalType":"address","name":"from","type":"address"},{"indexed":true,"internalType":"address","name":"to","type":"address"},{"indexed":true,"internalType":"uint256","name":"tokenId","type":"uint256"}],"name":"Transfer","type":"event"},{"inputs":[],"name":"AmountForPublic","outputs":[{"internalType":"uint256","name":"","type":"uint256"}],"stateMutability":"view","type":"function"},{"inputs":[],"name":"AmountforTeam","outputs":[{"internalType":"uint256","name":"","type":"uint256"}],"stateMutability":"view","type":"function"},{"inputs":[],"name":"MINT_PRICE","outputs":[{"internalType":"uint256","name":"","type":"uint256"}],"stateMutability":"view","type":"function"},{"inputs":[],"name":"OG_PRICE","outputs":[{"internalType":"uint256","name":"","type":"uint256"}],"stateMutability":"view","type":"function"},{"inputs":[],"name":"WL_PRICE","outputs":[{"internalType":"uint256","name":"","type":"uint256"}],"stateMutability":"view","type":"function"},{"inputs":[{"internalType":"address","name":"","type":"address"}],"name":"_mintedPerAddress","outputs":[{"internalType":"uint256","name":"","type":"uint256"}],"stateMutability":"view","type":"function"},{"inputs":[{"internalType":"address","name":"to","type":"address"},{"internalType":"uint256","name":"tokenId","type":"uint256"}],"name":"approve","outputs":[],"stateMutability":"nonpayable","type":"function"},{"inputs":[{"internalType":"address","name":"owner","type":"address"}],"name":"balanceOf","outputs":[{"internalType":"uint256","name":"","type":"uint256"}],"stateMutability":"view","type":"function"},{"inputs":[{"internalType":"uint256","name":"tokenId","type":"uint256"}],"name":"getApproved","outputs":[{"internalType":"address","name":"","type":"address"}],"stateMutability":"view","type":"function"},{"inputs":[],"name":"hiddenMetadataUri","outputs":[{"internalType":"string","name":"","type":"string"}],"stateMutability":"view","type":"function"},{"inputs":[{"internalType":"address","name":"owner","type":"address"},{"internalType":"address","name":"operator","type":"address"}],"name":"isApprovedForAll","outputs":[{"internalType":"bool","name":"","type":"bool"}],"stateMutability":"view","type":"function"},{"inputs":[],"name":"maxBatchSizeForWL","outputs":[{"internalType":"uint256","name":"","type":"uint256"}],"stateMutability":"view","type":"function"},{"inputs":[],"name":"maxPerAddressDuringMint","outputs":[{"internalType":"uint256","name":"","type":"uint256"}],"stateMutability":"view","type":"function"},{"inputs":[],"name":"merkleRootOG","outputs":[{"internalType":"bytes32","name":"","type":"bytes32"}],"stateMutability":"view","type":"function"},{"inputs":[],"name":"merkleRootWL","outputs":[{"internalType":"bytes32","name":"","type":"bytes32"}],"stateMutability":"view","type":"function"},{"inputs":[{"internalType":"uint256","name":"amount","type":"uint256"},{"internalType":"bytes32[]","name":"merkleProof","type":"bytes32[]"}],"name":"mintForOG","outputs":[],"stateMutability":"payable","type":"function"},{"inputs":[{"internalType":"uint256","name":"amount","type":"uint256"}],"name":"mintForPublic","outputs":[],"stateMutability":"payable","type":"function"},{"inputs":[{"internalType":"uint256","name":"amount","type":"uint256"}],"name":"mintForTeam","outputs":[],"stateMutability":"nonpayable","type":"function"},{"inputs":[{"internalType":"uint256","name":"amount","type":"uint256"},{"internalType":"bytes32[]","name":"merkleProof","type":"bytes32[]"}],"name":"mintForWL","outputs":[],"stateMutability":"payable","type":"function"},{"inputs":[],"name":"name","outputs":[{"internalType":"string","name":"","type":"string"}],"stateMutability":"view","type":"function"},{"inputs":[],"name":"nextOwnerToExplicitlySet","outputs":[{"internalType":"uint256","name":"","type":"uint256"}],"stateMutability":"view","type":"function"},{"inputs":[],"name":"owner","outputs":[{"internalType":"address","name":"","type":"address"}],"stateMutability":"view","type":"function"},{"inputs":[{"internalType":"uint256","name":"tokenId","type":"uint256"}],"name":"ownerOf","outputs":[{"internalType":"address","name":"","type":"address"}],"stateMutability":"view","type":"function"},{"inputs":[],"name":"remainingTeamMints","outputs":[{"internalType":"uint256","name":"","type":"uint256"}],"stateMutability":"view","type":"function"},{"inputs":[],"name":"renounceOwnership","outputs":[],"stateMutability":"nonpayable","type":"function"},{"inputs":[],"name":"revealed","outputs":[{"internalType":"bool","name":"","type":"bool"}],"stateMutability":"view","type":"function"},{"inputs":[{"internalType":"uint256","name":"_tokenId","type":"uint256"},{"internalType":"uint256","name":"_salePrice","type":"uint256"}],"name":"royaltyInfo","outputs":[{"internalType":"address","name":"","type":"address"},{"internalType":"uint256","name":"","type":"uint256"}],"stateMutability":"view","type":"function"},{"inputs":[{"internalType":"address","name":"from","type":"address"},{"internalType":"address","name":"to","type":"address"},{"internalType":"uint256","name":"tokenId","type":"uint256"}],"name":"safeTransferFrom","outputs":[],"stateMutability":"nonpayable","type":"function"},{"inputs":[{"internalType":"address","name":"from","type":"address"},{"internalType":"address","name":"to","type":"address"},{"internalType":"uint256","name":"tokenId","type":"uint256"},{"internalType":"bytes","name":"_data","type":"bytes"}],"name":"safeTransferFrom","outputs":[],"stateMutability":"nonpayable","type":"function"},{"inputs":[],"name":"salePhase","outputs":[{"internalType":"uint256","name":"","type":"uint256"}],"stateMutability":"view","type":"function"},{"inputs":[{"internalType":"address","name":"operator","type":"address"},{"internalType":"bool","name":"approved","type":"bool"}],"name":"setApprovalForAll","outputs":[],"stateMutability":"nonpayable","type":"function"},{"inputs":[{"internalType":"address","name":"receiver","type":"address"},{"internalType":"uint96","name":"feeNumerator","type":"uint96"}],"name":"setDefaultRoyalty","outputs":[],"stateMutability":"nonpayable","type":"function"},{"inputs":[{"internalType":"string","name":"_hiddenMetadataUri","type":"string"}],"name":"setHiddenMetadataUri","outputs":[],"stateMutability":"nonpayable","type":"function"},{"inputs":[{"internalType":"bytes32","name":"merkleRoot","type":"bytes32"}],"name":"setMerkleRootOG","outputs":[],"stateMutability":"nonpayable","type":"function"},{"inputs":[{"internalType":"bytes32","name":"merkleRoot","type":"bytes32"}],"name":"setMerkleRootWL","outputs":[],"stateMutability":"nonpayable","type":"function"},{"inputs":[{"internalType":"bool","name":"_state","type":"bool"}],"name":"setRevealed","outputs":[],"stateMutability":"nonpayable","type":"function"},{"inputs":[{"internalType":"uint256","name":"phase","type":"uint256"}],"name":"setSalePhase","outputs":[],"stateMutability":"nonpayable","type":"function"},{"inputs":[{"internalType":"string","name":"_uriPrefix","type":"string"}],"name":"setUriPrefix","outputs":[],"stateMutability":"nonpayable","type":"function"},{"inputs":[{"internalType":"string","name":"_uriSuffix","type":"string"}],"name":"setUriSuffix","outputs":[],"stateMutability":"nonpayable","type":"function"},{"inputs":[{"internalType":"bytes4","name":"interfaceId","type":"bytes4"}],"name":"supportsInterface","outputs":[{"internalType":"bool","name":"","type":"bool"}],"stateMutability":"view","type":"function"},{"inputs":[],"name":"symbol","outputs":[{"internalType":"string","name":"","type":"string"}],"stateMutability":"view","type":"function"},{"inputs":[{"internalType":"uint256","name":"index","type":"uint256"}],"name":"tokenByIndex","outputs":[{"internalType":"uint256","name":"","type":"uint256"}],"stateMutability":"view","type":"function"},{"inputs":[{"internalType":"address","name":"owner","type":"address"},{"internalType":"uint256","name":"index","type":"uint256"}],"name":"tokenOfOwnerByIndex","outputs":[{"internalType":"uint256","name":"","type":"uint256"}],"stateMutability":"view","type":"function"},{"inputs":[{"internalType":"uint256","name":"_tokenId","type":"uint256"}],"name":"tokenURI","outputs":[{"internalType":"string","name":"","type":"string"}],"stateMutability":"view","type":"function"},{"inputs":[],"name":"totalSupply","outputs":[{"internalType":"uint256","name":"","type":"uint256"}],"stateMutability":"view","type":"function"},{"inputs":[{"internalType":"address","name":"from","type":"address"},{"internalType":"address","name":"to","type":"address"},{"internalType":"uint256","name":"tokenId","type":"uint256"}],"name":"transferFrom","outputs":[],"stateMutability":"nonpayable","type":"function"},{"inputs":[{"internalType":"address","name":"newOwner","type":"address"}],"name":"transferOwnership","outputs":[],"stateMutability":"nonpayable","type":"function"},{"inputs":[],"name":"uriPrefix","outputs":[{"internalType":"string","name":"","type":"string"}],"stateMutability":"view","type":"function"},{"inputs":[],"name":"uriSuffix","outputs":[{"internalType":"string","name":"","type":"string"}],"stateMutability":"view","type":"function"},{"inputs":[],"name":"withdrawMoney","outputs":[],"stateMutability":"nonpayable","type":"function"}],"evm":{"bytecode":{"linkReferences":{},"object":"5f8080556007819055668e1bc9bf040000600c55666a94d74f430000600d55665c5edcbc290000600e5561016060405261014090815260109062000044908262000502565b50604080518082019091526005815264173539b7b760d91b602082015260119062000070908262000502565b505f6013556016805460ff191690553480156200008b575f80fd5b50604051620036d9380380620036d9833981016040819052620000ae91620005ca565b6040518060400160405280600b81526020016a4f7074696d7573446f677360a81b815250604051806040016040528060068152602001654f50444f475360d01b81525086865f81116200015f5760405162461bcd60e51b815260206004820152602e60248201527f455243373231413a20636f6c6c656374696f6e206d757374206861766520612060448201526d6e6f6e7a65726f20737570706c7960901b60648201526084015b60405180910390fd5b5f8211620001c05760405162461bcd60e51b815260206004820152602760248201527f455243373231413a206d61782062617463682073697a65206d757374206265206044820152666e6f6e7a65726f60c81b606482015260840162000156565b6001620001ce858262000502565b506002620001dd848262000502565b5060a09190915260805250620001f590503362000296565b600160095562000208336101f4620002e7565b6200021381620003e8565b60c085905262000225600286620006bf565b6101205261010083905260e0829052600f829055838311156200028b5760405162461bcd60e51b815260206004820152601d60248201527f6c617267657220636f6c6c656374696f6e2073697a65206e6565646564000000604482015260640162000156565b5050505050620006df565b600880546001600160a01b038381166001600160a01b0319831681179093556040519116919082907f8be0079c531659141344cd1fd0a4f28419497f9722a3daafe3b4186f6b6457e0905f90a35050565b6127106001600160601b0382161115620003575760405162461bcd60e51b815260206004820152602a60248201527f455243323938313a20726f79616c7479206665652077696c6c206578636565646044820152692073616c65507269636560b01b606482015260840162000156565b6001600160a01b038216620003af5760405162461bcd60e51b815260206004820152601960248201527f455243323938313a20696e76616c696420726563656976657200000000000000604482015260640162000156565b604080518082019091526001600160a01b039092168083526001600160601b039091166020909201829052600160a01b90910217600a55565b620003f262000404565b601262000400828262000502565b5050565b6008546001600160a01b03163314620004605760405162461bcd60e51b815260206004820181905260248201527f4f776e61626c653a2063616c6c6572206973206e6f7420746865206f776e6572604482015260640162000156565b565b634e487b7160e01b5f52604160045260245ffd5b600181811c908216806200048b57607f821691505b602082108103620004aa57634e487b7160e01b5f52602260045260245ffd5b50919050565b601f821115620004fd575f81815260208120601f850160051c81016020861015620004d85750805b601f850160051c820191505b81811015620004f957828155600101620004e4565b5050505b505050565b81516001600160401b038111156200051e576200051e62000462565b62000536816200052f845462000476565b84620004b0565b602080601f8311600181146200056c575f8415620005545750858301515b5f19600386901b1c1916600185901b178555620004f9565b5f85815260208120601f198616915b828110156200059c578886015182559484019460019091019084016200057b565b5085821015620005ba57878501515f19600388901b60f8161c191681555b5050505050600190811b01905550565b5f805f805f60a08688031215620005df575f80fd5b8551602080880151604089015160608a015160808b015194995091975095509350906001600160401b038082111562000616575f80fd5b818901915089601f8301126200062a575f80fd5b8151818111156200063f576200063f62000462565b604051601f8201601f19908116603f011681019083821181831017156200066a576200066a62000462565b816040528281528c8684870101111562000682575f80fd5b5f93505b82841015620006a5578484018601518185018701529285019262000686565b5f8684830101528096505050505050509295509295909350565b5f82620006da57634e487b7160e01b5f52601260045260245ffd5b500490565b60805160a05160c05160e0516101005161012051612f50620007895f395f81816105c201528181610dfa01528181610e4a01528181611813015261186301525f818161058f01528181610e96015281816113cb01526118af01525f61052901525f818161065a0152818161132f015261137f01525f81816110f8015281816111410152818161117801528181611ffe01528181612028015261244d01525f61107f0152612f505ff3fe6080604052600436106102bf575f3560e01c80637ec4a6591161016f578063b769c7a4116100d8578063d7224ba011610092578063e985e9c51161006d578063e985e9c514610857578063f2fde38b1461089e578063f31b5b33146108bd578063f375b7c7146108d0575f80fd5b8063d7224ba01461080e578063e0a8085314610823578063e4f2487a14610842575f80fd5b8063b769c7a41461075c578063b88d4fde1461077b578063c002d23d1461079a578063c87b56dd146107af578063c9a32039146107ce578063d6492d81146107f9575f80fd5b8063a22cb46511610129578063a22cb465146106c2578063a45ba8e7146106e1578063a58fdc11146106f5578063ac44600214610714578063ad3e31b714610728578063ad6cb31914610747575f80fd5b80637ec4a6591461061757806382448412146106365780638bc35c2f146106495780638da5cb5b1461067c57806390069b421461069957806395d89b41146106ae575f80fd5b806342842e0e1161022b5780635c4be282116101e55780636ca2a558116101c05780636ca2a5581461057e5780636e125b28146105b157806370a08231146105e4578063715018a614610603575f80fd5b80635c4be2821461051857806362b99ad41461054b5780636352211e1461055f575f80fd5b806342842e0e1461046f5780634f6ccce71461048e5780634fdd43cb146104ad57806351830227146104cc5780635503a0e8146104e55780635a4d448a146104f9575f80fd5b806318160ddd1161027c57806318160ddd146103ae57806323b872dd146103cb5780632a55205a146103ea5780632f745c591461042857806331c3c7a014610447578063370a36bd1461045c575f80fd5b806301ffc9a7146102c357806304634d8d146102f757806306fdde0314610318578063081812fc14610339578063095ea7b31461037057806316ba10e01461038f575b5f80fd5b3480156102ce575f80fd5b506102e26102dd3660046127c7565b6108e5565b60405190151581526020015b60405180910390f35b348015610302575f80fd5b506103166103113660046127fd565b6108f5565b005b348015610323575f80fd5b5061032c61090b565b6040516102ee919061288a565b348015610344575f80fd5b5061035861035336600461289c565b61099b565b6040516001600160a01b0390911681526020016102ee565b34801561037b575f80fd5b5061031661038a3660046128b3565b610a28565b34801561039a575f80fd5b506103166103a9366004612962565b610b3e565b3480156103b9575f80fd5b505f545b6040519081526020016102ee565b3480156103d6575f80fd5b506103166103e53660046129a7565b610b52565b3480156103f5575f80fd5b506104096104043660046129e0565b610b5d565b604080516001600160a01b0390931683526020830191909152016102ee565b348015610433575f80fd5b506103bd6104423660046128b3565b610c07565b348015610452575f80fd5b506103bd600d5481565b61031661046a366004612a00565b610d70565b34801561047a575f80fd5b506103166104893660046129a7565b610f52565b348015610499575f80fd5b506103bd6104a836600461289c565b610f6c565b3480156104b8575f80fd5b506103166104c7366004612962565b610fcd565b3480156104d7575f80fd5b506016546102e29060ff1681565b3480156104f0575f80fd5b5061032c610fe1565b348015610504575f80fd5b5061031661051336600461289c565b61106d565b348015610523575f80fd5b506103bd7f000000000000000000000000000000000000000000000000000000000000000081565b348015610556575f80fd5b5061032c6111d1565b34801561056a575f80fd5b5061035861057936600461289c565b6111de565b348015610589575f80fd5b506103bd7f000000000000000000000000000000000000000000000000000000000000000081565b3480156105bc575f80fd5b506103bd7f000000000000000000000000000000000000000000000000000000000000000081565b3480156105ef575f80fd5b506103bd6105fe366004612a78565b6111ef565b34801561060e575f80fd5b5061031661127e565b348015610622575f80fd5b50610316610631366004612962565b611291565b610316610644366004612a00565b6112a5565b348015610654575f80fd5b506103bd7f000000000000000000000000000000000000000000000000000000000000000081565b348015610687575f80fd5b506008546001600160a01b0316610358565b3480156106a4575f80fd5b506103bd600e5481565b3480156106b9575f80fd5b5061032c61142b565b3480156106cd575f80fd5b506103166106dc366004612aa0565b61143a565b3480156106ec575f80fd5b5061032c6114fd565b348015610700575f80fd5b5061031661070f36600461289c565b61150a565b34801561071f575f80fd5b50610316611517565b348015610733575f80fd5b5061031661074236600461289c565b611598565b348015610752575f80fd5b506103bd60155481565b348015610767575f80fd5b5061031661077636600461289c565b6115a5565b348015610786575f80fd5b50610316610795366004612ad1565b6115b2565b3480156107a5575f80fd5b506103bd600c5481565b3480156107ba575f80fd5b5061032c6107c936600461289c565b6115eb565b3480156107d9575f80fd5b506103bd6107e8366004612a78565b60176020525f908152604090205481565b348015610804575f80fd5b506103bd60145481565b348015610819575f80fd5b506103bd60075481565b34801561082e575f80fd5b5061031661083d366004612b48565b611755565b34801561084d575f80fd5b506103bd60135481565b348015610862575f80fd5b506102e2610871366004612b61565b6001600160a01b039182165f90815260066020908152604080832093909416825291909152205460ff1690565b3480156108a9575f80fd5b506103166108b8366004612a78565b611770565b6103166108cb36600461289c565b6117e6565b3480156108db575f80fd5b506103bd600f5481565b5f6108ef8261196b565b92915050565b6108fd61198f565b61090782826119e9565b5050565b60606001805461091a90612b89565b80601f016020809104026020016040519081016040528092919081815260200182805461094690612b89565b80156109915780601f1061096857610100808354040283529160200191610991565b820191905f5260205f20905b81548152906001019060200180831161097457829003601f168201915b5050505050905090565b5f6109a6825f541190565b610a0d5760405162461bcd60e51b815260206004820152602d60248201527f455243373231413a20617070726f76656420717565727920666f72206e6f6e6560448201526c3c34b9ba32b73a103a37b5b2b760991b60648201526084015b60405180910390fd5b505f908152600560205260409020546001600160a01b031690565b5f610a32826111de565b9050806001600160a01b0316836001600160a01b031603610aa05760405162461bcd60e51b815260206004820152602260248201527f455243373231413a20617070726f76616c20746f2063757272656e74206f776e60448201526132b960f11b6064820152608401610a04565b336001600160a01b0382161480610abc5750610abc8133610871565b610b2e5760405162461bcd60e51b815260206004820152603960248201527f455243373231413a20617070726f76652063616c6c6572206973206e6f74206f60448201527f776e6572206e6f7220617070726f76656420666f7220616c6c000000000000006064820152608401610a04565b610b39838383611ae6565b505050565b610b4661198f565b60116109078282612c06565b610b39838383611b41565b5f828152600b602090815260408083208151808301909252546001600160a01b038116808352600160a01b9091046001600160601b0316928201929092528291610bd1575060408051808201909152600a546001600160a01b0381168252600160a01b90046001600160601b031660208201525b60208101515f9061271090610bef906001600160601b031687612cd6565b610bf99190612d01565b915196919550909350505050565b5f610c11836111ef565b8210610c6a5760405162461bcd60e51b815260206004820152602260248201527f455243373231413a206f776e657220696e646578206f7574206f6620626f756e604482015261647360f01b6064820152608401610a04565b5f80549080805b83811015610d10575f818152600360209081526040918290208251808401909352546001600160a01b038116808452600160a01b90910467ffffffffffffffff169183019190915215610cc357805192505b876001600160a01b0316836001600160a01b031603610cfd57868403610cef575093506108ef92505050565b83610cf981612d14565b9450505b5080610d0881612d14565b915050610c71565b5060405162461bcd60e51b815260206004820152602e60248201527f455243373231413a20756e61626c6520746f2067657420746f6b656e206f662060448201526d0deeedccae440c4f240d2dcc8caf60931b6064820152608401610a04565b610d78611ebe565b601354600114610d9b57604051634ce630e160e01b815260040160405180910390fd5b610ddb338383808060200260200160405190810160405280939291908181526020018383602002808284375f92019190915250506014549150611f179050565b610df85760405163582f497d60e11b815260040160405180910390fd5b7f0000000000000000000000000000000000000000000000000000000000000000831115610e395760405163162d230560e11b815260040160405180910390fd5b335f908152601760205260409020547f000000000000000000000000000000000000000000000000000000000000000090610e75908590612d2c565b1115610e945760405163061b63e160e31b815260040160405180910390fd5b7f000000000000000000000000000000000000000000000000000000000000000083610ebe5f5490565b610ec89190612d2c565b1115610ee757604051630283147360e61b815260040160405180910390fd5b5f83600d54610ef69190612cd6565b905080341015610f195760405163cd1c886760e01b815260040160405180910390fd5b335f9081526017602052604081208054869290610f37908490612d2c565b90915550610f4790503385611f66565b50610b396001600955565b610b3983838360405180602001604052805f8152506115b2565b5f80548210610fc95760405162461bcd60e51b815260206004820152602360248201527f455243373231413a20676c6f62616c20696e646578206f7574206f6620626f756044820152626e647360e81b6064820152608401610a04565b5090565b610fd561198f565b60126109078282612c06565b60118054610fee90612b89565b80601f016020809104026020016040519081016040528092919081815260200182805461101a90612b89565b80156110655780601f1061103c57610100808354040283529160200191611065565b820191905f5260205f20905b81548152906001019060200180831161104857829003601f168201915b505050505081565b611075611ebe565b61107d61198f565b7f0000000000000000000000000000000000000000000000000000000000000000816110a75f5490565b6110b19190612d2c565b11156110d05760405163c30436e960e01b815260040160405180910390fd5b80600f5410156110f3576040516327d5107960e21b815260040160405180910390fd5b61111d7f000000000000000000000000000000000000000000000000000000000000000082612d3f565b1561113b57604051634341e6ed60e01b815260040160405180910390fd5b5f6111667f000000000000000000000000000000000000000000000000000000000000000083612d01565b90505f5b818110156111ae5761119c337f0000000000000000000000000000000000000000000000000000000000000000611f66565b806111a681612d14565b91505061116a565b5081600f5f8282546111c09190612d52565b909155505060016009555050565b50565b60108054610fee90612b89565b5f6111e882611f7f565b5192915050565b5f6001600160a01b03821661125a5760405162461bcd60e51b815260206004820152602b60248201527f455243373231413a2062616c616e636520717565727920666f7220746865207a60448201526a65726f206164647265737360a81b6064820152608401610a04565b506001600160a01b03165f908152600460205260409020546001600160801b031690565b61128661198f565b61128f5f612125565b565b61129961198f565b60106109078282612c06565b6112ad611ebe565b6013546001146112d057604051634ce630e160e01b815260040160405180910390fd5b611310338383808060200260200160405190810160405280939291908181526020018383602002808284375f92019190915250506015549150611f179050565b61132d5760405163582f497d60e11b815260040160405180910390fd5b7f000000000000000000000000000000000000000000000000000000000000000083111561136e5760405163162d230560e11b815260040160405180910390fd5b335f908152601760205260409020547f0000000000000000000000000000000000000000000000000000000000000000906113aa908590612d2c565b11156113c95760405163061b63e160e31b815260040160405180910390fd5b7f0000000000000000000000000000000000000000000000000000000000000000836113f35f5490565b6113fd9190612d2c565b111561141c57604051630283147360e61b815260040160405180910390fd5b5f83600e54610ef69190612cd6565b60606002805461091a90612b89565b336001600160a01b038316036114925760405162461bcd60e51b815260206004820152601a60248201527f455243373231413a20617070726f766520746f2063616c6c65720000000000006044820152606401610a04565b335f8181526006602090815260408083206001600160a01b03871680855290835292819020805460ff191686151590811790915590519081529192917f17307eab39ab6107e8899845ad3d59bd9653f200f220920489ca2b5937696c31910160405180910390a35050565b60128054610fee90612b89565b61151261198f565b601555565b61151f61198f565b611527611ebe565b6040515f90339047908381818185875af1925050503d805f8114611566576040519150601f19603f3d011682016040523d82523d5f602084013e61156b565b606091505b505090508061158d576040516312171d8360e31b815260040160405180910390fd5b5061128f6001600955565b6115a061198f565b601455565b6115ad61198f565b601355565b6115bd848484611b41565b6115c984848484612176565b6115e55760405162461bcd60e51b8152600401610a0490612d65565b50505050565b60606115f7825f541190565b61165b5760405162461bcd60e51b815260206004820152602f60248201527f4552433732314d657461646174613a2055524920717565727920666f72206e6f60448201526e3732bc34b9ba32b73a103a37b5b2b760891b6064820152608401610a04565b60165460ff1615155f036116f9576012805461167690612b89565b80601f01602080910402602001604051908101604052809291908181526020018280546116a290612b89565b80156116ed5780601f106116c4576101008083540402835291602001916116ed565b820191905f5260205f20905b8154815290600101906020018083116116d057829003601f168201915b50505050509050919050565b5f611702612274565b90505f8151116117205760405180602001604052805f81525061174e565b8061172a84612283565b601160405160200161173e93929190612db8565b6040516020818303038152906040525b9392505050565b61175d61198f565b6016805460ff1916911515919091179055565b61177861198f565b6001600160a01b0381166117dd5760405162461bcd60e51b815260206004820152602660248201527f4f776e61626c653a206e6577206f776e657220697320746865207a65726f206160448201526564647265737360d01b6064820152608401610a04565b6111ce81612125565b6117ee611ebe565b6013546002146118115760405163b7b2409760e01b815260040160405180910390fd5b7f00000000000000000000000000000000000000000000000000000000000000008111156118525760405163162d230560e11b815260040160405180910390fd5b335f908152601760205260409020547f00000000000000000000000000000000000000000000000000000000000000009061188e908390612d2c565b11156118ad5760405163061b63e160e31b815260040160405180910390fd5b7f0000000000000000000000000000000000000000000000000000000000000000816118d75f5490565b6118e19190612d2c565b111561190057604051630283147360e61b815260040160405180910390fd5b335f908152601760205260408120805483929061191e908490612d2c565b9091555050600c545f90611933908390612cd6565b9050803410156119565760405163cd1c886760e01b815260040160405180910390fd5b6119603383611f66565b506111ce6001600955565b5f6001600160e01b0319821663152a902d60e11b14806108ef57506108ef82612313565b6008546001600160a01b0316331461128f5760405162461bcd60e51b815260206004820181905260248201527f4f776e61626c653a2063616c6c6572206973206e6f7420746865206f776e65726044820152606401610a04565b6127106001600160601b0382161115611a575760405162461bcd60e51b815260206004820152602a60248201527f455243323938313a20726f79616c7479206665652077696c6c206578636565646044820152692073616c65507269636560b01b6064820152608401610a04565b6001600160a01b038216611aad5760405162461bcd60e51b815260206004820152601960248201527f455243323938313a20696e76616c6964207265636569766572000000000000006044820152606401610a04565b604080518082019091526001600160a01b039092168083526001600160601b039091166020909201829052600160a01b90910217600a55565b5f8281526005602052604080822080546001600160a01b0319166001600160a01b0387811691821790925591518593918516917f8c5be1e5ebec7d5bd14f71427d1e84f3dd0314c0f7b2291e5b200ac8c7c3b92591a4505050565b5f611b4b82611f7f565b80519091505f906001600160a01b0316336001600160a01b03161480611b81575033611b768461099b565b6001600160a01b0316145b80611b9357508151611b939033610871565b905080611bfd5760405162461bcd60e51b815260206004820152603260248201527f455243373231413a207472616e736665722063616c6c6572206973206e6f74206044820152711bdddb995c881b9bdc88185c1c1c9bdd995960721b6064820152608401610a04565b846001600160a01b0316825f01516001600160a01b031614611c705760405162461bcd60e51b815260206004820152602660248201527f455243373231413a207472616e736665722066726f6d20696e636f72726563746044820152651037bbb732b960d11b6064820152608401610a04565b6001600160a01b038416611cd45760405162461bcd60e51b815260206004820152602560248201527f455243373231413a207472616e7366657220746f20746865207a65726f206164604482015264647265737360d81b6064820152608401610a04565b611ce25f84845f0151611ae6565b6001600160a01b0385165f908152600460205260408120805460019290611d139084906001600160801b0316612e53565b82546101009290920a6001600160801b038181021990931691831602179091556001600160a01b0386165f9081526004602052604081208054600194509092611d5e91859116612e7a565b82546001600160801b039182166101009390930a9283029190920219909116179055506040805180820182526001600160a01b03808716825267ffffffffffffffff42811660208085019182525f8981526003909152948520935184549151909216600160a01b026001600160e01b03199091169190921617179055611de5846001612d2c565b5f818152600360205260409020549091506001600160a01b0316611e7457611e0d815f541190565b15611e745760408051808201825284516001600160a01b03908116825260208087015167ffffffffffffffff9081168285019081525f878152600390935294909120925183549451909116600160a01b026001600160e01b03199094169116179190911790555b83856001600160a01b0316876001600160a01b03167fddf252ad1be2c89b69c2b068fc378daa952ba7f163c4a11628f55a4df523b3ef60405160405180910390a45b505050505050565b600260095403611f105760405162461bcd60e51b815260206004820152601f60248201527f5265656e7472616e637947756172643a207265656e7472616e742063616c6c006044820152606401610a04565b6002600955565b6040516bffffffffffffffffffffffff19606085901b1660208201525f908190603401604051602081830303815290604052805190602001209050611f5d84848361237d565b95945050505050565b610907828260405180602001604052805f815250612392565b604080518082019091525f8082526020820152611f9c825f541190565b611ffb5760405162461bcd60e51b815260206004820152602a60248201527f455243373231413a206f776e657220717565727920666f72206e6f6e657869736044820152693a32b73a103a37b5b2b760b11b6064820152608401610a04565b5f7f0000000000000000000000000000000000000000000000000000000000000000831061205b5761204d7f000000000000000000000000000000000000000000000000000000000000000084612d52565b612058906001612d2c565b90505b825b8181106120c4575f818152600360209081526040918290208251808401909352546001600160a01b038116808452600160a01b90910467ffffffffffffffff1691830191909152156120b157949350505050565b50806120bc81612e9a565b91505061205d565b5060405162461bcd60e51b815260206004820152602f60248201527f455243373231413a20756e61626c6520746f2064657465726d696e652074686560448201526e1037bbb732b91037b3103a37b5b2b760891b6064820152608401610a04565b600880546001600160a01b038381166001600160a01b0319831681179093556040519116919082907f8be0079c531659141344cd1fd0a4f28419497f9722a3daafe3b4186f6b6457e0905f90a35050565b5f6001600160a01b0384163b1561226857604051630a85bd0160e11b81526001600160a01b0385169063150b7a02906121b9903390899088908890600401612eaf565b6020604051808303815f875af19250505080156121f3575060408051601f3d908101601f191682019092526121f091810190612eeb565b60015b61224e573d808015612220576040519150601f19603f3d011682016040523d82523d5f602084013e612225565b606091505b5080515f036122465760405162461bcd60e51b8152600401610a0490612d65565b805181602001fd5b6001600160e01b031916630a85bd0160e11b14905061226c565b5060015b949350505050565b60606010805461091a90612b89565b60605f61228f83612666565b60010190505f8167ffffffffffffffff8111156122ae576122ae6128db565b6040519080825280601f01601f1916602001820160405280156122d8576020820181803683370190505b5090508181016020015b5f19016f181899199a1a9b1b9c1cb0b131b232b360811b600a86061a8153600a85049450846122e257509392505050565b5f6001600160e01b031982166380ac58cd60e01b148061234357506001600160e01b03198216635b5e139f60e01b145b8061235e57506001600160e01b0319821663780e9d6360e01b145b806108ef57506301ffc9a760e01b6001600160e01b03198316146108ef565b5f82612389858461273d565b14949350505050565b5f546001600160a01b0384166123f45760405162461bcd60e51b815260206004820152602160248201527f455243373231413a206d696e7420746f20746865207a65726f206164647265736044820152607360f81b6064820152608401610a04565b6123fe815f541190565b1561244b5760405162461bcd60e51b815260206004820152601d60248201527f455243373231413a20746f6b656e20616c7265616479206d696e7465640000006044820152606401610a04565b7f00000000000000000000000000000000000000000000000000000000000000008311156124c65760405162461bcd60e51b815260206004820152602260248201527f455243373231413a207175616e7469747920746f206d696e7420746f6f2068696044820152610ced60f31b6064820152608401610a04565b6001600160a01b0384165f908152600460209081526040918290208251808401845290546001600160801b038082168352600160801b9091041691810191909152815180830190925280519091908190612521908790612e7a565b6001600160801b0316815260200185836020015161253f9190612e7a565b6001600160801b039081169091526001600160a01b038088165f8181526004602090815260408083208751978301518716600160801b0297909616969096179094558451808601865291825267ffffffffffffffff4281168386019081528883526003909552948120915182549451909516600160a01b026001600160e01b031990941694909216939093179190911790915582905b8581101561265c5760405182906001600160a01b038916905f907fddf252ad1be2c89b69c2b068fc378daa952ba7f163c4a11628f55a4df523b3ef908290a46126205f888488612176565b61263c5760405162461bcd60e51b8152600401610a0490612d65565b8161264681612d14565b925050808061265490612d14565b9150506125d5565b505f819055611eb6565b5f8072184f03e93ff9f4daa797ed6e38ed64bf6a1f0160401b83106126a45772184f03e93ff9f4daa797ed6e38ed64bf6a1f0160401b830492506040015b6d04ee2d6d415b85acef810000000083106126d0576d04ee2d6d415b85acef8100000000830492506020015b662386f26fc1000083106126ee57662386f26fc10000830492506010015b6305f5e1008310612706576305f5e100830492506008015b612710831061271a57612710830492506004015b6064831061272c576064830492506002015b600a83106108ef5760010192915050565b5f81815b84518110156127815761276d8286838151811061276057612760612f06565b6020026020010151612789565b91508061277981612d14565b915050612741565b509392505050565b5f8183106127a3575f82815260208490526040902061174e565b505f9182526020526040902090565b6001600160e01b0319811681146111ce575f80fd5b5f602082840312156127d7575f80fd5b813561174e816127b2565b80356001600160a01b03811681146127f8575f80fd5b919050565b5f806040838503121561280e575f80fd5b612817836127e2565b915060208301356001600160601b0381168114612832575f80fd5b809150509250929050565b5f5b8381101561285757818101518382015260200161283f565b50505f910152565b5f815180845261287681602086016020860161283d565b601f01601f19169290920160200192915050565b602081525f61174e602083018461285f565b5f602082840312156128ac575f80fd5b5035919050565b5f80604083850312156128c4575f80fd5b6128cd836127e2565b946020939093013593505050565b634e487b7160e01b5f52604160045260245ffd5b5f67ffffffffffffffff80841115612909576129096128db565b604051601f8501601f19908116603f01168101908282118183101715612931576129316128db565b81604052809350858152868686011115612949575f80fd5b858560208301375f602087830101525050509392505050565b5f60208284031215612972575f80fd5b813567ffffffffffffffff811115612988575f80fd5b8201601f81018413612998575f80fd5b61226c848235602084016128ef565b5f805f606084860312156129b9575f80fd5b6129c2846127e2565b92506129d0602085016127e2565b9150604084013590509250925092565b5f80604083850312156129f1575f80fd5b50508035926020909101359150565b5f805f60408486031215612a12575f80fd5b83359250602084013567ffffffffffffffff80821115612a30575f80fd5b818601915086601f830112612a43575f80fd5b813581811115612a51575f80fd5b8760208260051b8501011115612a65575f80fd5b6020830194508093505050509250925092565b5f60208284031215612a88575f80fd5b61174e826127e2565b803580151581146127f8575f80fd5b5f8060408385031215612ab1575f80fd5b612aba836127e2565b9150612ac860208401612a91565b90509250929050565b5f805f8060808587031215612ae4575f80fd5b612aed856127e2565b9350612afb602086016127e2565b925060408501359150606085013567ffffffffffffffff811115612b1d575f80fd5b8501601f81018713612b2d575f80fd5b612b3c878235602084016128ef565b91505092959194509250565b5f60208284031215612b58575f80fd5b61174e82612a91565b5f8060408385031215612b72575f80fd5b612b7b836127e2565b9150612ac8602084016127e2565b600181811c90821680612b9d57607f821691505b602082108103612bbb57634e487b7160e01b5f52602260045260245ffd5b50919050565b601f821115610b39575f81815260208120601f850160051c81016020861015612be75750805b601f850160051c820191505b81811015611eb657828155600101612bf3565b815167ffffffffffffffff811115612c2057612c206128db565b612c3481612c2e8454612b89565b84612bc1565b602080601f831160018114612c67575f8415612c505750858301515b5f19600386901b1c1916600185901b178555611eb6565b5f85815260208120601f198616915b82811015612c9557888601518255948401946001909101908401612c76565b5085821015612cb257878501515f19600388901b60f8161c191681555b5050505050600190811b01905550565b634e487b7160e01b5f52601160045260245ffd5b80820281158282048414176108ef576108ef612cc2565b634e487b7160e01b5f52601260045260245ffd5b5f82612d0f57612d0f612ced565b500490565b5f60018201612d2557612d25612cc2565b5060010190565b808201808211156108ef576108ef612cc2565b5f82612d4d57612d4d612ced565b500690565b818103818111156108ef576108ef612cc2565b60208082526033908201527f455243373231413a207472616e7366657220746f206e6f6e204552433732315260408201527232b1b2b4bb32b91034b6b83632b6b2b73a32b960691b606082015260800190565b5f84516020612dca8285838a0161283d565b855191840191612ddd8184848a0161283d565b85549201915f90612ded81612b89565b60018281168015612e055760018114612e1a57612e43565b60ff1984168752821515830287019450612e43565b895f52855f205f5b84811015612e3b57815489820152908301908701612e22565b505082870194505b50929a9950505050505050505050565b6001600160801b03828116828216039080821115612e7357612e73612cc2565b5092915050565b6001600160801b03818116838216019080821115612e7357612e73612cc2565b5f81612ea857612ea8612cc2565b505f190190565b6001600160a01b03858116825284166020820152604081018390526080606082018190525f90612ee19083018461285f565b9695505050505050565b5f60208284031215612efb575f80fd5b815161174e816127b2565b634e487b7160e01b5f52603260045260245ffdfea2646970667358221220aa284a832410042cbd28ca2e2abac7c19b76e6f0673a34b95e73fd693d7ead2664736f6c63430008140033","opcodes":"PUSH0 DUP1 DUP1 SSTORE PUSH1 0x7 DUP2 SWAP1 SSTORE PUSH7 0x8E1BC9BF040000 PUSH1 0xC SSTORE PUSH7 0x6A94D74F430000 PUSH1 0xD SSTORE PUSH7 0x5C5EDCBC290000 PUSH1 0xE SSTORE PUSH2 0x160 PUSH1 0x40 MSTORE PUSH2 0x140 SWAP1 DUP2 MSTORE PUSH1 0x10 SWAP1 PUSH3 0x44 SWAP1 DUP3 PUSH3 0x502 JUMP JUMPDEST POP PUSH1 0x40 DUP1 MLOAD DUP1 DUP3 ADD SWAP1 SWAP2 MSTORE PUSH1 0x5 DUP2 MSTORE PUSH5 0x173539B7B7 PUSH1 0xD9 SHL PUSH1 0x20 DUP3 ADD MSTORE PUSH1 0x11 SWAP1 PUSH3 0x70 SWAP1 DUP3 PUSH3 0x502 JUMP JUMPDEST POP PUSH0 PUSH1 0x13 SSTORE PUSH1 0x16 DUP1 SLOAD PUSH1 0xFF NOT AND SWAP1 SSTORE CALLVALUE DUP1 ISZERO PUSH3 0x8B JUMPI PUSH0 DUP1 REVERT JUMPDEST POP PUSH1 0x40 MLOAD PUSH3 0x36D9 CODESIZE SUB DUP1 PUSH3 0x36D9 DUP4 CODECOPY DUP2 ADD PUSH1 0x40 DUP2 SWAP1 MSTORE PUSH3 0xAE SWAP2 PUSH3 0x5CA JUMP JUMPDEST PUSH1 0x40 MLOAD DUP1 PUSH1 0x40 ADD PUSH1 0x40 MSTORE DUP1 PUSH1 0xB DUP2 MSTORE PUSH1 0x20 ADD PUSH11 0x4F7074696D7573446F6773 PUSH1 0xA8 SHL DUP2 MSTORE POP PUSH1 0x40 MLOAD DUP1 PUSH1 0x40 ADD PUSH1 0x40 MSTORE DUP1 PUSH1 0x6 DUP2 MSTORE PUSH1 0x20 ADD PUSH6 0x4F50444F4753 PUSH1 0xD0 SHL DUP2 MSTORE POP DUP7 DUP7 PUSH0 DUP2 GT PUSH3 0x15F JUMPI PUSH1 0x40 MLOAD PUSH3 0x461BCD PUSH1 0xE5 SHL DUP2 MSTORE PUSH1 0x20 PUSH1 0x4 DUP3 ADD MSTORE PUSH1 0x2E PUSH1 0x24 DUP3 ADD MSTORE PUSH32 0x455243373231413A20636F6C6C656374696F6E206D7573742068617665206120 PUSH1 0x44 DUP3 ADD MSTORE PUSH14 0x6E6F6E7A65726F20737570706C79 PUSH1 0x90 SHL PUSH1 0x64 DUP3 ADD MSTORE PUSH1 0x84 ADD JUMPDEST PUSH1 0x40 MLOAD DUP1 SWAP2 SUB SWAP1 REVERT JUMPDEST PUSH0 DUP3 GT PUSH3 0x1C0 JUMPI PUSH1 0x40 MLOAD PUSH3 0x461BCD PUSH1 0xE5 SHL DUP2 MSTORE PUSH1 0x20 PUSH1 0x4 DUP3 ADD MSTORE PUSH1 0x27 PUSH1 0x24 DUP3 ADD MSTORE PUSH32 0x455243373231413A206D61782062617463682073697A65206D75737420626520 PUSH1 0x44 DUP3 ADD MSTORE PUSH7 0x6E6F6E7A65726F PUSH1 0xC8 SHL PUSH1 0x64 DUP3 ADD MSTORE PUSH1 0x84 ADD PUSH3 0x156 JUMP JUMPDEST PUSH1 0x1 PUSH3 0x1CE DUP6 DUP3 PUSH3 0x502 JUMP JUMPDEST POP PUSH1 0x2 PUSH3 0x1DD DUP5 DUP3 PUSH3 0x502 JUMP JUMPDEST POP PUSH1 0xA0 SWAP2 SWAP1 SWAP2 MSTORE PUSH1 0x80 MSTORE POP PUSH3 0x1F5 SWAP1 POP CALLER PUSH3 0x296 JUMP JUMPDEST PUSH1 0x1 PUSH1 0x9 SSTORE PUSH3 0x208 CALLER PUSH2 0x1F4 PUSH3 0x2E7 JUMP JUMPDEST PUSH3 0x213 DUP2 PUSH3 0x3E8 JUMP JUMPDEST PUSH1 0xC0 DUP6 SWAP1 MSTORE PUSH3 0x225 PUSH1 0x2 DUP7 PUSH3 0x6BF JUMP JUMPDEST PUSH2 0x120 MSTORE PUSH2 0x100 DUP4 SWAP1 MSTORE PUSH1 0xE0 DUP3 SWAP1 MSTORE PUSH1 0xF DUP3 SWAP1 SSTORE DUP4 DUP4 GT ISZERO PUSH3 0x28B JUMPI PUSH1 0x40 MLOAD PUSH3 0x461BCD PUSH1 0xE5 SHL DUP2 MSTORE PUSH1 0x20 PUSH1 0x4 DUP3 ADD MSTORE PUSH1 0x1D PUSH1 0x24 DUP3 ADD MSTORE PUSH32 0x6C617267657220636F6C6C656374696F6E2073697A65206E6565646564000000 PUSH1 0x44 DUP3 ADD MSTORE PUSH1 0x64 ADD PUSH3 0x156 JUMP JUMPDEST POP POP POP POP POP PUSH3 0x6DF JUMP JUMPDEST PUSH1 0x8 DUP1 SLOAD PUSH1 0x1 PUSH1 0x1 PUSH1 0xA0 SHL SUB DUP4 DUP2 AND PUSH1 0x1 PUSH1 0x1 PUSH1 0xA0 SHL SUB NOT DUP4 AND DUP2 OR SWAP1 SWAP4 SSTORE PUSH1 0x40 MLOAD SWAP2 AND SWAP2 SWAP1 DUP3 SWAP1 PUSH32 0x8BE0079C531659141344CD1FD0A4F28419497F9722A3DAAFE3B4186F6B6457E0 SWAP1 PUSH0 SWAP1 LOG3 POP POP JUMP JUMPDEST PUSH2 0x2710 PUSH1 0x1 PUSH1 0x1 PUSH1 0x60 SHL SUB DUP3 AND GT ISZERO PUSH3 0x357 JUMPI PUSH1 0x40 MLOAD PUSH3 0x461BCD PUSH1 0xE5 SHL DUP2 MSTORE PUSH1 0x20 PUSH1 0x4 DUP3 ADD MSTORE PUSH1 0x2A PUSH1 0x24 DUP3 ADD MSTORE PUSH32 0x455243323938313A20726F79616C7479206665652077696C6C20657863656564 PUSH1 0x44 DUP3 ADD MSTORE PUSH10 0x2073616C655072696365 PUSH1 0xB0 SHL PUSH1 0x64 DUP3 ADD MSTORE PUSH1 0x84 ADD PUSH3 0x156 JUMP JUMPDEST PUSH1 0x1 PUSH1 0x1 PUSH1 0xA0 SHL SUB DUP3 AND PUSH3 0x3AF JUMPI PUSH1 0x40 MLOAD PUSH3 0x461BCD PUSH1 0xE5 SHL DUP2 MSTORE PUSH1 0x20 PUSH1 0x4 DUP3 ADD MSTORE PUSH1 0x19 PUSH1 0x24 DUP3 ADD MSTORE PUSH32 0x455243323938313A20696E76616C696420726563656976657200000000000000 PUSH1 0x44 DUP3 ADD MSTORE PUSH1 0x64 ADD PUSH3 0x156 JUMP JUMPDEST PUSH1 0x40 DUP1 MLOAD DUP1 DUP3 ADD SWAP1 SWAP2 MSTORE PUSH1 0x1 PUSH1 0x1 PUSH1 0xA0 SHL SUB SWAP1 SWAP3 AND DUP1 DUP4 MSTORE PUSH1 0x1 PUSH1 0x1 PUSH1 0x60 SHL SUB SWAP1 SWAP2 AND PUSH1 0x20 SWAP1 SWAP3 ADD DUP3 SWAP1 MSTORE PUSH1 0x1 PUSH1 0xA0 SHL SWAP1 SWAP2 MUL OR PUSH1 0xA SSTORE JUMP JUMPDEST PUSH3 0x3F2 PUSH3 0x404 JUMP JUMPDEST PUSH1 0x12 PUSH3 0x400 DUP3 DUP3 PUSH3 0x502 JUMP JUMPDEST POP POP JUMP JUMPDEST PUSH1 0x8 SLOAD PUSH1 0x1 PUSH1 0x1 PUSH1 0xA0 SHL SUB AND CALLER EQ PUSH3 0x460 JUMPI PUSH1 0x40 MLOAD PUSH3 0x461BCD PUSH1 0xE5 SHL DUP2 MSTORE PUSH1 0x20 PUSH1 0x4 DUP3 ADD DUP2 SWAP1 MSTORE PUSH1 0x24 DUP3 ADD MSTORE PUSH32 0x4F776E61626C653A2063616C6C6572206973206E6F7420746865206F776E6572 PUSH1 0x44 DUP3 ADD MSTORE PUSH1 0x64 ADD PUSH3 0x156 JUMP JUMPDEST JUMP JUMPDEST PUSH4 0x4E487B71 PUSH1 0xE0 SHL PUSH0 MSTORE PUSH1 0x41 PUSH1 0x4 MSTORE PUSH1 0x24 PUSH0 REVERT JUMPDEST PUSH1 0x1 DUP2 DUP2 SHR SWAP1 DUP3 AND DUP1 PUSH3 0x48B JUMPI PUSH1 0x7F DUP3 AND SWAP2 POP JUMPDEST PUSH1 0x20 DUP3 LT DUP2 SUB PUSH3 0x4AA JUMPI PUSH4 0x4E487B71 PUSH1 0xE0 SHL PUSH0 MSTORE PUSH1 0x22 PUSH1 0x4 MSTORE PUSH1 0x24 PUSH0 REVERT JUMPDEST POP SWAP2 SWAP1 POP JUMP JUMPDEST PUSH1 0x1F DUP3 GT ISZERO PUSH3 0x4FD JUMPI PUSH0 DUP2 DUP2 MSTORE PUSH1 0x20 DUP2 KECCAK256 PUSH1 0x1F DUP6 ADD PUSH1 0x5 SHR DUP2 ADD PUSH1 0x20 DUP7 LT ISZERO PUSH3 0x4D8 JUMPI POP DUP1 JUMPDEST PUSH1 0x1F DUP6 ADD PUSH1 0x5 SHR DUP3 ADD SWAP2 POP JUMPDEST DUP2 DUP2 LT ISZERO PUSH3 0x4F9 JUMPI DUP3 DUP2 SSTORE PUSH1 0x1 ADD PUSH3 0x4E4 JUMP JUMPDEST POP POP POP JUMPDEST POP POP POP JUMP JUMPDEST DUP2 MLOAD PUSH1 0x1 PUSH1 0x1 PUSH1 0x40 SHL SUB DUP2 GT ISZERO PUSH3 0x51E JUMPI PUSH3 0x51E PUSH3 0x462 JUMP JUMPDEST PUSH3 0x536 DUP2 PUSH3 0x52F DUP5 SLOAD PUSH3 0x476 JUMP JUMPDEST DUP5 PUSH3 0x4B0 JUMP JUMPDEST PUSH1 0x20 DUP1 PUSH1 0x1F DUP4 GT PUSH1 0x1 DUP2 EQ PUSH3 0x56C JUMPI PUSH0 DUP5 ISZERO PUSH3 0x554 JUMPI POP DUP6 DUP4 ADD MLOAD JUMPDEST PUSH0 NOT PUSH1 0x3 DUP7 SWAP1 SHL SHR NOT AND PUSH1 0x1 DUP6 SWAP1 SHL OR DUP6 SSTORE PUSH3 0x4F9 JUMP JUMPDEST PUSH0 DUP6 DUP2 MSTORE PUSH1 0x20 DUP2 KECCAK256 PUSH1 0x1F NOT DUP7 AND SWAP2 JUMPDEST DUP3 DUP2 LT ISZERO PUSH3 0x59C JUMPI DUP9 DUP7 ADD MLOAD DUP3 SSTORE SWAP5 DUP5 ADD SWAP5 PUSH1 0x1 SWAP1 SWAP2 ADD SWAP1 DUP5 ADD PUSH3 0x57B JUMP JUMPDEST POP DUP6 DUP3 LT ISZERO PUSH3 0x5BA JUMPI DUP8 DUP6 ADD MLOAD PUSH0 NOT PUSH1 0x3 DUP9 SWAP1 SHL PUSH1 0xF8 AND SHR NOT AND DUP2 SSTORE JUMPDEST POP POP POP POP POP PUSH1 0x1 SWAP1 DUP2 SHL ADD SWAP1 SSTORE POP JUMP JUMPDEST PUSH0 DUP1 PUSH0 DUP1 PUSH0 PUSH1 0xA0 DUP7 DUP9 SUB SLT ISZERO PUSH3 0x5DF JUMPI PUSH0 DUP1 REVERT JUMPDEST DUP6 MLOAD PUSH1 0x20 DUP1 DUP9 ADD MLOAD PUSH1 0x40 DUP10 ADD MLOAD PUSH1 0x60 DUP11 ADD MLOAD PUSH1 0x80 DUP12 ADD MLOAD SWAP5 SWAP10 POP SWAP2 SWAP8 POP SWAP6 POP SWAP4 POP SWAP1 PUSH1 0x1 PUSH1 0x1 PUSH1 0x40 SHL SUB DUP1 DUP3 GT ISZERO PUSH3 0x616 JUMPI PUSH0 DUP1 REVERT JUMPDEST DUP2 DUP10 ADD SWAP2 POP DUP10 PUSH1 0x1F DUP4 ADD SLT PUSH3 0x62A JUMPI PUSH0 DUP1 REVERT JUMPDEST DUP2 MLOAD DUP2 DUP2 GT ISZERO PUSH3 0x63F JUMPI PUSH3 0x63F PUSH3 0x462 JUMP JUMPDEST PUSH1 0x40 MLOAD PUSH1 0x1F DUP3 ADD PUSH1 0x1F NOT SWAP1 DUP2 AND PUSH1 0x3F ADD AND DUP2 ADD SWAP1 DUP4 DUP3 GT DUP2 DUP4 LT OR ISZERO PUSH3 0x66A JUMPI PUSH3 0x66A PUSH3 0x462 JUMP JUMPDEST DUP2 PUSH1 0x40 MSTORE DUP3 DUP2 MSTORE DUP13 DUP7 DUP5 DUP8 ADD ADD GT ISZERO PUSH3 0x682 JUMPI PUSH0 DUP1 REVERT JUMPDEST PUSH0 SWAP4 POP JUMPDEST DUP3 DUP5 LT ISZERO PUSH3 0x6A5 JUMPI DUP5 DUP5 ADD DUP7 ADD MLOAD DUP2 DUP6 ADD DUP8 ADD MSTORE SWAP3 DUP6 ADD SWAP3 PUSH3 0x686 JUMP JUMPDEST PUSH0 DUP7 DUP5 DUP4 ADD ADD MSTORE DUP1 SWAP7 POP POP POP POP POP POP POP SWAP3 SWAP6 POP SWAP3 SWAP6 SWAP1 SWAP4 POP JUMP JUMPDEST PUSH0 DUP3 PUSH3 0x6DA JUMPI PUSH4 0x4E487B71 PUSH1 0xE0 SHL PUSH0 MSTORE PUSH1 0x12 PUSH1 0x4 MSTORE PUSH1 0x24 PUSH0 REVERT JUMPDEST POP DIV SWAP1 JUMP JUMPDEST PUSH1 0x80 MLOAD PUSH1 0xA0 MLOAD PUSH1 0xC0 MLOAD PUSH1 0xE0 MLOAD PUSH2 0x100 MLOAD PUSH2 0x120 MLOAD PUSH2 0x2F50 PUSH3 0x789 PUSH0 CODECOPY PUSH0 DUP2 DUP2 PUSH2 0x5C2 ADD MSTORE DUP2 DUP2 PUSH2 0xDFA ADD MSTORE DUP2 DUP2 PUSH2 0xE4A ADD MSTORE DUP2 DUP2 PUSH2 0x1813 ADD MSTORE PUSH2 0x1863 ADD MSTORE PUSH0 DUP2 DUP2 PUSH2 0x58F ADD MSTORE DUP2 DUP2 PUSH2 0xE96 ADD MSTORE DUP2 DUP2 PUSH2 0x13CB ADD MSTORE PUSH2 0x18AF ADD MSTORE PUSH0 PUSH2 0x529 ADD MSTORE PUSH0 DUP2 DUP2 PUSH2 0x65A ADD MSTORE DUP2 DUP2 PUSH2 0x132F ADD MSTORE PUSH2 0x137F ADD MSTORE PUSH0 DUP2 DUP2 PUSH2 0x10F8 ADD MSTORE DUP2 DUP2 PUSH2 0x1141 ADD MSTORE DUP2 DUP2 PUSH2 0x1178 ADD MSTORE DUP2 DUP2 PUSH2 0x1FFE ADD MSTORE DUP2 DUP2 PUSH2 0x2028 ADD MSTORE PUSH2 0x244D ADD MSTORE PUSH0 PUSH2 0x107F ADD MSTORE PUSH2 0x2F50 PUSH0 RETURN INVALID PUSH1 0x80 PUSH1 0x40 MSTORE PUSH1 0x4 CALLDATASIZE LT PUSH2 0x2BF JUMPI PUSH0 CALLDATALOAD PUSH1 0xE0 SHR DUP1 PUSH4 0x7EC4A659 GT PUSH2 0x16F JUMPI DUP1 PUSH4 0xB769C7A4 GT PUSH2 0xD8 JUMPI DUP1 PUSH4 0xD7224BA0 GT PUSH2 0x92 JUMPI DUP1 PUSH4 0xE985E9C5 GT PUSH2 0x6D JUMPI DUP1 PUSH4 0xE985E9C5 EQ PUSH2 0x857 JUMPI DUP1 PUSH4 0xF2FDE38B EQ PUSH2 0x89E JUMPI DUP1 PUSH4 0xF31B5B33 EQ PUSH2 0x8BD JUMPI DUP1 PUSH4 0xF375B7C7 EQ PUSH2 0x8D0 JUMPI PUSH0 DUP1 REVERT JUMPDEST DUP1 PUSH4 0xD7224BA0 EQ PUSH2 0x80E JUMPI DUP1 PUSH4 0xE0A80853 EQ PUSH2 0x823 JUMPI DUP1 PUSH4 0xE4F2487A EQ PUSH2 0x842 JUMPI PUSH0 DUP1 REVERT JUMPDEST DUP1 PUSH4 0xB769C7A4 EQ PUSH2 0x75C JUMPI DUP1 PUSH4 0xB88D4FDE EQ PUSH2 0x77B JUMPI DUP1 PUSH4 0xC002D23D EQ PUSH2 0x79A JUMPI DUP1 PUSH4 0xC87B56DD EQ PUSH2 0x7AF JUMPI DUP1 PUSH4 0xC9A32039 EQ PUSH2 0x7CE JUMPI DUP1 PUSH4 0xD6492D81 EQ PUSH2 0x7F9 JUMPI PUSH0 DUP1 REVERT JUMPDEST DUP1 PUSH4 0xA22CB465 GT PUSH2 0x129 JUMPI DUP1 PUSH4 0xA22CB465 EQ PUSH2 0x6C2 JUMPI DUP1 PUSH4 0xA45BA8E7 EQ PUSH2 0x6E1 JUMPI DUP1 PUSH4 0xA58FDC11 EQ PUSH2 0x6F5 JUMPI DUP1 PUSH4 0xAC446002 EQ PUSH2 0x714 JUMPI DUP1 PUSH4 0xAD3E31B7 EQ PUSH2 0x728 JUMPI DUP1 PUSH4 0xAD6CB319 EQ PUSH2 0x747 JUMPI PUSH0 DUP1 REVERT JUMPDEST DUP1 PUSH4 0x7EC4A659 EQ PUSH2 0x617 JUMPI DUP1 PUSH4 0x82448412 EQ PUSH2 0x636 JUMPI DUP1 PUSH4 0x8BC35C2F EQ PUSH2 0x649 JUMPI DUP1 PUSH4 0x8DA5CB5B EQ PUSH2 0x67C JUMPI DUP1 PUSH4 0x90069B42 EQ PUSH2 0x699 JUMPI DUP1 PUSH4 0x95D89B41 EQ PUSH2 0x6AE JUMPI PUSH0 DUP1 REVERT JUMPDEST DUP1 PUSH4 0x42842E0E GT PUSH2 0x22B JUMPI DUP1 PUSH4 0x5C4BE282 GT PUSH2 0x1E5 JUMPI DUP1 PUSH4 0x6CA2A558 GT PUSH2 0x1C0 JUMPI DUP1 PUSH4 0x6CA2A558 EQ PUSH2 0x57E JUMPI DUP1 PUSH4 0x6E125B28 EQ PUSH2 0x5B1 JUMPI DUP1 PUSH4 0x70A08231 EQ PUSH2 0x5E4 JUMPI DUP1 PUSH4 0x715018A6 EQ PUSH2 0x603 JUMPI PUSH0 DUP1 REVERT JUMPDEST DUP1 PUSH4 0x5C4BE282 EQ PUSH2 0x518 JUMPI DUP1 PUSH4 0x62B99AD4 EQ PUSH2 0x54B JUMPI DUP1 PUSH4 0x6352211E EQ PUSH2 0x55F JUMPI PUSH0 DUP1 REVERT JUMPDEST DUP1 PUSH4 0x42842E0E EQ PUSH2 0x46F JUMPI DUP1 PUSH4 0x4F6CCCE7 EQ PUSH2 0x48E JUMPI DUP1 PUSH4 0x4FDD43CB EQ PUSH2 0x4AD JUMPI DUP1 PUSH4 0x51830227 EQ PUSH2 0x4CC JUMPI DUP1 PUSH4 0x5503A0E8 EQ PUSH2 0x4E5 JUMPI DUP1 PUSH4 0x5A4D448A EQ PUSH2 0x4F9 JUMPI PUSH0 DUP1 REVERT JUMPDEST DUP1 PUSH4 0x18160DDD GT PUSH2 0x27C JUMPI DUP1 PUSH4 0x18160DDD EQ PUSH2 0x3AE JUMPI DUP1 PUSH4 0x23B872DD EQ PUSH2 0x3CB JUMPI DUP1 PUSH4 0x2A55205A EQ PUSH2 0x3EA JUMPI DUP1 PUSH4 0x2F745C59 EQ PUSH2 0x428 JUMPI DUP1 PUSH4 0x31C3C7A0 EQ PUSH2 0x447 JUMPI DUP1 PUSH4 0x370A36BD EQ PUSH2 0x45C JUMPI PUSH0 DUP1 REVERT JUMPDEST DUP1 PUSH4 0x1FFC9A7 EQ PUSH2 0x2C3 JUMPI DUP1 PUSH4 0x4634D8D EQ PUSH2 0x2F7 JUMPI DUP1 PUSH4 0x6FDDE03 EQ PUSH2 0x318 JUMPI DUP1 PUSH4 0x81812FC EQ PUSH2 0x339 JUMPI DUP1 PUSH4 0x95EA7B3 EQ PUSH2 0x370 JUMPI DUP1 PUSH4 0x16BA10E0 EQ PUSH2 0x38F JUMPI JUMPDEST PUSH0 DUP1 REVERT JUMPDEST CALLVALUE DUP1 ISZERO PUSH2 0x2CE JUMPI PUSH0 DUP1 REVERT JUMPDEST POP PUSH2 0x2E2 PUSH2 0x2DD CALLDATASIZE PUSH1 0x4 PUSH2 0x27C7 JUMP JUMPDEST PUSH2 0x8E5 JUMP JUMPDEST PUSH1 0x40 MLOAD SWAP1 ISZERO ISZERO DUP2 MSTORE PUSH1 0x20 ADD JUMPDEST PUSH1 0x40 MLOAD DUP1 SWAP2 SUB SWAP1 RETURN JUMPDEST CALLVALUE DUP1 ISZERO PUSH2 0x302 JUMPI PUSH0 DUP1 REVERT JUMPDEST POP PUSH2 0x316 PUSH2 0x311 CALLDATASIZE PUSH1 0x4 PUSH2 0x27FD JUMP JUMPDEST PUSH2 0x8F5 JUMP JUMPDEST STOP JUMPDEST CALLVALUE DUP1 ISZERO PUSH2 0x323 JUMPI PUSH0 DUP1 REVERT JUMPDEST POP PUSH2 0x32C PUSH2 0x90B JUMP JUMPDEST PUSH1 0x40 MLOAD PUSH2 0x2EE SWAP2 SWAP1 PUSH2 0x288A JUMP JUMPDEST CALLVALUE DUP1 ISZERO PUSH2 0x344 JUMPI PUSH0 DUP1 REVERT JUMPDEST POP PUSH2 0x358 PUSH2 0x353 CALLDATASIZE PUSH1 0x4 PUSH2 0x289C JUMP JUMPDEST PUSH2 0x99B JUMP JUMPDEST PUSH1 0x40 MLOAD PUSH1 0x1 PUSH1 0x1 PUSH1 0xA0 SHL SUB SWAP1 SWAP2 AND DUP2 MSTORE PUSH1 0x20 ADD PUSH2 0x2EE JUMP JUMPDEST CALLVALUE DUP1 ISZERO PUSH2 0x37B JUMPI PUSH0 DUP1 REVERT JUMPDEST POP PUSH2 0x316 PUSH2 0x38A CALLDATASIZE PUSH1 0x4 PUSH2 0x28B3 JUMP JUMPDEST PUSH2 0xA28 JUMP JUMPDEST CALLVALUE DUP1 ISZERO PUSH2 0x39A JUMPI PUSH0 DUP1 REVERT JUMPDEST POP PUSH2 0x316 PUSH2 0x3A9 CALLDATASIZE PUSH1 0x4 PUSH2 0x2962 JUMP JUMPDEST PUSH2 0xB3E JUMP JUMPDEST CALLVALUE DUP1 ISZERO PUSH2 0x3B9 JUMPI PUSH0 DUP1 REVERT JUMPDEST POP PUSH0 SLOAD JUMPDEST PUSH1 0x40 MLOAD SWAP1 DUP2 MSTORE PUSH1 0x20 ADD PUSH2 0x2EE JUMP JUMPDEST CALLVALUE DUP1 ISZERO PUSH2 0x3D6 JUMPI PUSH0 DUP1 REVERT JUMPDEST POP PUSH2 0x316 PUSH2 0x3E5 CALLDATASIZE PUSH1 0x4 PUSH2 0x29A7 JUMP JUMPDEST PUSH2 0xB52 JUMP JUMPDEST CALLVALUE DUP1 ISZERO PUSH2 0x3F5 JUMPI PUSH0 DUP1 REVERT JUMPDEST POP PUSH2 0x409 PUSH2 0x404 CALLDATASIZE PUSH1 0x4 PUSH2 0x29E0 JUMP JUMPDEST PUSH2 0xB5D JUMP JUMPDEST PUSH1 0x40 DUP1 MLOAD PUSH1 0x1 PUSH1 0x1 PUSH1 0xA0 SHL SUB SWAP1 SWAP4 AND DUP4 MSTORE PUSH1 0x20 DUP4 ADD SWAP2 SWAP1 SWAP2 MSTORE ADD PUSH2 0x2EE JUMP JUMPDEST CALLVALUE DUP1 ISZERO PUSH2 0x433 JUMPI PUSH0 DUP1 REVERT JUMPDEST POP PUSH2 0x3BD PUSH2 0x442 CALLDATASIZE PUSH1 0x4 PUSH2 0x28B3 JUMP JUMPDEST PUSH2 0xC07 JUMP JUMPDEST CALLVALUE DUP1 ISZERO PUSH2 0x452 JUMPI PUSH0 DUP1 REVERT JUMPDEST POP PUSH2 0x3BD PUSH1 0xD SLOAD DUP2 JUMP JUMPDEST PUSH2 0x316 PUSH2 0x46A CALLDATASIZE PUSH1 0x4 PUSH2 0x2A00 JUMP JUMPDEST PUSH2 0xD70 JUMP JUMPDEST CALLVALUE DUP1 ISZERO PUSH2 0x47A JUMPI PUSH0 DUP1 REVERT JUMPDEST POP PUSH2 0x316 PUSH2 0x489 CALLDATASIZE PUSH1 0x4 PUSH2 0x29A7 JUMP JUMPDEST PUSH2 0xF52 JUMP JUMPDEST CALLVALUE DUP1 ISZERO PUSH2 0x499 JUMPI PUSH0 DUP1 REVERT JUMPDEST POP PUSH2 0x3BD PUSH2 0x4A8 CALLDATASIZE PUSH1 0x4 PUSH2 0x289C JUMP JUMPDEST PUSH2 0xF6C JUMP JUMPDEST CALLVALUE DUP1 ISZERO PUSH2 0x4B8 JUMPI PUSH0 DUP1 REVERT JUMPDEST POP PUSH2 0x316 PUSH2 0x4C7 CALLDATASIZE PUSH1 0x4 PUSH2 0x2962 JUMP JUMPDEST PUSH2 0xFCD JUMP JUMPDEST CALLVALUE DUP1 ISZERO PUSH2 0x4D7 JUMPI PUSH0 DUP1 REVERT JUMPDEST POP PUSH1 0x16 SLOAD PUSH2 0x2E2 SWAP1 PUSH1 0xFF AND DUP2 JUMP JUMPDEST CALLVALUE DUP1 ISZERO PUSH2 0x4F0 JUMPI PUSH0 DUP1 REVERT JUMPDEST POP PUSH2 0x32C PUSH2 0xFE1 JUMP JUMPDEST CALLVALUE DUP1 ISZERO PUSH2 0x504 JUMPI PUSH0 DUP1 REVERT JUMPDEST POP PUSH2 0x316 PUSH2 0x513 CALLDATASIZE PUSH1 0x4 PUSH2 0x289C JUMP JUMPDEST PUSH2 0x106D JUMP JUMPDEST CALLVALUE DUP1 ISZERO PUSH2 0x523 JUMPI PUSH0 DUP1 REVERT JUMPDEST POP PUSH2 0x3BD PUSH32 0x0 DUP2 JUMP JUMPDEST CALLVALUE DUP1 ISZERO PUSH2 0x556 JUMPI PUSH0 DUP1 REVERT JUMPDEST POP PUSH2 0x32C PUSH2 0x11D1 JUMP JUMPDEST CALLVALUE DUP1 ISZERO PUSH2 0x56A JUMPI PUSH0 DUP1 REVERT JUMPDEST POP PUSH2 0x358 PUSH2 0x579 CALLDATASIZE PUSH1 0x4 PUSH2 0x289C JUMP JUMPDEST PUSH2 0x11DE JUMP JUMPDEST CALLVALUE DUP1 ISZERO PUSH2 0x589 JUMPI PUSH0 DUP1 REVERT JUMPDEST POP PUSH2 0x3BD PUSH32 0x0 DUP2 JUMP JUMPDEST CALLVALUE DUP1 ISZERO PUSH2 0x5BC JUMPI PUSH0 DUP1 REVERT JUMPDEST POP PUSH2 0x3BD PUSH32 0x0 DUP2 JUMP JUMPDEST CALLVALUE DUP1 ISZERO PUSH2 0x5EF JUMPI PUSH0 DUP1 REVERT JUMPDEST POP PUSH2 0x3BD PUSH2 0x5FE CALLDATASIZE PUSH1 0x4 PUSH2 0x2A78 JUMP JUMPDEST PUSH2 0x11EF JUMP JUMPDEST CALLVALUE DUP1 ISZERO PUSH2 0x60E JUMPI PUSH0 DUP1 REVERT JUMPDEST POP PUSH2 0x316 PUSH2 0x127E JUMP JUMPDEST CALLVALUE DUP1 ISZERO PUSH2 0x622 JUMPI PUSH0 DUP1 REVERT JUMPDEST POP PUSH2 0x316 PUSH2 0x631 CALLDATASIZE PUSH1 0x4 PUSH2 0x2962 JUMP JUMPDEST PUSH2 0x1291 JUMP JUMPDEST PUSH2 0x316 PUSH2 0x644 CALLDATASIZE PUSH1 0x4 PUSH2 0x2A00 JUMP JUMPDEST PUSH2 0x12A5 JUMP JUMPDEST CALLVALUE DUP1 ISZERO PUSH2 0x654 JUMPI PUSH0 DUP1 REVERT JUMPDEST POP PUSH2 0x3BD PUSH32 0x0 DUP2 JUMP JUMPDEST CALLVALUE DUP1 ISZERO PUSH2 0x687 JUMPI PUSH0 DUP1 REVERT JUMPDEST POP PUSH1 0x8 SLOAD PUSH1 0x1 PUSH1 0x1 PUSH1 0xA0 SHL SUB AND PUSH2 0x358 JUMP JUMPDEST CALLVALUE DUP1 ISZERO PUSH2 0x6A4 JUMPI PUSH0 DUP1 REVERT JUMPDEST POP PUSH2 0x3BD PUSH1 0xE SLOAD DUP2 JUMP JUMPDEST CALLVALUE DUP1 ISZERO PUSH2 0x6B9 JUMPI PUSH0 DUP1 REVERT JUMPDEST POP PUSH2 0x32C PUSH2 0x142B JUMP JUMPDEST CALLVALUE DUP1 ISZERO PUSH2 0x6CD JUMPI PUSH0 DUP1 REVERT JUMPDEST POP PUSH2 0x316 PUSH2 0x6DC CALLDATASIZE PUSH1 0x4 PUSH2 0x2AA0 JUMP JUMPDEST PUSH2 0x143A JUMP JUMPDEST CALLVALUE DUP1 ISZERO PUSH2 0x6EC JUMPI PUSH0 DUP1 REVERT JUMPDEST POP PUSH2 0x32C PUSH2 0x14FD JUMP JUMPDEST CALLVALUE DUP1 ISZERO PUSH2 0x700 JUMPI PUSH0 DUP1 REVERT JUMPDEST POP PUSH2 0x316 PUSH2 0x70F CALLDATASIZE PUSH1 0x4 PUSH2 0x289C JUMP JUMPDEST PUSH2 0x150A JUMP JUMPDEST CALLVALUE DUP1 ISZERO PUSH2 0x71F JUMPI PUSH0 DUP1 REVERT JUMPDEST POP PUSH2 0x316 PUSH2 0x1517 JUMP JUMPDEST CALLVALUE DUP1 ISZERO PUSH2 0x733 JUMPI PUSH0 DUP1 REVERT JUMPDEST POP PUSH2 0x316 PUSH2 0x742 CALLDATASIZE PUSH1 0x4 PUSH2 0x289C JUMP JUMPDEST PUSH2 0x1598 JUMP JUMPDEST CALLVALUE DUP1 ISZERO PUSH2 0x752 JUMPI PUSH0 DUP1 REVERT JUMPDEST POP PUSH2 0x3BD PUSH1 0x15 SLOAD DUP2 JUMP JUMPDEST CALLVALUE DUP1 ISZERO PUSH2 0x767 JUMPI PUSH0 DUP1 REVERT JUMPDEST POP PUSH2 0x316 PUSH2 0x776 CALLDATASIZE PUSH1 0x4 PUSH2 0x289C JUMP JUMPDEST PUSH2 0x15A5 JUMP JUMPDEST CALLVALUE DUP1 ISZERO PUSH2 0x786 JUMPI PUSH0 DUP1 REVERT JUMPDEST POP PUSH2 0x316 PUSH2 0x795 CALLDATASIZE PUSH1 0x4 PUSH2 0x2AD1 JUMP JUMPDEST PUSH2 0x15B2 JUMP JUMPDEST CALLVALUE DUP1 ISZERO PUSH2 0x7A5 JUMPI PUSH0 DUP1 REVERT JUMPDEST POP PUSH2 0x3BD PUSH1 0xC SLOAD DUP2 JUMP JUMPDEST CALLVALUE DUP1 ISZERO PUSH2 0x7BA JUMPI PUSH0 DUP1 REVERT JUMPDEST POP PUSH2 0x32C PUSH2 0x7C9 CALLDATASIZE PUSH1 0x4 PUSH2 0x289C JUMP JUMPDEST PUSH2 0x15EB JUMP JUMPDEST CALLVALUE DUP1 ISZERO PUSH2 0x7D9 JUMPI PUSH0 DUP1 REVERT JUMPDEST POP PUSH2 0x3BD PUSH2 0x7E8 CALLDATASIZE PUSH1 0x4 PUSH2 0x2A78 JUMP JUMPDEST PUSH1 0x17 PUSH1 0x20 MSTORE PUSH0 SWAP1 DUP2 MSTORE PUSH1 0x40 SWAP1 KECCAK256 SLOAD DUP2 JUMP JUMPDEST CALLVALUE DUP1 ISZERO PUSH2 0x804 JUMPI PUSH0 DUP1 REVERT JUMPDEST POP PUSH2 0x3BD PUSH1 0x14 SLOAD DUP2 JUMP JUMPDEST CALLVALUE DUP1 ISZERO PUSH2 0x819 JUMPI PUSH0 DUP1 REVERT JUMPDEST POP PUSH2 0x3BD PUSH1 0x7 SLOAD DUP2 JUMP JUMPDEST CALLVALUE DUP1 ISZERO PUSH2 0x82E JUMPI PUSH0 DUP1 REVERT JUMPDEST POP PUSH2 0x316 PUSH2 0x83D CALLDATASIZE PUSH1 0x4 PUSH2 0x2B48 JUMP JUMPDEST PUSH2 0x1755 JUMP JUMPDEST CALLVALUE DUP1 ISZERO PUSH2 0x84D JUMPI PUSH0 DUP1 REVERT JUMPDEST POP PUSH2 0x3BD PUSH1 0x13 SLOAD DUP2 JUMP JUMPDEST CALLVALUE DUP1 ISZERO PUSH2 0x862 JUMPI PUSH0 DUP1 REVERT JUMPDEST POP PUSH2 0x2E2 PUSH2 0x871 CALLDATASIZE PUSH1 0x4 PUSH2 0x2B61 JUMP JUMPDEST PUSH1 0x1 PUSH1 0x1 PUSH1 0xA0 SHL SUB SWAP2 DUP3 AND PUSH0 SWAP1 DUP2 MSTORE PUSH1 0x6 PUSH1 0x20 SWAP1 DUP2 MSTORE PUSH1 0x40 DUP1 DUP4 KECCAK256 SWAP4 SWAP1 SWAP5 AND DUP3 MSTORE SWAP2 SWAP1 SWAP2 MSTORE KECCAK256 SLOAD PUSH1 0xFF AND SWAP1 JUMP JUMPDEST CALLVALUE DUP1 ISZERO PUSH2 0x8A9 JUMPI PUSH0 DUP1 REVERT JUMPDEST POP PUSH2 0x316 PUSH2 0x8B8 CALLDATASIZE PUSH1 0x4 PUSH2 0x2A78 JUMP JUMPDEST PUSH2 0x1770 JUMP JUMPDEST PUSH2 0x316 PUSH2 0x8CB CALLDATASIZE PUSH1 0x4 PUSH2 0x289C JUMP JUMPDEST PUSH2 0x17E6 JUMP JUMPDEST CALLVALUE DUP1 ISZERO PUSH2 0x8DB JUMPI PUSH0 DUP1 REVERT JUMPDEST POP PUSH2 0x3BD PUSH1 0xF SLOAD DUP2 JUMP JUMPDEST PUSH0 PUSH2 0x8EF DUP3 PUSH2 0x196B JUMP JUMPDEST SWAP3 SWAP2 POP POP JUMP JUMPDEST PUSH2 0x8FD PUSH2 0x198F JUMP JUMPDEST PUSH2 0x907 DUP3 DUP3 PUSH2 0x19E9 JUMP JUMPDEST POP POP JUMP JUMPDEST PUSH1 0x60 PUSH1 0x1 DUP1 SLOAD PUSH2 0x91A SWAP1 PUSH2 0x2B89 JUMP JUMPDEST DUP1 PUSH1 0x1F ADD PUSH1 0x20 DUP1 SWAP2 DIV MUL PUSH1 0x20 ADD PUSH1 0x40 MLOAD SWAP1 DUP2 ADD PUSH1 0x40 MSTORE DUP1 SWAP3 SWAP2 SWAP1 DUP2 DUP2 MSTORE PUSH1 0x20 ADD DUP3 DUP1 SLOAD PUSH2 0x946 SWAP1 PUSH2 0x2B89 JUMP JUMPDEST DUP1 ISZERO PUSH2 0x991 JUMPI DUP1 PUSH1 0x1F LT PUSH2 0x968 JUMPI PUSH2 0x100 DUP1 DUP4 SLOAD DIV MUL DUP4 MSTORE SWAP2 PUSH1 0x20 ADD SWAP2 PUSH2 0x991 JUMP JUMPDEST DUP3 ADD SWAP2 SWAP1 PUSH0 MSTORE PUSH1 0x20 PUSH0 KECCAK256 SWAP1 JUMPDEST DUP2 SLOAD DUP2 MSTORE SWAP1 PUSH1 0x1 ADD SWAP1 PUSH1 0x20 ADD DUP1 DUP4 GT PUSH2 0x974 JUMPI DUP3 SWAP1 SUB PUSH1 0x1F AND DUP3 ADD SWAP2 JUMPDEST POP POP POP POP POP SWAP1 POP SWAP1 JUMP JUMPDEST PUSH0 PUSH2 0x9A6 DUP3 PUSH0 SLOAD GT SWAP1 JUMP JUMPDEST PUSH2 0xA0D JUMPI PUSH1 0x40 MLOAD PUSH3 0x461BCD PUSH1 0xE5 SHL DUP2 MSTORE PUSH1 0x20 PUSH1 0x4 DUP3 ADD MSTORE PUSH1 0x2D PUSH1 0x24 DUP3 ADD MSTORE PUSH32 0x455243373231413A20617070726F76656420717565727920666F72206E6F6E65 PUSH1 0x44 DUP3 ADD MSTORE PUSH13 0x3C34B9BA32B73A103A37B5B2B7 PUSH1 0x99 SHL PUSH1 0x64 DUP3 ADD MSTORE PUSH1 0x84 ADD JUMPDEST PUSH1 0x40 MLOAD DUP1 SWAP2 SUB SWAP1 REVERT JUMPDEST POP PUSH0 SWAP1 DUP2 MSTORE PUSH1 0x5 PUSH1 0x20 MSTORE PUSH1 0x40 SWAP1 KECCAK256 SLOAD PUSH1 0x1 PUSH1 0x1 PUSH1 0xA0 SHL SUB AND SWAP1 JUMP JUMPDEST PUSH0 PUSH2 0xA32 DUP3 PUSH2 0x11DE JUMP JUMPDEST SWAP1 POP DUP1 PUSH1 0x1 PUSH1 0x1 PUSH1 0xA0 SHL SUB AND DUP4 PUSH1 0x1 PUSH1 0x1 PUSH1 0xA0 SHL SUB AND SUB PUSH2 0xAA0 JUMPI PUSH1 0x40 MLOAD PUSH3 0x461BCD PUSH1 0xE5 SHL DUP2 MSTORE PUSH1 0x20 PUSH1 0x4 DUP3 ADD MSTORE PUSH1 0x22 PUSH1 0x24 DUP3 ADD MSTORE PUSH32 0x455243373231413A20617070726F76616C20746F2063757272656E74206F776E PUSH1 0x44 DUP3 ADD MSTORE PUSH2 0x32B9 PUSH1 0xF1 SHL PUSH1 0x64 DUP3 ADD MSTORE PUSH1 0x84 ADD PUSH2 0xA04 JUMP JUMPDEST CALLER PUSH1 0x1 PUSH1 0x1 PUSH1 0xA0 SHL SUB DUP3 AND EQ DUP1 PUSH2 0xABC JUMPI POP PUSH2 0xABC DUP2 CALLER PUSH2 0x871 JUMP JUMPDEST PUSH2 0xB2E JUMPI PUSH1 0x40 MLOAD PUSH3 0x461BCD PUSH1 0xE5 SHL DUP2 MSTORE PUSH1 0x20 PUSH1 0x4 DUP3 ADD MSTORE PUSH1 0x39 PUSH1 0x24 DUP3 ADD MSTORE PUSH32 0x455243373231413A20617070726F76652063616C6C6572206973206E6F74206F PUSH1 0x44 DUP3 ADD MSTORE PUSH32 0x776E6572206E6F7220617070726F76656420666F7220616C6C00000000000000 PUSH1 0x64 DUP3 ADD MSTORE PUSH1 0x84 ADD PUSH2 0xA04 JUMP JUMPDEST PUSH2 0xB39 DUP4 DUP4 DUP4 PUSH2 0x1AE6 JUMP JUMPDEST POP POP POP JUMP JUMPDEST PUSH2 0xB46 PUSH2 0x198F JUMP JUMPDEST PUSH1 0x11 PUSH2 0x907 DUP3 DUP3 PUSH2 0x2C06 JUMP JUMPDEST PUSH2 0xB39 DUP4 DUP4 DUP4 PUSH2 0x1B41 JUMP JUMPDEST PUSH0 DUP3 DUP2 MSTORE PUSH1 0xB PUSH1 0x20 SWAP1 DUP2 MSTORE PUSH1 0x40 DUP1 DUP4 KECCAK256 DUP2 MLOAD DUP1 DUP4 ADD SWAP1 SWAP3 MSTORE SLOAD PUSH1 0x1 PUSH1 0x1 PUSH1 0xA0 SHL SUB DUP2 AND DUP1 DUP4 MSTORE PUSH1 0x1 PUSH1 0xA0 SHL SWAP1 SWAP2 DIV PUSH1 0x1 PUSH1 0x1 PUSH1 0x60 SHL SUB AND SWAP3 DUP3 ADD SWAP3 SWAP1 SWAP3 MSTORE DUP3 SWAP2 PUSH2 0xBD1 JUMPI POP PUSH1 0x40 DUP1 MLOAD DUP1 DUP3 ADD SWAP1 SWAP2 MSTORE PUSH1 0xA SLOAD PUSH1 0x1 PUSH1 0x1 PUSH1 0xA0 SHL SUB DUP2 AND DUP3 MSTORE PUSH1 0x1 PUSH1 0xA0 SHL SWAP1 DIV PUSH1 0x1 PUSH1 0x1 PUSH1 0x60 SHL SUB AND PUSH1 0x20 DUP3 ADD MSTORE JUMPDEST PUSH1 0x20 DUP2 ADD MLOAD PUSH0 SWAP1 PUSH2 0x2710 SWAP1 PUSH2 0xBEF SWAP1 PUSH1 0x1 PUSH1 0x1 PUSH1 0x60 SHL SUB AND DUP8 PUSH2 0x2CD6 JUMP JUMPDEST PUSH2 0xBF9 SWAP2 SWAP1 PUSH2 0x2D01 JUMP JUMPDEST SWAP2 MLOAD SWAP7 SWAP2 SWAP6 POP SWAP1 SWAP4 POP POP POP POP JUMP JUMPDEST PUSH0 PUSH2 0xC11 DUP4 PUSH2 0x11EF JUMP JUMPDEST DUP3 LT PUSH2 0xC6A JUMPI PUSH1 0x40 MLOAD PUSH3 0x461BCD PUSH1 0xE5 SHL DUP2 MSTORE PUSH1 0x20 PUSH1 0x4 DUP3 ADD MSTORE PUSH1 0x22 PUSH1 0x24 DUP3 ADD MSTORE PUSH32 0x455243373231413A206F776E657220696E646578206F7574206F6620626F756E PUSH1 0x44 DUP3 ADD MSTORE PUSH2 0x6473 PUSH1 0xF0 SHL PUSH1 0x64 DUP3 ADD MSTORE PUSH1 0x84 ADD PUSH2 0xA04 JUMP JUMPDEST PUSH0 DUP1 SLOAD SWAP1 DUP1 DUP1 JUMPDEST DUP4 DUP2 LT ISZERO PUSH2 0xD10 JUMPI PUSH0 DUP2 DUP2 MSTORE PUSH1 0x3 PUSH1 0x20 SWAP1 DUP2 MSTORE PUSH1 0x40 SWAP2 DUP3 SWAP1 KECCAK256 DUP3 MLOAD DUP1 DUP5 ADD SWAP1 SWAP4 MSTORE SLOAD PUSH1 0x1 PUSH1 0x1 PUSH1 0xA0 SHL SUB DUP2 AND DUP1 DUP5 MSTORE PUSH1 0x1 PUSH1 0xA0 SHL SWAP1 SWAP2 DIV PUSH8 0xFFFFFFFFFFFFFFFF AND SWAP2 DUP4 ADD SWAP2 SWAP1 SWAP2 MSTORE ISZERO PUSH2 0xCC3 JUMPI DUP1 MLOAD SWAP3 POP JUMPDEST DUP8 PUSH1 0x1 PUSH1 0x1 PUSH1 0xA0 SHL SUB AND DUP4 PUSH1 0x1 PUSH1 0x1 PUSH1 0xA0 SHL SUB AND SUB PUSH2 0xCFD JUMPI DUP7 DUP5 SUB PUSH2 0xCEF JUMPI POP SWAP4 POP PUSH2 0x8EF SWAP3 POP POP POP JUMP JUMPDEST DUP4 PUSH2 0xCF9 DUP2 PUSH2 0x2D14 JUMP JUMPDEST SWAP5 POP POP JUMPDEST POP DUP1 PUSH2 0xD08 DUP2 PUSH2 0x2D14 JUMP JUMPDEST SWAP2 POP POP PUSH2 0xC71 JUMP JUMPDEST POP PUSH1 0x40 MLOAD PUSH3 0x461BCD PUSH1 0xE5 SHL DUP2 MSTORE PUSH1 0x20 PUSH1 0x4 DUP3 ADD MSTORE PUSH1 0x2E PUSH1 0x24 DUP3 ADD MSTORE PUSH32 0x455243373231413A20756E61626C6520746F2067657420746F6B656E206F6620 PUSH1 0x44 DUP3 ADD MSTORE PUSH14 0xDEEEDCCAE440C4F240D2DCC8CAF PUSH1 0x93 SHL PUSH1 0x64 DUP3 ADD MSTORE PUSH1 0x84 ADD PUSH2 0xA04 JUMP JUMPDEST PUSH2 0xD78 PUSH2 0x1EBE JUMP JUMPDEST PUSH1 0x13 SLOAD PUSH1 0x1 EQ PUSH2 0xD9B JUMPI PUSH1 0x40 MLOAD PUSH4 0x4CE630E1 PUSH1 0xE0 SHL DUP2 MSTORE PUSH1 0x4 ADD PUSH1 0x40 MLOAD DUP1 SWAP2 SUB SWAP1 REVERT JUMPDEST PUSH2 0xDDB CALLER DUP4 DUP4 DUP1 DUP1 PUSH1 0x20 MUL PUSH1 0x20 ADD PUSH1 0x40 MLOAD SWAP1 DUP2 ADD PUSH1 0x40 MSTORE DUP1 SWAP4 SWAP3 SWAP2 SWAP1 DUP2 DUP2 MSTORE PUSH1 0x20 ADD DUP4 DUP4 PUSH1 0x20 MUL DUP1 DUP3 DUP5 CALLDATACOPY PUSH0 SWAP3 ADD SWAP2 SWAP1 SWAP2 MSTORE POP POP PUSH1 0x14 SLOAD SWAP2 POP PUSH2 0x1F17 SWAP1 POP JUMP JUMPDEST PUSH2 0xDF8 JUMPI PUSH1 0x40 MLOAD PUSH4 0x582F497D PUSH1 0xE1 SHL DUP2 MSTORE PUSH1 0x4 ADD PUSH1 0x40 MLOAD DUP1 SWAP2 SUB SWAP1 REVERT JUMPDEST PUSH32 0x0 DUP4 GT ISZERO PUSH2 0xE39 JUMPI PUSH1 0x40 MLOAD PUSH4 0x162D2305 PUSH1 0xE1 SHL DUP2 MSTORE PUSH1 0x4 ADD PUSH1 0x40 MLOAD DUP1 SWAP2 SUB SWAP1 REVERT JUMPDEST CALLER PUSH0 SWAP1 DUP2 MSTORE PUSH1 0x17 PUSH1 0x20 MSTORE PUSH1 0x40 SWAP1 KECCAK256 SLOAD PUSH32 0x0 SWAP1 PUSH2 0xE75 SWAP1 DUP6 SWAP1 PUSH2 0x2D2C JUMP JUMPDEST GT ISZERO PUSH2 0xE94 JUMPI PUSH1 0x40 MLOAD PUSH4 0x61B63E1 PUSH1 0xE3 SHL DUP2 MSTORE PUSH1 0x4 ADD PUSH1 0x40 MLOAD DUP1 SWAP2 SUB SWAP1 REVERT JUMPDEST PUSH32 0x0 DUP4 PUSH2 0xEBE PUSH0 SLOAD SWAP1 JUMP JUMPDEST PUSH2 0xEC8 SWAP2 SWAP1 PUSH2 0x2D2C JUMP JUMPDEST GT ISZERO PUSH2 0xEE7 JUMPI PUSH1 0x40 MLOAD PUSH4 0x2831473 PUSH1 0xE6 SHL DUP2 MSTORE PUSH1 0x4 ADD PUSH1 0x40 MLOAD DUP1 SWAP2 SUB SWAP1 REVERT JUMPDEST PUSH0 DUP4 PUSH1 0xD SLOAD PUSH2 0xEF6 SWAP2 SWAP1 PUSH2 0x2CD6 JUMP JUMPDEST SWAP1 POP DUP1 CALLVALUE LT ISZERO PUSH2 0xF19 JUMPI PUSH1 0x40 MLOAD PUSH4 0xCD1C8867 PUSH1 0xE0 SHL DUP2 MSTORE PUSH1 0x4 ADD PUSH1 0x40 MLOAD DUP1 SWAP2 SUB SWAP1 REVERT JUMPDEST CALLER PUSH0 SWAP1 DUP2 MSTORE PUSH1 0x17 PUSH1 0x20 MSTORE PUSH1 0x40 DUP2 KECCAK256 DUP1 SLOAD DUP7 SWAP3 SWAP1 PUSH2 0xF37 SWAP1 DUP5 SWAP1 PUSH2 0x2D2C JUMP JUMPDEST SWAP1 SWAP2 SSTORE POP PUSH2 0xF47 SWAP1 POP CALLER DUP6 PUSH2 0x1F66 JUMP JUMPDEST POP PUSH2 0xB39 PUSH1 0x1 PUSH1 0x9 SSTORE JUMP JUMPDEST PUSH2 0xB39 DUP4 DUP4 DUP4 PUSH1 0x40 MLOAD DUP1 PUSH1 0x20 ADD PUSH1 0x40 MSTORE DUP1 PUSH0 DUP2 MSTORE POP PUSH2 0x15B2 JUMP JUMPDEST PUSH0 DUP1 SLOAD DUP3 LT PUSH2 0xFC9 JUMPI PUSH1 0x40 MLOAD PUSH3 0x461BCD PUSH1 0xE5 SHL DUP2 MSTORE PUSH1 0x20 PUSH1 0x4 DUP3 ADD MSTORE PUSH1 0x23 PUSH1 0x24 DUP3 ADD MSTORE PUSH32 0x455243373231413A20676C6F62616C20696E646578206F7574206F6620626F75 PUSH1 0x44 DUP3 ADD MSTORE PUSH3 0x6E6473 PUSH1 0xE8 SHL PUSH1 0x64 DUP3 ADD MSTORE PUSH1 0x84 ADD PUSH2 0xA04 JUMP JUMPDEST POP SWAP1 JUMP JUMPDEST PUSH2 0xFD5 PUSH2 0x198F JUMP JUMPDEST PUSH1 0x12 PUSH2 0x907 DUP3 DUP3 PUSH2 0x2C06 JUMP JUMPDEST PUSH1 0x11 DUP1 SLOAD PUSH2 0xFEE SWAP1 PUSH2 0x2B89 JUMP JUMPDEST DUP1 PUSH1 0x1F ADD PUSH1 0x20 DUP1 SWAP2 DIV MUL PUSH1 0x20 ADD PUSH1 0x40 MLOAD SWAP1 DUP2 ADD PUSH1 0x40 MSTORE DUP1 SWAP3 SWAP2 SWAP1 DUP2 DUP2 MSTORE PUSH1 0x20 ADD DUP3 DUP1 SLOAD PUSH2 0x101A SWAP1 PUSH2 0x2B89 JUMP JUMPDEST DUP1 ISZERO PUSH2 0x1065 JUMPI DUP1 PUSH1 0x1F LT PUSH2 0x103C JUMPI PUSH2 0x100 DUP1 DUP4 SLOAD DIV MUL DUP4 MSTORE SWAP2 PUSH1 0x20 ADD SWAP2 PUSH2 0x1065 JUMP JUMPDEST DUP3 ADD SWAP2 SWAP1 PUSH0 MSTORE PUSH1 0x20 PUSH0 KECCAK256 SWAP1 JUMPDEST DUP2 SLOAD DUP2 MSTORE SWAP1 PUSH1 0x1 ADD SWAP1 PUSH1 0x20 ADD DUP1 DUP4 GT PUSH2 0x1048 JUMPI DUP3 SWAP1 SUB PUSH1 0x1F AND DUP3 ADD SWAP2 JUMPDEST POP POP POP POP POP DUP2 JUMP JUMPDEST PUSH2 0x1075 PUSH2 0x1EBE JUMP JUMPDEST PUSH2 0x107D PUSH2 0x198F JUMP JUMPDEST PUSH32 0x0 DUP2 PUSH2 0x10A7 PUSH0 SLOAD SWAP1 JUMP JUMPDEST PUSH2 0x10B1 SWAP2 SWAP1 PUSH2 0x2D2C JUMP JUMPDEST GT ISZERO PUSH2 0x10D0 JUMPI PUSH1 0x40 MLOAD PUSH4 0xC30436E9 PUSH1 0xE0 SHL DUP2 MSTORE PUSH1 0x4 ADD PUSH1 0x40 MLOAD DUP1 SWAP2 SUB SWAP1 REVERT JUMPDEST DUP1 PUSH1 0xF SLOAD LT ISZERO PUSH2 0x10F3 JUMPI PUSH1 0x40 MLOAD PUSH4 0x27D51079 PUSH1 0xE2 SHL DUP2 MSTORE PUSH1 0x4 ADD PUSH1 0x40 MLOAD DUP1 SWAP2 SUB SWAP1 REVERT JUMPDEST PUSH2 0x111D PUSH32 0x0 DUP3 PUSH2 0x2D3F JUMP JUMPDEST ISZERO PUSH2 0x113B JUMPI PUSH1 0x40 MLOAD PUSH4 0x4341E6ED PUSH1 0xE0 SHL DUP2 MSTORE PUSH1 0x4 ADD PUSH1 0x40 MLOAD DUP1 SWAP2 SUB SWAP1 REVERT JUMPDEST PUSH0 PUSH2 0x1166 PUSH32 0x0 DUP4 PUSH2 0x2D01 JUMP JUMPDEST SWAP1 POP PUSH0 JUMPDEST DUP2 DUP2 LT ISZERO PUSH2 0x11AE JUMPI PUSH2 0x119C CALLER PUSH32 0x0 PUSH2 0x1F66 JUMP JUMPDEST DUP1 PUSH2 0x11A6 DUP2 PUSH2 0x2D14 JUMP JUMPDEST SWAP2 POP POP PUSH2 0x116A JUMP JUMPDEST POP DUP2 PUSH1 0xF PUSH0 DUP3 DUP3 SLOAD PUSH2 0x11C0 SWAP2 SWAP1 PUSH2 0x2D52 JUMP JUMPDEST SWAP1 SWAP2 SSTORE POP POP PUSH1 0x1 PUSH1 0x9 SSTORE POP POP JUMP JUMPDEST POP JUMP JUMPDEST PUSH1 0x10 DUP1 SLOAD PUSH2 0xFEE SWAP1 PUSH2 0x2B89 JUMP JUMPDEST PUSH0 PUSH2 0x11E8 DUP3 PUSH2 0x1F7F JUMP JUMPDEST MLOAD SWAP3 SWAP2 POP POP JUMP JUMPDEST PUSH0 PUSH1 0x1 PUSH1 0x1 PUSH1 0xA0 SHL SUB DUP3 AND PUSH2 0x125A JUMPI PUSH1 0x40 MLOAD PUSH3 0x461BCD PUSH1 0xE5 SHL DUP2 MSTORE PUSH1 0x20 PUSH1 0x4 DUP3 ADD MSTORE PUSH1 0x2B PUSH1 0x24 DUP3 ADD MSTORE PUSH32 0x455243373231413A2062616C616E636520717565727920666F7220746865207A PUSH1 0x44 DUP3 ADD MSTORE PUSH11 0x65726F2061646472657373 PUSH1 0xA8 SHL PUSH1 0x64 DUP3 ADD MSTORE PUSH1 0x84 ADD PUSH2 0xA04 JUMP JUMPDEST POP PUSH1 0x1 PUSH1 0x1 PUSH1 0xA0 SHL SUB AND PUSH0 SWAP1 DUP2 MSTORE PUSH1 0x4 PUSH1 0x20 MSTORE PUSH1 0x40 SWAP1 KECCAK256 SLOAD PUSH1 0x1 PUSH1 0x1 PUSH1 0x80 SHL SUB AND SWAP1 JUMP JUMPDEST PUSH2 0x1286 PUSH2 0x198F JUMP JUMPDEST PUSH2 0x128F PUSH0 PUSH2 0x2125 JUMP JUMPDEST JUMP JUMPDEST PUSH2 0x1299 PUSH2 0x198F JUMP JUMPDEST PUSH1 0x10 PUSH2 0x907 DUP3 DUP3 PUSH2 0x2C06 JUMP JUMPDEST PUSH2 0x12AD PUSH2 0x1EBE JUMP JUMPDEST PUSH1 0x13 SLOAD PUSH1 0x1 EQ PUSH2 0x12D0 JUMPI PUSH1 0x40 MLOAD PUSH4 0x4CE630E1 PUSH1 0xE0 SHL DUP2 MSTORE PUSH1 0x4 ADD PUSH1 0x40 MLOAD DUP1 SWAP2 SUB SWAP1 REVERT JUMPDEST PUSH2 0x1310 CALLER DUP4 DUP4 DUP1 DUP1 PUSH1 0x20 MUL PUSH1 0x20 ADD PUSH1 0x40 MLOAD SWAP1 DUP2 ADD PUSH1 0x40 MSTORE DUP1 SWAP4 SWAP3 SWAP2 SWAP1 DUP2 DUP2 MSTORE PUSH1 0x20 ADD DUP4 DUP4 PUSH1 0x20 MUL DUP1 DUP3 DUP5 CALLDATACOPY PUSH0 SWAP3 ADD SWAP2 SWAP1 SWAP2 MSTORE POP POP PUSH1 0x15 SLOAD SWAP2 POP PUSH2 0x1F17 SWAP1 POP JUMP JUMPDEST PUSH2 0x132D JUMPI PUSH1 0x40 MLOAD PUSH4 0x582F497D PUSH1 0xE1 SHL DUP2 MSTORE PUSH1 0x4 ADD PUSH1 0x40 MLOAD DUP1 SWAP2 SUB SWAP1 REVERT JUMPDEST PUSH32 0x0 DUP4 GT ISZERO PUSH2 0x136E JUMPI PUSH1 0x40 MLOAD PUSH4 0x162D2305 PUSH1 0xE1 SHL DUP2 MSTORE PUSH1 0x4 ADD PUSH1 0x40 MLOAD DUP1 SWAP2 SUB SWAP1 REVERT JUMPDEST CALLER PUSH0 SWAP1 DUP2 MSTORE PUSH1 0x17 PUSH1 0x20 MSTORE PUSH1 0x40 SWAP1 KECCAK256 SLOAD PUSH32 0x0 SWAP1 PUSH2 0x13AA SWAP1 DUP6 SWAP1 PUSH2 0x2D2C JUMP JUMPDEST GT ISZERO PUSH2 0x13C9 JUMPI PUSH1 0x40 MLOAD PUSH4 0x61B63E1 PUSH1 0xE3 SHL DUP2 MSTORE PUSH1 0x4 ADD PUSH1 0x40 MLOAD DUP1 SWAP2 SUB SWAP1 REVERT JUMPDEST PUSH32 0x0 DUP4 PUSH2 0x13F3 PUSH0 SLOAD SWAP1 JUMP JUMPDEST PUSH2 0x13FD SWAP2 SWAP1 PUSH2 0x2D2C JUMP JUMPDEST GT ISZERO PUSH2 0x141C JUMPI PUSH1 0x40 MLOAD PUSH4 0x2831473 PUSH1 0xE6 SHL DUP2 MSTORE PUSH1 0x4 ADD PUSH1 0x40 MLOAD DUP1 SWAP2 SUB SWAP1 REVERT JUMPDEST PUSH0 DUP4 PUSH1 0xE SLOAD PUSH2 0xEF6 SWAP2 SWAP1 PUSH2 0x2CD6 JUMP JUMPDEST PUSH1 0x60 PUSH1 0x2 DUP1 SLOAD PUSH2 0x91A SWAP1 PUSH2 0x2B89 JUMP JUMPDEST CALLER PUSH1 0x1 PUSH1 0x1 PUSH1 0xA0 SHL SUB DUP4 AND SUB PUSH2 0x1492 JUMPI PUSH1 0x40 MLOAD PUSH3 0x461BCD PUSH1 0xE5 SHL DUP2 MSTORE PUSH1 0x20 PUSH1 0x4 DUP3 ADD MSTORE PUSH1 0x1A PUSH1 0x24 DUP3 ADD MSTORE PUSH32 0x455243373231413A20617070726F766520746F2063616C6C6572000000000000 PUSH1 0x44 DUP3 ADD MSTORE PUSH1 0x64 ADD PUSH2 0xA04 JUMP JUMPDEST CALLER PUSH0 DUP2 DUP2 MSTORE PUSH1 0x6 PUSH1 0x20 SWAP1 DUP2 MSTORE PUSH1 0x40 DUP1 DUP4 KECCAK256 PUSH1 0x1 PUSH1 0x1 PUSH1 0xA0 SHL SUB DUP8 AND DUP1 DUP6 MSTORE SWAP1 DUP4 MSTORE SWAP3 DUP2 SWAP1 KECCAK256 DUP1 SLOAD PUSH1 0xFF NOT AND DUP7 ISZERO ISZERO SWAP1 DUP2 OR SWAP1 SWAP2 SSTORE SWAP1 MLOAD SWAP1 DUP2 MSTORE SWAP2 SWAP3 SWAP2 PUSH32 0x17307EAB39AB6107E8899845AD3D59BD9653F200F220920489CA2B5937696C31 SWAP2 ADD PUSH1 0x40 MLOAD DUP1 SWAP2 SUB SWAP1 LOG3 POP POP JUMP JUMPDEST PUSH1 0x12 DUP1 SLOAD PUSH2 0xFEE SWAP1 PUSH2 0x2B89 JUMP JUMPDEST PUSH2 0x1512 PUSH2 0x198F JUMP JUMPDEST PUSH1 0x15 SSTORE JUMP JUMPDEST PUSH2 0x151F PUSH2 0x198F JUMP JUMPDEST PUSH2 0x1527 PUSH2 0x1EBE JUMP JUMPDEST PUSH1 0x40 MLOAD PUSH0 SWAP1 CALLER SWAP1 SELFBALANCE SWAP1 DUP4 DUP2 DUP2 DUP2 DUP6 DUP8 GAS CALL SWAP3 POP POP POP RETURNDATASIZE DUP1 PUSH0 DUP2 EQ PUSH2 0x1566 JUMPI PUSH1 0x40 MLOAD SWAP2 POP PUSH1 0x1F NOT PUSH1 0x3F RETURNDATASIZE ADD AND DUP3 ADD PUSH1 0x40 MSTORE RETURNDATASIZE DUP3 MSTORE RETURNDATASIZE PUSH0 PUSH1 0x20 DUP5 ADD RETURNDATACOPY PUSH2 0x156B JUMP JUMPDEST PUSH1 0x60 SWAP2 POP JUMPDEST POP POP SWAP1 POP DUP1 PUSH2 0x158D JUMPI PUSH1 0x40 MLOAD PUSH4 0x12171D83 PUSH1 0xE3 SHL DUP2 MSTORE PUSH1 0x4 ADD PUSH1 0x40 MLOAD DUP1 SWAP2 SUB SWAP1 REVERT JUMPDEST POP PUSH2 0x128F PUSH1 0x1 PUSH1 0x9 SSTORE JUMP JUMPDEST PUSH2 0x15A0 PUSH2 0x198F JUMP JUMPDEST PUSH1 0x14 SSTORE JUMP JUMPDEST PUSH2 0x15AD PUSH2 0x198F JUMP JUMPDEST PUSH1 0x13 SSTORE JUMP JUMPDEST PUSH2 0x15BD DUP5 DUP5 DUP5 PUSH2 0x1B41 JUMP JUMPDEST PUSH2 0x15C9 DUP5 DUP5 DUP5 DUP5 PUSH2 0x2176 JUMP JUMPDEST PUSH2 0x15E5 JUMPI PUSH1 0x40 MLOAD PUSH3 0x461BCD PUSH1 0xE5 SHL DUP2 MSTORE PUSH1 0x4 ADD PUSH2 0xA04 SWAP1 PUSH2 0x2D65 JUMP JUMPDEST POP POP POP POP JUMP JUMPDEST PUSH1 0x60 PUSH2 0x15F7 DUP3 PUSH0 SLOAD GT SWAP1 JUMP JUMPDEST PUSH2 0x165B JUMPI PUSH1 0x40 MLOAD PUSH3 0x461BCD PUSH1 0xE5 SHL DUP2 MSTORE PUSH1 0x20 PUSH1 0x4 DUP3 ADD MSTORE PUSH1 0x2F PUSH1 0x24 DUP3 ADD MSTORE PUSH32 0x4552433732314D657461646174613A2055524920717565727920666F72206E6F PUSH1 0x44 DUP3 ADD MSTORE PUSH15 0x3732BC34B9BA32B73A103A37B5B2B7 PUSH1 0x89 SHL PUSH1 0x64 DUP3 ADD MSTORE PUSH1 0x84 ADD PUSH2 0xA04 JUMP JUMPDEST PUSH1 0x16 SLOAD PUSH1 0xFF AND ISZERO ISZERO PUSH0 SUB PUSH2 0x16F9 JUMPI PUSH1 0x12 DUP1 SLOAD PUSH2 0x1676 SWAP1 PUSH2 0x2B89 JUMP JUMPDEST DUP1 PUSH1 0x1F ADD PUSH1 0x20 DUP1 SWAP2 DIV MUL PUSH1 0x20 ADD PUSH1 0x40 MLOAD SWAP1 DUP2 ADD PUSH1 0x40 MSTORE DUP1 SWAP3 SWAP2 SWAP1 DUP2 DUP2 MSTORE PUSH1 0x20 ADD DUP3 DUP1 SLOAD PUSH2 0x16A2 SWAP1 PUSH2 0x2B89 JUMP JUMPDEST DUP1 ISZERO PUSH2 0x16ED JUMPI DUP1 PUSH1 0x1F LT PUSH2 0x16C4 JUMPI PUSH2 0x100 DUP1 DUP4 SLOAD DIV MUL DUP4 MSTORE SWAP2 PUSH1 0x20 ADD SWAP2 PUSH2 0x16ED JUMP JUMPDEST DUP3 ADD SWAP2 SWAP1 PUSH0 MSTORE PUSH1 0x20 PUSH0 KECCAK256 SWAP1 JUMPDEST DUP2 SLOAD DUP2 MSTORE SWAP1 PUSH1 0x1 ADD SWAP1 PUSH1 0x20 ADD DUP1 DUP4 GT PUSH2 0x16D0 JUMPI DUP3 SWAP1 SUB PUSH1 0x1F AND DUP3 ADD SWAP2 JUMPDEST POP POP POP POP POP SWAP1 POP SWAP2 SWAP1 POP JUMP JUMPDEST PUSH0 PUSH2 0x1702 PUSH2 0x2274 JUMP JUMPDEST SWAP1 POP PUSH0 DUP2 MLOAD GT PUSH2 0x1720 JUMPI PUSH1 0x40 MLOAD DUP1 PUSH1 0x20 ADD PUSH1 0x40 MSTORE DUP1 PUSH0 DUP2 MSTORE POP PUSH2 0x174E JUMP JUMPDEST DUP1 PUSH2 0x172A DUP5 PUSH2 0x2283 JUMP JUMPDEST PUSH1 0x11 PUSH1 0x40 MLOAD PUSH1 0x20 ADD PUSH2 0x173E SWAP4 SWAP3 SWAP2 SWAP1 PUSH2 0x2DB8 JUMP JUMPDEST PUSH1 0x40 MLOAD PUSH1 0x20 DUP2 DUP4 SUB SUB DUP2 MSTORE SWAP1 PUSH1 0x40 MSTORE JUMPDEST SWAP4 SWAP3 POP POP POP JUMP JUMPDEST PUSH2 0x175D PUSH2 0x198F JUMP JUMPDEST PUSH1 0x16 DUP1 SLOAD PUSH1 0xFF NOT AND SWAP2 ISZERO ISZERO SWAP2 SWAP1 SWAP2 OR SWAP1 SSTORE JUMP JUMPDEST PUSH2 0x1778 PUSH2 0x198F JUMP JUMPDEST PUSH1 0x1 PUSH1 0x1 PUSH1 0xA0 SHL SUB DUP2 AND PUSH2 0x17DD JUMPI PUSH1 0x40 MLOAD PUSH3 0x461BCD PUSH1 0xE5 SHL DUP2 MSTORE PUSH1 0x20 PUSH1 0x4 DUP3 ADD MSTORE PUSH1 0x26 PUSH1 0x24 DUP3 ADD MSTORE PUSH32 0x4F776E61626C653A206E6577206F776E657220697320746865207A65726F2061 PUSH1 0x44 DUP3 ADD MSTORE PUSH6 0x646472657373 PUSH1 0xD0 SHL PUSH1 0x64 DUP3 ADD MSTORE PUSH1 0x84 ADD PUSH2 0xA04 JUMP JUMPDEST PUSH2 0x11CE DUP2 PUSH2 0x2125 JUMP JUMPDEST PUSH2 0x17EE PUSH2 0x1EBE JUMP JUMPDEST PUSH1 0x13 SLOAD PUSH1 0x2 EQ PUSH2 0x1811 JUMPI PUSH1 0x40 MLOAD PUSH4 0xB7B24097 PUSH1 0xE0 SHL DUP2 MSTORE PUSH1 0x4 ADD PUSH1 0x40 MLOAD DUP1 SWAP2 SUB SWAP1 REVERT JUMPDEST PUSH32 0x0 DUP2 GT ISZERO PUSH2 0x1852 JUMPI PUSH1 0x40 MLOAD PUSH4 0x162D2305 PUSH1 0xE1 SHL DUP2 MSTORE PUSH1 0x4 ADD PUSH1 0x40 MLOAD DUP1 SWAP2 SUB SWAP1 REVERT JUMPDEST CALLER PUSH0 SWAP1 DUP2 MSTORE PUSH1 0x17 PUSH1 0x20 MSTORE PUSH1 0x40 SWAP1 KECCAK256 SLOAD PUSH32 0x0 SWAP1 PUSH2 0x188E SWAP1 DUP4 SWAP1 PUSH2 0x2D2C JUMP JUMPDEST GT ISZERO PUSH2 0x18AD JUMPI PUSH1 0x40 MLOAD PUSH4 0x61B63E1 PUSH1 0xE3 SHL DUP2 MSTORE PUSH1 0x4 ADD PUSH1 0x40 MLOAD DUP1 SWAP2 SUB SWAP1 REVERT JUMPDEST PUSH32 0x0 DUP2 PUSH2 0x18D7 PUSH0 SLOAD SWAP1 JUMP JUMPDEST PUSH2 0x18E1 SWAP2 SWAP1 PUSH2 0x2D2C JUMP JUMPDEST GT ISZERO PUSH2 0x1900 JUMPI PUSH1 0x40 MLOAD PUSH4 0x2831473 PUSH1 0xE6 SHL DUP2 MSTORE PUSH1 0x4 ADD PUSH1 0x40 MLOAD DUP1 SWAP2 SUB SWAP1 REVERT JUMPDEST CALLER PUSH0 SWAP1 DUP2 MSTORE PUSH1 0x17 PUSH1 0x20 MSTORE PUSH1 0x40 DUP2 KECCAK256 DUP1 SLOAD DUP4 SWAP3 SWAP1 PUSH2 0x191E SWAP1 DUP5 SWAP1 PUSH2 0x2D2C JUMP JUMPDEST SWAP1 SWAP2 SSTORE POP POP PUSH1 0xC SLOAD PUSH0 SWAP1 PUSH2 0x1933 SWAP1 DUP4 SWAP1 PUSH2 0x2CD6 JUMP JUMPDEST SWAP1 POP DUP1 CALLVALUE LT ISZERO PUSH2 0x1956 JUMPI PUSH1 0x40 MLOAD PUSH4 0xCD1C8867 PUSH1 0xE0 SHL DUP2 MSTORE PUSH1 0x4 ADD PUSH1 0x40 MLOAD DUP1 SWAP2 SUB SWAP1 REVERT JUMPDEST PUSH2 0x1960 CALLER DUP4 PUSH2 0x1F66 JUMP JUMPDEST POP PUSH2 0x11CE PUSH1 0x1 PUSH1 0x9 SSTORE JUMP JUMPDEST PUSH0 PUSH1 0x1 PUSH1 0x1 PUSH1 0xE0 SHL SUB NOT DUP3 AND PUSH4 0x152A902D PUSH1 0xE1 SHL EQ DUP1 PUSH2 0x8EF JUMPI POP PUSH2 0x8EF DUP3 PUSH2 0x2313 JUMP JUMPDEST PUSH1 0x8 SLOAD PUSH1 0x1 PUSH1 0x1 PUSH1 0xA0 SHL SUB AND CALLER EQ PUSH2 0x128F JUMPI PUSH1 0x40 MLOAD PUSH3 0x461BCD PUSH1 0xE5 SHL DUP2 MSTORE PUSH1 0x20 PUSH1 0x4 DUP3 ADD DUP2 SWAP1 MSTORE PUSH1 0x24 DUP3 ADD MSTORE PUSH32 0x4F776E61626C653A2063616C6C6572206973206E6F7420746865206F776E6572 PUSH1 0x44 DUP3 ADD MSTORE PUSH1 0x64 ADD PUSH2 0xA04 JUMP JUMPDEST PUSH2 0x2710 PUSH1 0x1 PUSH1 0x1 PUSH1 0x60 SHL SUB DUP3 AND GT ISZERO PUSH2 0x1A57 JUMPI PUSH1 0x40 MLOAD PUSH3 0x461BCD PUSH1 0xE5 SHL DUP2 MSTORE PUSH1 0x20 PUSH1 0x4 DUP3 ADD MSTORE PUSH1 0x2A PUSH1 0x24 DUP3 ADD MSTORE PUSH32 0x455243323938313A20726F79616C7479206665652077696C6C20657863656564 PUSH1 0x44 DUP3 ADD MSTORE PUSH10 0x2073616C655072696365 PUSH1 0xB0 SHL PUSH1 0x64 DUP3 ADD MSTORE PUSH1 0x84 ADD PUSH2 0xA04 JUMP JUMPDEST PUSH1 0x1 PUSH1 0x1 PUSH1 0xA0 SHL SUB DUP3 AND PUSH2 0x1AAD JUMPI PUSH1 0x40 MLOAD PUSH3 0x461BCD PUSH1 0xE5 SHL DUP2 MSTORE PUSH1 0x20 PUSH1 0x4 DUP3 ADD MSTORE PUSH1 0x19 PUSH1 0x24 DUP3 ADD MSTORE PUSH32 0x455243323938313A20696E76616C696420726563656976657200000000000000 PUSH1 0x44 DUP3 ADD MSTORE PUSH1 0x64 ADD PUSH2 0xA04 JUMP JUMPDEST PUSH1 0x40 DUP1 MLOAD DUP1 DUP3 ADD SWAP1 SWAP2 MSTORE PUSH1 0x1 PUSH1 0x1 PUSH1 0xA0 SHL SUB SWAP1 SWAP3 AND DUP1 DUP4 MSTORE PUSH1 0x1 PUSH1 0x1 PUSH1 0x60 SHL SUB SWAP1 SWAP2 AND PUSH1 0x20 SWAP1 SWAP3 ADD DUP3 SWAP1 MSTORE PUSH1 0x1 PUSH1 0xA0 SHL SWAP1 SWAP2 MUL OR PUSH1 0xA SSTORE JUMP JUMPDEST PUSH0 DUP3 DUP2 MSTORE PUSH1 0x5 PUSH1 0x20 MSTORE PUSH1 0x40 DUP1 DUP3 KECCAK256 DUP1 SLOAD PUSH1 0x1 PUSH1 0x1 PUSH1 0xA0 SHL SUB NOT AND PUSH1 0x1 PUSH1 0x1 PUSH1 0xA0 SHL SUB DUP8 DUP2 AND SWAP2 DUP3 OR SWAP1 SWAP3 SSTORE SWAP2 MLOAD DUP6 SWAP4 SWAP2 DUP6 AND SWAP2 PUSH32 0x8C5BE1E5EBEC7D5BD14F71427D1E84F3DD0314C0F7B2291E5B200AC8C7C3B925 SWAP2 LOG4 POP POP POP JUMP JUMPDEST PUSH0 PUSH2 0x1B4B DUP3 PUSH2 0x1F7F JUMP JUMPDEST DUP1 MLOAD SWAP1 SWAP2 POP PUSH0 SWAP1 PUSH1 0x1 PUSH1 0x1 PUSH1 0xA0 SHL SUB AND CALLER PUSH1 0x1 PUSH1 0x1 PUSH1 0xA0 SHL SUB AND EQ DUP1 PUSH2 0x1B81 JUMPI POP CALLER PUSH2 0x1B76 DUP5 PUSH2 0x99B JUMP JUMPDEST PUSH1 0x1 PUSH1 0x1 PUSH1 0xA0 SHL SUB AND EQ JUMPDEST DUP1 PUSH2 0x1B93 JUMPI POP DUP2 MLOAD PUSH2 0x1B93 SWAP1 CALLER PUSH2 0x871 JUMP JUMPDEST SWAP1 POP DUP1 PUSH2 0x1BFD JUMPI PUSH1 0x40 MLOAD PUSH3 0x461BCD PUSH1 0xE5 SHL DUP2 MSTORE PUSH1 0x20 PUSH1 0x4 DUP3 ADD MSTORE PUSH1 0x32 PUSH1 0x24 DUP3 ADD MSTORE PUSH32 0x455243373231413A207472616E736665722063616C6C6572206973206E6F7420 PUSH1 0x44 DUP3 ADD MSTORE PUSH18 0x1BDDDB995C881B9BDC88185C1C1C9BDD9959 PUSH1 0x72 SHL PUSH1 0x64 DUP3 ADD MSTORE PUSH1 0x84 ADD PUSH2 0xA04 JUMP JUMPDEST DUP5 PUSH1 0x1 PUSH1 0x1 PUSH1 0xA0 SHL SUB AND DUP3 PUSH0 ADD MLOAD PUSH1 0x1 PUSH1 0x1 PUSH1 0xA0 SHL SUB AND EQ PUSH2 0x1C70 JUMPI PUSH1 0x40 MLOAD PUSH3 0x461BCD PUSH1 0xE5 SHL DUP2 MSTORE PUSH1 0x20 PUSH1 0x4 DUP3 ADD MSTORE PUSH1 0x26 PUSH1 0x24 DUP3 ADD MSTORE PUSH32 0x455243373231413A207472616E736665722066726F6D20696E636F7272656374 PUSH1 0x44 DUP3 ADD MSTORE PUSH6 0x1037BBB732B9 PUSH1 0xD1 SHL PUSH1 0x64 DUP3 ADD MSTORE PUSH1 0x84 ADD PUSH2 0xA04 JUMP JUMPDEST PUSH1 0x1 PUSH1 0x1 PUSH1 0xA0 SHL SUB DUP5 AND PUSH2 0x1CD4 JUMPI PUSH1 0x40 MLOAD PUSH3 0x461BCD PUSH1 0xE5 SHL DUP2 MSTORE PUSH1 0x20 PUSH1 0x4 DUP3 ADD MSTORE PUSH1 0x25 PUSH1 0x24 DUP3 ADD MSTORE PUSH32 0x455243373231413A207472616E7366657220746F20746865207A65726F206164 PUSH1 0x44 DUP3 ADD MSTORE PUSH5 0x6472657373 PUSH1 0xD8 SHL PUSH1 0x64 DUP3 ADD MSTORE PUSH1 0x84 ADD PUSH2 0xA04 JUMP JUMPDEST PUSH2 0x1CE2 PUSH0 DUP5 DUP5 PUSH0 ADD MLOAD PUSH2 0x1AE6 JUMP JUMPDEST PUSH1 0x1 PUSH1 0x1 PUSH1 0xA0 SHL SUB DUP6 AND PUSH0 SWAP1 DUP2 MSTORE PUSH1 0x4 PUSH1 0x20 MSTORE PUSH1 0x40 DUP2 KECCAK256 DUP1 SLOAD PUSH1 0x1 SWAP3 SWAP1 PUSH2 0x1D13 SWAP1 DUP5 SWAP1 PUSH1 0x1 PUSH1 0x1 PUSH1 0x80 SHL SUB AND PUSH2 0x2E53 JUMP JUMPDEST DUP3 SLOAD PUSH2 0x100 SWAP3 SWAP1 SWAP3 EXP PUSH1 0x1 PUSH1 0x1 PUSH1 0x80 SHL SUB DUP2 DUP2 MUL NOT SWAP1 SWAP4 AND SWAP2 DUP4 AND MUL OR SWAP1 SWAP2 SSTORE PUSH1 0x1 PUSH1 0x1 PUSH1 0xA0 SHL SUB DUP7 AND PUSH0 SWAP1 DUP2 MSTORE PUSH1 0x4 PUSH1 0x20 MSTORE PUSH1 0x40 DUP2 KECCAK256 DUP1 SLOAD PUSH1 0x1 SWAP5 POP SWAP1 SWAP3 PUSH2 0x1D5E SWAP2 DUP6 SWAP2 AND PUSH2 0x2E7A JUMP JUMPDEST DUP3 SLOAD PUSH1 0x1 PUSH1 0x1 PUSH1 0x80 SHL SUB SWAP2 DUP3 AND PUSH2 0x100 SWAP4 SWAP1 SWAP4 EXP SWAP3 DUP4 MUL SWAP2 SWAP1 SWAP3 MUL NOT SWAP1 SWAP2 AND OR SWAP1 SSTORE POP PUSH1 0x40 DUP1 MLOAD DUP1 DUP3 ADD DUP3 MSTORE PUSH1 0x1 PUSH1 0x1 PUSH1 0xA0 SHL SUB DUP1 DUP8 AND DUP3 MSTORE PUSH8 0xFFFFFFFFFFFFFFFF TIMESTAMP DUP2 AND PUSH1 0x20 DUP1 DUP6 ADD SWAP2 DUP3 MSTORE PUSH0 DUP10 DUP2 MSTORE PUSH1 0x3 SWAP1 SWAP2 MSTORE SWAP5 DUP6 KECCAK256 SWAP4 MLOAD DUP5 SLOAD SWAP2 MLOAD SWAP1 SWAP3 AND PUSH1 0x1 PUSH1 0xA0 SHL MUL PUSH1 0x1 PUSH1 0x1 PUSH1 0xE0 SHL SUB NOT SWAP1 SWAP2 AND SWAP2 SWAP1 SWAP3 AND OR OR SWAP1 SSTORE PUSH2 0x1DE5 DUP5 PUSH1 0x1 PUSH2 0x2D2C JUMP JUMPDEST PUSH0 DUP2 DUP2 MSTORE PUSH1 0x3 PUSH1 0x20 MSTORE PUSH1 0x40 SWAP1 KECCAK256 SLOAD SWAP1 SWAP2 POP PUSH1 0x1 PUSH1 0x1 PUSH1 0xA0 SHL SUB AND PUSH2 0x1E74 JUMPI PUSH2 0x1E0D DUP2 PUSH0 SLOAD GT SWAP1 JUMP JUMPDEST ISZERO PUSH2 0x1E74 JUMPI PUSH1 0x40 DUP1 MLOAD DUP1 DUP3 ADD DUP3 MSTORE DUP5 MLOAD PUSH1 0x1 PUSH1 0x1 PUSH1 0xA0 SHL SUB SWAP1 DUP2 AND DUP3 MSTORE PUSH1 0x20 DUP1 DUP8 ADD MLOAD PUSH8 0xFFFFFFFFFFFFFFFF SWAP1 DUP2 AND DUP3 DUP6 ADD SWAP1 DUP2 MSTORE PUSH0 DUP8 DUP2 MSTORE PUSH1 0x3 SWAP1 SWAP4 MSTORE SWAP5 SWAP1 SWAP2 KECCAK256 SWAP3 MLOAD DUP4 SLOAD SWAP5 MLOAD SWAP1 SWAP2 AND PUSH1 0x1 PUSH1 0xA0 SHL MUL PUSH1 0x1 PUSH1 0x1 PUSH1 0xE0 SHL SUB NOT SWAP1 SWAP5 AND SWAP2 AND OR SWAP2 SWAP1 SWAP2 OR SWAP1 SSTORE JUMPDEST DUP4 DUP6 PUSH1 0x1 PUSH1 0x1 PUSH1 0xA0 SHL SUB AND DUP8 PUSH1 0x1 PUSH1 0x1 PUSH1 0xA0 SHL SUB AND PUSH32 0xDDF252AD1BE2C89B69C2B068FC378DAA952BA7F163C4A11628F55A4DF523B3EF PUSH1 0x40 MLOAD PUSH1 0x40 MLOAD DUP1 SWAP2 SUB SWAP1 LOG4 JUMPDEST POP POP POP POP POP POP JUMP JUMPDEST PUSH1 0x2 PUSH1 0x9 SLOAD SUB PUSH2 0x1F10 JUMPI PUSH1 0x40 MLOAD PUSH3 0x461BCD PUSH1 0xE5 SHL DUP2 MSTORE PUSH1 0x20 PUSH1 0x4 DUP3 ADD MSTORE PUSH1 0x1F PUSH1 0x24 DUP3 ADD MSTORE PUSH32 0x5265656E7472616E637947756172643A207265656E7472616E742063616C6C00 PUSH1 0x44 DUP3 ADD MSTORE PUSH1 0x64 ADD PUSH2 0xA04 JUMP JUMPDEST PUSH1 0x2 PUSH1 0x9 SSTORE JUMP JUMPDEST PUSH1 0x40 MLOAD PUSH12 0xFFFFFFFFFFFFFFFFFFFFFFFF NOT PUSH1 0x60 DUP6 SWAP1 SHL AND PUSH1 0x20 DUP3 ADD MSTORE PUSH0 SWAP1 DUP2 SWAP1 PUSH1 0x34 ADD PUSH1 0x40 MLOAD PUSH1 0x20 DUP2 DUP4 SUB SUB DUP2 MSTORE SWAP1 PUSH1 0x40 MSTORE DUP1 MLOAD SWAP1 PUSH1 0x20 ADD KECCAK256 SWAP1 POP PUSH2 0x1F5D DUP5 DUP5 DUP4 PUSH2 0x237D JUMP JUMPDEST SWAP6 SWAP5 POP POP POP POP POP JUMP JUMPDEST PUSH2 0x907 DUP3 DUP3 PUSH1 0x40 MLOAD DUP1 PUSH1 0x20 ADD PUSH1 0x40 MSTORE DUP1 PUSH0 DUP2 MSTORE POP PUSH2 0x2392 JUMP JUMPDEST PUSH1 0x40 DUP1 MLOAD DUP1 DUP3 ADD SWAP1 SWAP2 MSTORE PUSH0 DUP1 DUP3 MSTORE PUSH1 0x20 DUP3 ADD MSTORE PUSH2 0x1F9C DUP3 PUSH0 SLOAD GT SWAP1 JUMP JUMPDEST PUSH2 0x1FFB JUMPI PUSH1 0x40 MLOAD PUSH3 0x461BCD PUSH1 0xE5 SHL DUP2 MSTORE PUSH1 0x20 PUSH1 0x4 DUP3 ADD MSTORE PUSH1 0x2A PUSH1 0x24 DUP3 ADD MSTORE PUSH32 0x455243373231413A206F776E657220717565727920666F72206E6F6E65786973 PUSH1 0x44 DUP3 ADD MSTORE PUSH10 0x3A32B73A103A37B5B2B7 PUSH1 0xB1 SHL PUSH1 0x64 DUP3 ADD MSTORE PUSH1 0x84 ADD PUSH2 0xA04 JUMP JUMPDEST PUSH0 PUSH32 0x0 DUP4 LT PUSH2 0x205B JUMPI PUSH2 0x204D PUSH32 0x0 DUP5 PUSH2 0x2D52 JUMP JUMPDEST PUSH2 0x2058 SWAP1 PUSH1 0x1 PUSH2 0x2D2C JUMP JUMPDEST SWAP1 POP JUMPDEST DUP3 JUMPDEST DUP2 DUP2 LT PUSH2 0x20C4 JUMPI PUSH0 DUP2 DUP2 MSTORE PUSH1 0x3 PUSH1 0x20 SWAP1 DUP2 MSTORE PUSH1 0x40 SWAP2 DUP3 SWAP1 KECCAK256 DUP3 MLOAD DUP1 DUP5 ADD SWAP1 SWAP4 MSTORE SLOAD PUSH1 0x1 PUSH1 0x1 PUSH1 0xA0 SHL SUB DUP2 AND DUP1 DUP5 MSTORE PUSH1 0x1 PUSH1 0xA0 SHL SWAP1 SWAP2 DIV PUSH8 0xFFFFFFFFFFFFFFFF AND SWAP2 DUP4 ADD SWAP2 SWAP1 SWAP2 MSTORE ISZERO PUSH2 0x20B1 JUMPI SWAP5 SWAP4 POP POP POP POP JUMP JUMPDEST POP DUP1 PUSH2 0x20BC DUP2 PUSH2 0x2E9A JUMP JUMPDEST SWAP2 POP POP PUSH2 0x205D JUMP JUMPDEST POP PUSH1 0x40 MLOAD PUSH3 0x461BCD PUSH1 0xE5 SHL DUP2 MSTORE PUSH1 0x20 PUSH1 0x4 DUP3 ADD MSTORE PUSH1 0x2F PUSH1 0x24 DUP3 ADD MSTORE PUSH32 0x455243373231413A20756E61626C6520746F2064657465726D696E6520746865 PUSH1 0x44 DUP3 ADD MSTORE PUSH15 0x1037BBB732B91037B3103A37B5B2B7 PUSH1 0x89 SHL PUSH1 0x64 DUP3 ADD MSTORE PUSH1 0x84 ADD PUSH2 0xA04 JUMP JUMPDEST PUSH1 0x8 DUP1 SLOAD PUSH1 0x1 PUSH1 0x1 PUSH1 0xA0 SHL SUB DUP4 DUP2 AND PUSH1 0x1 PUSH1 0x1 PUSH1 0xA0 SHL SUB NOT DUP4 AND DUP2 OR SWAP1 SWAP4 SSTORE PUSH1 0x40 MLOAD SWAP2 AND SWAP2 SWAP1 DUP3 SWAP1 PUSH32 0x8BE0079C531659141344CD1FD0A4F28419497F9722A3DAAFE3B4186F6B6457E0 SWAP1 PUSH0 SWAP1 LOG3 POP POP JUMP JUMPDEST PUSH0 PUSH1 0x1 PUSH1 0x1 PUSH1 0xA0 SHL SUB DUP5 AND EXTCODESIZE ISZERO PUSH2 0x2268 JUMPI PUSH1 0x40 MLOAD PUSH4 0xA85BD01 PUSH1 0xE1 SHL DUP2 MSTORE PUSH1 0x1 PUSH1 0x1 PUSH1 0xA0 SHL SUB DUP6 AND SWAP1 PUSH4 0x150B7A02 SWAP1 PUSH2 0x21B9 SWAP1 CALLER SWAP1 DUP10 SWAP1 DUP9 SWAP1 DUP9 SWAP1 PUSH1 0x4 ADD PUSH2 0x2EAF JUMP JUMPDEST PUSH1 0x20 PUSH1 0x40 MLOAD DUP1 DUP4 SUB DUP2 PUSH0 DUP8 GAS CALL SWAP3 POP POP POP DUP1 ISZERO PUSH2 0x21F3 JUMPI POP PUSH1 0x40 DUP1 MLOAD PUSH1 0x1F RETURNDATASIZE SWAP1 DUP2 ADD PUSH1 0x1F NOT AND DUP3 ADD SWAP1 SWAP3 MSTORE PUSH2 0x21F0 SWAP2 DUP2 ADD SWAP1 PUSH2 0x2EEB JUMP JUMPDEST PUSH1 0x1 JUMPDEST PUSH2 0x224E JUMPI RETURNDATASIZE DUP1 DUP1 ISZERO PUSH2 0x2220 JUMPI PUSH1 0x40 MLOAD SWAP2 POP PUSH1 0x1F NOT PUSH1 0x3F RETURNDATASIZE ADD AND DUP3 ADD PUSH1 0x40 MSTORE RETURNDATASIZE DUP3 MSTORE RETURNDATASIZE PUSH0 PUSH1 0x20 DUP5 ADD RETURNDATACOPY PUSH2 0x2225 JUMP JUMPDEST PUSH1 0x60 SWAP2 POP JUMPDEST POP DUP1 MLOAD PUSH0 SUB PUSH2 0x2246 JUMPI PUSH1 0x40 MLOAD PUSH3 0x461BCD PUSH1 0xE5 SHL DUP2 MSTORE PUSH1 0x4 ADD PUSH2 0xA04 SWAP1 PUSH2 0x2D65 JUMP JUMPDEST DUP1 MLOAD DUP2 PUSH1 0x20 ADD REVERT JUMPDEST PUSH1 0x1 PUSH1 0x1 PUSH1 0xE0 SHL SUB NOT AND PUSH4 0xA85BD01 PUSH1 0xE1 SHL EQ SWAP1 POP PUSH2 0x226C JUMP JUMPDEST POP PUSH1 0x1 JUMPDEST SWAP5 SWAP4 POP POP POP POP JUMP JUMPDEST PUSH1 0x60 PUSH1 0x10 DUP1 SLOAD PUSH2 0x91A SWAP1 PUSH2 0x2B89 JUMP JUMPDEST PUSH1 0x60 PUSH0 PUSH2 0x228F DUP4 PUSH2 0x2666 JUMP JUMPDEST PUSH1 0x1 ADD SWAP1 POP PUSH0 DUP2 PUSH8 0xFFFFFFFFFFFFFFFF DUP2 GT ISZERO PUSH2 0x22AE JUMPI PUSH2 0x22AE PUSH2 0x28DB JUMP JUMPDEST PUSH1 0x40 MLOAD SWAP1 DUP1 DUP3 MSTORE DUP1 PUSH1 0x1F ADD PUSH1 0x1F NOT AND PUSH1 0x20 ADD DUP3 ADD PUSH1 0x40 MSTORE DUP1 ISZERO PUSH2 0x22D8 JUMPI PUSH1 0x20 DUP3 ADD DUP2 DUP1 CALLDATASIZE DUP4 CALLDATACOPY ADD SWAP1 POP JUMPDEST POP SWAP1 POP DUP2 DUP2 ADD PUSH1 0x20 ADD JUMPDEST PUSH0 NOT ADD PUSH16 0x181899199A1A9B1B9C1CB0B131B232B3 PUSH1 0x81 SHL PUSH1 0xA DUP7 MOD BYTE DUP2 MSTORE8 PUSH1 0xA DUP6 DIV SWAP5 POP DUP5 PUSH2 0x22E2 JUMPI POP SWAP4 SWAP3 POP POP POP JUMP JUMPDEST PUSH0 PUSH1 0x1 PUSH1 0x1 PUSH1 0xE0 SHL SUB NOT DUP3 AND PUSH4 0x80AC58CD PUSH1 0xE0 SHL EQ DUP1 PUSH2 0x2343 JUMPI POP PUSH1 0x1 PUSH1 0x1 PUSH1 0xE0 SHL SUB NOT DUP3 AND PUSH4 0x5B5E139F PUSH1 0xE0 SHL EQ JUMPDEST DUP1 PUSH2 0x235E JUMPI POP PUSH1 0x1 PUSH1 0x1 PUSH1 0xE0 SHL SUB NOT DUP3 AND PUSH4 0x780E9D63 PUSH1 0xE0 SHL EQ JUMPDEST DUP1 PUSH2 0x8EF JUMPI POP PUSH4 0x1FFC9A7 PUSH1 0xE0 SHL PUSH1 0x1 PUSH1 0x1 PUSH1 0xE0 SHL SUB NOT DUP4 AND EQ PUSH2 0x8EF JUMP JUMPDEST PUSH0 DUP3 PUSH2 0x2389 DUP6 DUP5 PUSH2 0x273D JUMP JUMPDEST EQ SWAP5 SWAP4 POP POP POP POP JUMP JUMPDEST PUSH0 SLOAD PUSH1 0x1 PUSH1 0x1 PUSH1 0xA0 SHL SUB DUP5 AND PUSH2 0x23F4 JUMPI PUSH1 0x40 MLOAD PUSH3 0x461BCD PUSH1 0xE5 SHL DUP2 MSTORE PUSH1 0x20 PUSH1 0x4 DUP3 ADD MSTORE PUSH1 0x21 PUSH1 0x24 DUP3 ADD MSTORE PUSH32 0x455243373231413A206D696E7420746F20746865207A65726F20616464726573 PUSH1 0x44 DUP3 ADD MSTORE PUSH1 0x73 PUSH1 0xF8 SHL PUSH1 0x64 DUP3 ADD MSTORE PUSH1 0x84 ADD PUSH2 0xA04 JUMP JUMPDEST PUSH2 0x23FE DUP2 PUSH0 SLOAD GT SWAP1 JUMP JUMPDEST ISZERO PUSH2 0x244B JUMPI PUSH1 0x40 MLOAD PUSH3 0x461BCD PUSH1 0xE5 SHL DUP2 MSTORE PUSH1 0x20 PUSH1 0x4 DUP3 ADD MSTORE PUSH1 0x1D PUSH1 0x24 DUP3 ADD MSTORE PUSH32 0x455243373231413A20746F6B656E20616C7265616479206D696E746564000000 PUSH1 0x44 DUP3 ADD MSTORE PUSH1 0x64 ADD PUSH2 0xA04 JUMP JUMPDEST PUSH32 0x0 DUP4 GT ISZERO PUSH2 0x24C6 JUMPI PUSH1 0x40 MLOAD PUSH3 0x461BCD PUSH1 0xE5 SHL DUP2 MSTORE PUSH1 0x20 PUSH1 0x4 DUP3 ADD MSTORE PUSH1 0x22 PUSH1 0x24 DUP3 ADD MSTORE PUSH32 0x455243373231413A207175616E7469747920746F206D696E7420746F6F206869 PUSH1 0x44 DUP3 ADD MSTORE PUSH2 0xCED PUSH1 0xF3 SHL PUSH1 0x64 DUP3 ADD MSTORE PUSH1 0x84 ADD PUSH2 0xA04 JUMP JUMPDEST PUSH1 0x1 PUSH1 0x1 PUSH1 0xA0 SHL SUB DUP5 AND PUSH0 SWAP1 DUP2 MSTORE PUSH1 0x4 PUSH1 0x20 SWAP1 DUP2 MSTORE PUSH1 0x40 SWAP2 DUP3 SWAP1 KECCAK256 DUP3 MLOAD DUP1 DUP5 ADD DUP5 MSTORE SWAP1 SLOAD PUSH1 0x1 PUSH1 0x1 PUSH1 0x80 SHL SUB DUP1 DUP3 AND DUP4 MSTORE PUSH1 0x1 PUSH1 0x80 SHL SWAP1 SWAP2 DIV AND SWAP2 DUP2 ADD SWAP2 SWAP1 SWAP2 MSTORE DUP2 MLOAD DUP1 DUP4 ADD SWAP1 SWAP3 MSTORE DUP1 MLOAD SWAP1 SWAP2 SWAP1 DUP2 SWAP1 PUSH2 0x2521 SWAP1 DUP8 SWAP1 PUSH2 0x2E7A JUMP JUMPDEST PUSH1 0x1 PUSH1 0x1 PUSH1 0x80 SHL SUB AND DUP2 MSTORE PUSH1 0x20 ADD DUP6 DUP4 PUSH1 0x20 ADD MLOAD PUSH2 0x253F SWAP2 SWAP1 PUSH2 0x2E7A JUMP JUMPDEST PUSH1 0x1 PUSH1 0x1 PUSH1 0x80 SHL SUB SWAP1 DUP2 AND SWAP1 SWAP2 MSTORE PUSH1 0x1 PUSH1 0x1 PUSH1 0xA0 SHL SUB DUP1 DUP9 AND PUSH0 DUP2 DUP2 MSTORE PUSH1 0x4 PUSH1 0x20 SWAP1 DUP2 MSTORE PUSH1 0x40 DUP1 DUP4 KECCAK256 DUP8 MLOAD SWAP8 DUP4 ADD MLOAD DUP8 AND PUSH1 0x1 PUSH1 0x80 SHL MUL SWAP8 SWAP1 SWAP7 AND SWAP7 SWAP1 SWAP7 OR SWAP1 SWAP5 SSTORE DUP5 MLOAD DUP1 DUP7 ADD DUP7 MSTORE SWAP2 DUP3 MSTORE PUSH8 0xFFFFFFFFFFFFFFFF TIMESTAMP DUP2 AND DUP4 DUP7 ADD SWAP1 DUP2 MSTORE DUP9 DUP4 MSTORE PUSH1 0x3 SWAP1 SWAP6 MSTORE SWAP5 DUP2 KECCAK256 SWAP2 MLOAD DUP3 SLOAD SWAP5 MLOAD SWAP1 SWAP6 AND PUSH1 0x1 PUSH1 0xA0 SHL MUL PUSH1 0x1 PUSH1 0x1 PUSH1 0xE0 SHL SUB NOT SWAP1 SWAP5 AND SWAP5 SWAP1 SWAP3 AND SWAP4 SWAP1 SWAP4 OR SWAP2 SWAP1 SWAP2 OR SWAP1 SWAP2 SSTORE DUP3 SWAP1 JUMPDEST DUP6 DUP2 LT ISZERO PUSH2 0x265C JUMPI PUSH1 0x40 MLOAD DUP3 SWAP1 PUSH1 0x1 PUSH1 0x1 PUSH1 0xA0 SHL SUB DUP10 AND SWAP1 PUSH0 SWAP1 PUSH32 0xDDF252AD1BE2C89B69C2B068FC378DAA952BA7F163C4A11628F55A4DF523B3EF SWAP1 DUP3 SWAP1 LOG4 PUSH2 0x2620 PUSH0 DUP9 DUP5 DUP9 PUSH2 0x2176 JUMP JUMPDEST PUSH2 0x263C JUMPI PUSH1 0x40 MLOAD PUSH3 0x461BCD PUSH1 0xE5 SHL DUP2 MSTORE PUSH1 0x4 ADD PUSH2 0xA04 SWAP1 PUSH2 0x2D65 JUMP JUMPDEST DUP2 PUSH2 0x2646 DUP2 PUSH2 0x2D14 JUMP JUMPDEST SWAP3 POP POP DUP1 DUP1 PUSH2 0x2654 SWAP1 PUSH2 0x2D14 JUMP JUMPDEST SWAP2 POP POP PUSH2 0x25D5 JUMP JUMPDEST POP PUSH0 DUP2 SWAP1 SSTORE PUSH2 0x1EB6 JUMP JUMPDEST PUSH0 DUP1 PUSH19 0x184F03E93FF9F4DAA797ED6E38ED64BF6A1F01 PUSH1 0x40 SHL DUP4 LT PUSH2 0x26A4 JUMPI PUSH19 0x184F03E93FF9F4DAA797ED6E38ED64BF6A1F01 PUSH1 0x40 SHL DUP4 DIV SWAP3 POP PUSH1 0x40 ADD JUMPDEST PUSH14 0x4EE2D6D415B85ACEF8100000000 DUP4 LT PUSH2 0x26D0 JUMPI PUSH14 0x4EE2D6D415B85ACEF8100000000 DUP4 DIV SWAP3 POP PUSH1 0x20 ADD JUMPDEST PUSH7 0x2386F26FC10000 DUP4 LT PUSH2 0x26EE JUMPI PUSH7 0x2386F26FC10000 DUP4 DIV SWAP3 POP PUSH1 0x10 ADD JUMPDEST PUSH4 0x5F5E100 DUP4 LT PUSH2 0x2706 JUMPI PUSH4 0x5F5E100 DUP4 DIV SWAP3 POP PUSH1 0x8 ADD JUMPDEST PUSH2 0x2710 DUP4 LT PUSH2 0x271A JUMPI PUSH2 0x2710 DUP4 DIV SWAP3 POP PUSH1 0x4 ADD JUMPDEST PUSH1 0x64 DUP4 LT PUSH2 0x272C JUMPI PUSH1 0x64 DUP4 DIV SWAP3 POP PUSH1 0x2 ADD JUMPDEST PUSH1 0xA DUP4 LT PUSH2 0x8EF JUMPI PUSH1 0x1 ADD SWAP3 SWAP2 POP POP JUMP JUMPDEST PUSH0 DUP2 DUP2 JUMPDEST DUP5 MLOAD DUP2 LT ISZERO PUSH2 0x2781 JUMPI PUSH2 0x276D DUP3 DUP7 DUP4 DUP2 MLOAD DUP2 LT PUSH2 0x2760 JUMPI PUSH2 0x2760 PUSH2 0x2F06 JUMP JUMPDEST PUSH1 0x20 MUL PUSH1 0x20 ADD ADD MLOAD PUSH2 0x2789 JUMP JUMPDEST SWAP2 POP DUP1 PUSH2 0x2779 DUP2 PUSH2 0x2D14 JUMP JUMPDEST SWAP2 POP POP PUSH2 0x2741 JUMP JUMPDEST POP SWAP4 SWAP3 POP POP POP JUMP JUMPDEST PUSH0 DUP2 DUP4 LT PUSH2 0x27A3 JUMPI PUSH0 DUP3 DUP2 MSTORE PUSH1 0x20 DUP5 SWAP1 MSTORE PUSH1 0x40 SWAP1 KECCAK256 PUSH2 0x174E JUMP JUMPDEST POP PUSH0 SWAP2 DUP3 MSTORE PUSH1 0x20 MSTORE PUSH1 0x40 SWAP1 KECCAK256 SWAP1 JUMP JUMPDEST PUSH1 0x1 PUSH1 0x1 PUSH1 0xE0 SHL SUB NOT DUP2 AND DUP2 EQ PUSH2 0x11CE JUMPI PUSH0 DUP1 REVERT JUMPDEST PUSH0 PUSH1 0x20 DUP3 DUP5 SUB SLT ISZERO PUSH2 0x27D7 JUMPI PUSH0 DUP1 REVERT JUMPDEST DUP2 CALLDATALOAD PUSH2 0x174E DUP2 PUSH2 0x27B2 JUMP JUMPDEST DUP1 CALLDATALOAD PUSH1 0x1 PUSH1 0x1 PUSH1 0xA0 SHL SUB DUP2 AND DUP2 EQ PUSH2 0x27F8 JUMPI PUSH0 DUP1 REVERT JUMPDEST SWAP2 SWAP1 POP JUMP JUMPDEST PUSH0 DUP1 PUSH1 0x40 DUP4 DUP6 SUB SLT ISZERO PUSH2 0x280E JUMPI PUSH0 DUP1 REVERT JUMPDEST PUSH2 0x2817 DUP4 PUSH2 0x27E2 JUMP JUMPDEST SWAP2 POP PUSH1 0x20 DUP4 ADD CALLDATALOAD PUSH1 0x1 PUSH1 0x1 PUSH1 0x60 SHL SUB DUP2 AND DUP2 EQ PUSH2 0x2832 JUMPI PUSH0 DUP1 REVERT JUMPDEST DUP1 SWAP2 POP POP SWAP3 POP SWAP3 SWAP1 POP JUMP JUMPDEST PUSH0 JUMPDEST DUP4 DUP2 LT ISZERO PUSH2 0x2857 JUMPI DUP2 DUP2 ADD MLOAD DUP4 DUP3 ADD MSTORE PUSH1 0x20 ADD PUSH2 0x283F JUMP JUMPDEST POP POP PUSH0 SWAP2 ADD MSTORE JUMP JUMPDEST PUSH0 DUP2 MLOAD DUP1 DUP5 MSTORE PUSH2 0x2876 DUP2 PUSH1 0x20 DUP7 ADD PUSH1 0x20 DUP7 ADD PUSH2 0x283D JUMP JUMPDEST PUSH1 0x1F ADD PUSH1 0x1F NOT AND SWAP3 SWAP1 SWAP3 ADD PUSH1 0x20 ADD SWAP3 SWAP2 POP POP JUMP JUMPDEST PUSH1 0x20 DUP2 MSTORE PUSH0 PUSH2 0x174E PUSH1 0x20 DUP4 ADD DUP5 PUSH2 0x285F JUMP JUMPDEST PUSH0 PUSH1 0x20 DUP3 DUP5 SUB SLT ISZERO PUSH2 0x28AC JUMPI PUSH0 DUP1 REVERT JUMPDEST POP CALLDATALOAD SWAP2 SWAP1 POP JUMP JUMPDEST PUSH0 DUP1 PUSH1 0x40 DUP4 DUP6 SUB SLT ISZERO PUSH2 0x28C4 JUMPI PUSH0 DUP1 REVERT JUMPDEST PUSH2 0x28CD DUP4 PUSH2 0x27E2 JUMP JUMPDEST SWAP5 PUSH1 0x20 SWAP4 SWAP1 SWAP4 ADD CALLDATALOAD SWAP4 POP POP POP JUMP JUMPDEST PUSH4 0x4E487B71 PUSH1 0xE0 SHL PUSH0 MSTORE PUSH1 0x41 PUSH1 0x4 MSTORE PUSH1 0x24 PUSH0 REVERT JUMPDEST PUSH0 PUSH8 0xFFFFFFFFFFFFFFFF DUP1 DUP5 GT ISZERO PUSH2 0x2909 JUMPI PUSH2 0x2909 PUSH2 0x28DB JUMP JUMPDEST PUSH1 0x40 MLOAD PUSH1 0x1F DUP6 ADD PUSH1 0x1F NOT SWAP1 DUP2 AND PUSH1 0x3F ADD AND DUP2 ADD SWAP1 DUP3 DUP3 GT DUP2 DUP4 LT OR ISZERO PUSH2 0x2931 JUMPI PUSH2 0x2931 PUSH2 0x28DB JUMP JUMPDEST DUP2 PUSH1 0x40 MSTORE DUP1 SWAP4 POP DUP6 DUP2 MSTORE DUP7 DUP7 DUP7 ADD GT ISZERO PUSH2 0x2949 JUMPI PUSH0 DUP1 REVERT JUMPDEST DUP6 DUP6 PUSH1 0x20 DUP4 ADD CALLDATACOPY PUSH0 PUSH1 0x20 DUP8 DUP4 ADD ADD MSTORE POP POP POP SWAP4 SWAP3 POP POP POP JUMP JUMPDEST PUSH0 PUSH1 0x20 DUP3 DUP5 SUB SLT ISZERO PUSH2 0x2972 JUMPI PUSH0 DUP1 REVERT JUMPDEST DUP2 CALLDATALOAD PUSH8 0xFFFFFFFFFFFFFFFF DUP2 GT ISZERO PUSH2 0x2988 JUMPI PUSH0 DUP1 REVERT JUMPDEST DUP3 ADD PUSH1 0x1F DUP2 ADD DUP5 SGT PUSH2 0x2998 JUMPI PUSH0 DUP1 REVERT JUMPDEST PUSH2 0x226C DUP5 DUP3 CALLDATALOAD PUSH1 0x20 DUP5 ADD PUSH2 0x28EF JUMP JUMPDEST PUSH0 DUP1 PUSH0 PUSH1 0x60 DUP5 DUP7 SUB SLT ISZERO PUSH2 0x29B9 JUMPI PUSH0 DUP1 REVERT JUMPDEST PUSH2 0x29C2 DUP5 PUSH2 0x27E2 JUMP JUMPDEST SWAP3 POP PUSH2 0x29D0 PUSH1 0x20 DUP6 ADD PUSH2 0x27E2 JUMP JUMPDEST SWAP2 POP PUSH1 0x40 DUP5 ADD CALLDATALOAD SWAP1 POP SWAP3 POP SWAP3 POP SWAP3 JUMP JUMPDEST PUSH0 DUP1 PUSH1 0x40 DUP4 DUP6 SUB SLT ISZERO PUSH2 0x29F1 JUMPI PUSH0 DUP1 REVERT JUMPDEST POP POP DUP1 CALLDATALOAD SWAP3 PUSH1 0x20 SWAP1 SWAP2 ADD CALLDATALOAD SWAP2 POP JUMP JUMPDEST PUSH0 DUP1 PUSH0 PUSH1 0x40 DUP5 DUP7 SUB SLT ISZERO PUSH2 0x2A12 JUMPI PUSH0 DUP1 REVERT JUMPDEST DUP4 CALLDATALOAD SWAP3 POP PUSH1 0x20 DUP5 ADD CALLDATALOAD PUSH8 0xFFFFFFFFFFFFFFFF DUP1 DUP3 GT ISZERO PUSH2 0x2A30 JUMPI PUSH0 DUP1 REVERT JUMPDEST DUP2 DUP7 ADD SWAP2 POP DUP7 PUSH1 0x1F DUP4 ADD SLT PUSH2 0x2A43 JUMPI PUSH0 DUP1 REVERT JUMPDEST DUP2 CALLDATALOAD DUP2 DUP2 GT ISZERO PUSH2 0x2A51 JUMPI PUSH0 DUP1 REVERT JUMPDEST DUP8 PUSH1 0x20 DUP3 PUSH1 0x5 SHL DUP6 ADD ADD GT ISZERO PUSH2 0x2A65 JUMPI PUSH0 DUP1 REVERT JUMPDEST PUSH1 0x20 DUP4 ADD SWAP5 POP DUP1 SWAP4 POP POP POP POP SWAP3 POP SWAP3 POP SWAP3 JUMP JUMPDEST PUSH0 PUSH1 0x20 DUP3 DUP5 SUB SLT ISZERO PUSH2 0x2A88 JUMPI PUSH0 DUP1 REVERT JUMPDEST PUSH2 0x174E DUP3 PUSH2 0x27E2 JUMP JUMPDEST DUP1 CALLDATALOAD DUP1 ISZERO ISZERO DUP2 EQ PUSH2 0x27F8 JUMPI PUSH0 DUP1 REVERT JUMPDEST PUSH0 DUP1 PUSH1 0x40 DUP4 DUP6 SUB SLT ISZERO PUSH2 0x2AB1 JUMPI PUSH0 DUP1 REVERT JUMPDEST PUSH2 0x2ABA DUP4 PUSH2 0x27E2 JUMP JUMPDEST SWAP2 POP PUSH2 0x2AC8 PUSH1 0x20 DUP5 ADD PUSH2 0x2A91 JUMP JUMPDEST SWAP1 POP SWAP3 POP SWAP3 SWAP1 POP JUMP JUMPDEST PUSH0 DUP1 PUSH0 DUP1 PUSH1 0x80 DUP6 DUP8 SUB SLT ISZERO PUSH2 0x2AE4 JUMPI PUSH0 DUP1 REVERT JUMPDEST PUSH2 0x2AED DUP6 PUSH2 0x27E2 JUMP JUMPDEST SWAP4 POP PUSH2 0x2AFB PUSH1 0x20 DUP7 ADD PUSH2 0x27E2 JUMP JUMPDEST SWAP3 POP PUSH1 0x40 DUP6 ADD CALLDATALOAD SWAP2 POP PUSH1 0x60 DUP6 ADD CALLDATALOAD PUSH8 0xFFFFFFFFFFFFFFFF DUP2 GT ISZERO PUSH2 0x2B1D JUMPI PUSH0 DUP1 REVERT JUMPDEST DUP6 ADD PUSH1 0x1F DUP2 ADD DUP8 SGT PUSH2 0x2B2D JUMPI PUSH0 DUP1 REVERT JUMPDEST PUSH2 0x2B3C DUP8 DUP3 CALLDATALOAD PUSH1 0x20 DUP5 ADD PUSH2 0x28EF JUMP JUMPDEST SWAP2 POP POP SWAP3 SWAP6 SWAP2 SWAP5 POP SWAP3 POP JUMP JUMPDEST PUSH0 PUSH1 0x20 DUP3 DUP5 SUB SLT ISZERO PUSH2 0x2B58 JUMPI PUSH0 DUP1 REVERT JUMPDEST PUSH2 0x174E DUP3 PUSH2 0x2A91 JUMP JUMPDEST PUSH0 DUP1 PUSH1 0x40 DUP4 DUP6 SUB SLT ISZERO PUSH2 0x2B72 JUMPI PUSH0 DUP1 REVERT JUMPDEST PUSH2 0x2B7B DUP4 PUSH2 0x27E2 JUMP JUMPDEST SWAP2 POP PUSH2 0x2AC8 PUSH1 0x20 DUP5 ADD PUSH2 0x27E2 JUMP JUMPDEST PUSH1 0x1 DUP2 DUP2 SHR SWAP1 DUP3 AND DUP1 PUSH2 0x2B9D JUMPI PUSH1 0x7F DUP3 AND SWAP2 POP JUMPDEST PUSH1 0x20 DUP3 LT DUP2 SUB PUSH2 0x2BBB JUMPI PUSH4 0x4E487B71 PUSH1 0xE0 SHL PUSH0 MSTORE PUSH1 0x22 PUSH1 0x4 MSTORE PUSH1 0x24 PUSH0 REVERT JUMPDEST POP SWAP2 SWAP1 POP JUMP JUMPDEST PUSH1 0x1F DUP3 GT ISZERO PUSH2 0xB39 JUMPI PUSH0 DUP2 DUP2 MSTORE PUSH1 0x20 DUP2 KECCAK256 PUSH1 0x1F DUP6 ADD PUSH1 0x5 SHR DUP2 ADD PUSH1 0x20 DUP7 LT ISZERO PUSH2 0x2BE7 JUMPI POP DUP1 JUMPDEST PUSH1 0x1F DUP6 ADD PUSH1 0x5 SHR DUP3 ADD SWAP2 POP JUMPDEST DUP2 DUP2 LT ISZERO PUSH2 0x1EB6 JUMPI DUP3 DUP2 SSTORE PUSH1 0x1 ADD PUSH2 0x2BF3 JUMP JUMPDEST DUP2 MLOAD PUSH8 0xFFFFFFFFFFFFFFFF DUP2 GT ISZERO PUSH2 0x2C20 JUMPI PUSH2 0x2C20 PUSH2 0x28DB JUMP JUMPDEST PUSH2 0x2C34 DUP2 PUSH2 0x2C2E DUP5 SLOAD PUSH2 0x2B89 JUMP JUMPDEST DUP5 PUSH2 0x2BC1 JUMP JUMPDEST PUSH1 0x20 DUP1 PUSH1 0x1F DUP4 GT PUSH1 0x1 DUP2 EQ PUSH2 0x2C67 JUMPI PUSH0 DUP5 ISZERO PUSH2 0x2C50 JUMPI POP DUP6 DUP4 ADD MLOAD JUMPDEST PUSH0 NOT PUSH1 0x3 DUP7 SWAP1 SHL SHR NOT AND PUSH1 0x1 DUP6 SWAP1 SHL OR DUP6 SSTORE PUSH2 0x1EB6 JUMP JUMPDEST PUSH0 DUP6 DUP2 MSTORE PUSH1 0x20 DUP2 KECCAK256 PUSH1 0x1F NOT DUP7 AND SWAP2 JUMPDEST DUP3 DUP2 LT ISZERO PUSH2 0x2C95 JUMPI DUP9 DUP7 ADD MLOAD DUP3 SSTORE SWAP5 DUP5 ADD SWAP5 PUSH1 0x1 SWAP1 SWAP2 ADD SWAP1 DUP5 ADD PUSH2 0x2C76 JUMP JUMPDEST POP DUP6 DUP3 LT ISZERO PUSH2 0x2CB2 JUMPI DUP8 DUP6 ADD MLOAD PUSH0 NOT PUSH1 0x3 DUP9 SWAP1 SHL PUSH1 0xF8 AND SHR NOT AND DUP2 SSTORE JUMPDEST POP POP POP POP POP PUSH1 0x1 SWAP1 DUP2 SHL ADD SWAP1 SSTORE POP JUMP JUMPDEST PUSH4 0x4E487B71 PUSH1 0xE0 SHL PUSH0 MSTORE PUSH1 0x11 PUSH1 0x4 MSTORE PUSH1 0x24 PUSH0 REVERT JUMPDEST DUP1 DUP3 MUL DUP2 ISZERO DUP3 DUP3 DIV DUP5 EQ OR PUSH2 0x8EF JUMPI PUSH2 0x8EF PUSH2 0x2CC2 JUMP JUMPDEST PUSH4 0x4E487B71 PUSH1 0xE0 SHL PUSH0 MSTORE PUSH1 0x12 PUSH1 0x4 MSTORE PUSH1 0x24 PUSH0 REVERT JUMPDEST PUSH0 DUP3 PUSH2 0x2D0F JUMPI PUSH2 0x2D0F PUSH2 0x2CED JUMP JUMPDEST POP DIV SWAP1 JUMP JUMPDEST PUSH0 PUSH1 0x1 DUP3 ADD PUSH2 0x2D25 JUMPI PUSH2 0x2D25 PUSH2 0x2CC2 JUMP JUMPDEST POP PUSH1 0x1 ADD SWAP1 JUMP JUMPDEST DUP1 DUP3 ADD DUP1 DUP3 GT ISZERO PUSH2 0x8EF JUMPI PUSH2 0x8EF PUSH2 0x2CC2 JUMP JUMPDEST PUSH0 DUP3 PUSH2 0x2D4D JUMPI PUSH2 0x2D4D PUSH2 0x2CED JUMP JUMPDEST POP MOD SWAP1 JUMP JUMPDEST DUP2 DUP2 SUB DUP2 DUP2 GT ISZERO PUSH2 0x8EF JUMPI PUSH2 0x8EF PUSH2 0x2CC2 JUMP JUMPDEST PUSH1 0x20 DUP1 DUP3 MSTORE PUSH1 0x33 SWAP1 DUP3 ADD MSTORE PUSH32 0x455243373231413A207472616E7366657220746F206E6F6E2045524337323152 PUSH1 0x40 DUP3 ADD MSTORE PUSH19 0x32B1B2B4BB32B91034B6B83632B6B2B73A32B9 PUSH1 0x69 SHL PUSH1 0x60 DUP3 ADD MSTORE PUSH1 0x80 ADD SWAP1 JUMP JUMPDEST PUSH0 DUP5 MLOAD PUSH1 0x20 PUSH2 0x2DCA DUP3 DUP6 DUP4 DUP11 ADD PUSH2 0x283D JUMP JUMPDEST DUP6 MLOAD SWAP2 DUP5 ADD SWAP2 PUSH2 0x2DDD DUP2 DUP5 DUP5 DUP11 ADD PUSH2 0x283D JUMP JUMPDEST DUP6 SLOAD SWAP3 ADD SWAP2 PUSH0 SWAP1 PUSH2 0x2DED DUP2 PUSH2 0x2B89 JUMP JUMPDEST PUSH1 0x1 DUP3 DUP2 AND DUP1 ISZERO PUSH2 0x2E05 JUMPI PUSH1 0x1 DUP2 EQ PUSH2 0x2E1A JUMPI PUSH2 0x2E43 JUMP JUMPDEST PUSH1 0xFF NOT DUP5 AND DUP8 MSTORE DUP3 ISZERO ISZERO DUP4 MUL DUP8 ADD SWAP5 POP PUSH2 0x2E43 JUMP JUMPDEST DUP10 PUSH0 MSTORE DUP6 PUSH0 KECCAK256 PUSH0 JUMPDEST DUP5 DUP2 LT ISZERO PUSH2 0x2E3B JUMPI DUP2 SLOAD DUP10 DUP3 ADD MSTORE SWAP1 DUP4 ADD SWAP1 DUP8 ADD PUSH2 0x2E22 JUMP JUMPDEST POP POP DUP3 DUP8 ADD SWAP5 POP JUMPDEST POP SWAP3 SWAP11 SWAP10 POP POP POP POP POP POP POP POP POP POP JUMP JUMPDEST PUSH1 0x1 PUSH1 0x1 PUSH1 0x80 SHL SUB DUP3 DUP2 AND DUP3 DUP3 AND SUB SWAP1 DUP1 DUP3 GT ISZERO PUSH2 0x2E73 JUMPI PUSH2 0x2E73 PUSH2 0x2CC2 JUMP JUMPDEST POP SWAP3 SWAP2 POP POP JUMP JUMPDEST PUSH1 0x1 PUSH1 0x1 PUSH1 0x80 SHL SUB DUP2 DUP2 AND DUP4 DUP3 AND ADD SWAP1 DUP1 DUP3 GT ISZERO PUSH2 0x2E73 JUMPI PUSH2 0x2E73 PUSH2 0x2CC2 JUMP JUMPDEST PUSH0 DUP2 PUSH2 0x2EA8 JUMPI PUSH2 0x2EA8 PUSH2 0x2CC2 JUMP JUMPDEST POP PUSH0 NOT ADD SWAP1 JUMP JUMPDEST PUSH1 0x1 PUSH1 0x1 PUSH1 0xA0 SHL SUB DUP6 DUP2 AND DUP3 MSTORE DUP5 AND PUSH1 0x20 DUP3 ADD MSTORE PUSH1 0x40 DUP2 ADD DUP4 SWAP1 MSTORE PUSH1 0x80 PUSH1 0x60 DUP3 ADD DUP2 SWAP1 MSTORE PUSH0 SWAP1 PUSH2 0x2EE1 SWAP1 DUP4 ADD DUP5 PUSH2 0x285F JUMP JUMPDEST SWAP7 SWAP6 POP POP POP POP POP POP JUMP JUMPDEST PUSH0 PUSH1 0x20 DUP3 DUP5 SUB SLT ISZERO PUSH2 0x2EFB JUMPI PUSH0 DUP1 REVERT JUMPDEST DUP2 MLOAD PUSH2 0x174E DUP2 PUSH2 0x27B2 JUMP JUMPDEST PUSH4 0x4E487B71 PUSH1 0xE0 SHL PUSH0 MSTORE PUSH1 0x32 PUSH1 0x4 MSTORE PUSH1 0x24 PUSH0 REVERT INVALID LOG2 PUSH5 0x6970667358 0x22 SLT KECCAK256 0xAA 0x28 0x4A DUP4 0x24 LT DIV 0x2C 0xBD 0x28 0xCA 0x2E 0x2A 0xBA 0xC7 0xC1 SWAP12 PUSH23 0xE6F0673A34B95E73FD693D7EAD2664736F6C6343000814 STOP CALLER "},"methodIdentifiers":{"AmountForPublic()":"6ca2a558","AmountforTeam()":"5c4be282","MINT_PRICE()":"c002d23d","OG_PRICE()":"90069b42","WL_PRICE()":"31c3c7a0","_mintedPerAddress(address)":"c9a32039","approve(address,uint256)":"095ea7b3","balanceOf(address)":"70a08231","getApproved(uint256)":"081812fc","hiddenMetadataUri()":"a45ba8e7","isApprovedForAll(address,address)":"e985e9c5","maxBatchSizeForWL()":"6e125b28","maxPerAddressDuringMint()":"8bc35c2f","merkleRootOG()":"ad6cb319","merkleRootWL()":"d6492d81","mintForOG(uint256,bytes32[])":"82448412","mintForPublic(uint256)":"f31b5b33","mintForTeam(uint256)":"5a4d448a","mintForWL(uint256,bytes32[])":"370a36bd","name()":"06fdde03","nextOwnerToExplicitlySet()":"d7224ba0","owner()":"8da5cb5b","ownerOf(uint256)":"6352211e","remainingTeamMints()":"f375b7c7","renounceOwnership()":"715018a6","revealed()":"51830227","royaltyInfo(uint256,uint256)":"2a55205a","safeTransferFrom(address,address,uint256)":"42842e0e","safeTransferFrom(address,address,uint256,bytes)":"b88d4fde","salePhase()":"e4f2487a","setApprovalForAll(address,bool)":"a22cb465","setDefaultRoyalty(address,uint96)":"04634d8d","setHiddenMetadataUri(string)":"4fdd43cb","setMerkleRootOG(bytes32)":"a58fdc11","setMerkleRootWL(bytes32)":"ad3e31b7","setRevealed(bool)":"e0a80853","setSalePhase(uint256)":"b769c7a4","setUriPrefix(string)":"7ec4a659","setUriSuffix(string)":"16ba10e0","supportsInterface(bytes4)":"01ffc9a7","symbol()":"95d89b41","tokenByIndex(uint256)":"4f6ccce7","tokenOfOwnerByIndex(address,uint256)":"2f745c59","tokenURI(uint256)":"c87b56dd","totalSupply()":"18160ddd","transferFrom(address,address,uint256)":"23b872dd","transferOwnership(address)":"f2fde38b","uriPrefix()":"62b99ad4","uriSuffix()":"5503a0e8","withdrawMoney()":"ac446002"}}}}}